:100000000C94C4000C94F5000C94F3000C94F300D1
:100010000C94F3000C94F3000C94F3000C94F30094
:100020000C94F3000C94F3000C94BA050C94F300B8
:100030000C94F3000C94F3000C94F3000C94F30074
:100040000C94B8060C94F3000C944B090C94D5094D
:100050000C94F3000C94F3000C94F3000C94F30054
:100060000C94F3000C94F3000C94F3000C94F30044
:100070000C94F3000C94F3000C9486090C940F0A72
:100080000C94F3000C94F3000C94F300B907ED0703
:10009000BE07C407CA07ED07ED07CF07D907E30777
:1000A0000B081C080008030807081C081C080F0898
:1000B0001308170800000000000000000000000006
:1000C0000000000000000000000000000000000030
:1000D0000103040500000505090A000000000000F6
:1000E0000000000000000000000102040810204091
:1000F0008001020408102040800102040810204002
:1001000080010204081020408001020408102040F1
:100110008001020408102040800102040810040439
:10012000040404040404030303030303030301019D
:10013000010101010101020202020202020205059F
:100140000505050505050606060606060606070753
:100150000707070000390036003300300021002077
:1001600000630000003B00380035003200230062CD
:1001700000650000003A00370034003100220061C1
:100180000064000087054E0A11241FBECFEFD0E1A6
:10019000DEBFCDBF11E0A0E0B1E0E2E0FDE100E0B4
:1001A0000BBF02C007900D92AE33B107D9F722E022
:1001B000AEE3B1E001C01D92A83FB207E1F711E044
:1001C000C8E8D1E000E006C022970109FE010BBF9C
:1001D0000E94F50DC438D10780E00807A9F70E94F6
:1001E000EF0A0C947F0E0C9400001F920F920FB632
:1001F0000F9211240BB60F922F933F934F935F935F
:100200006F937F938F939F93AF93BF93EF93FF93DE
:1002100087E090E0909305018093040180913E0176
:1002200090913F01019690933F0180933E0184E6B7
:1002300091E00E94160460913E0170913F014AE0F6
:1002400050E084E691E00E94E80BFF91EF91BF91AE
:10025000AF919F918F917F916F915F914F913F915E
:100260002F910F900BBE0F900FBE0F901F901895FF
:1002700084309105C8F564307105B0F561307105C1
:1002800099F1F894E9B721E030E0A901082E01C006
:10029000440F0A94EAF7E42BE9BFE0916A00880F63
:1002A000991FA901082E01C0440F0A94EAF740954E
:1002B0004E2340936A00E0916A00AC014F5F5F4FAC
:1002C00001C0220F4A95EAF720952E2320936A0059
:1002D00020916A00AB0102C0440F551F8A95E2F7D6
:1002E000242B20936A007894089562E070E080E007
:1002F00090E00E94380160E070E080E090E00E94B1
:10030000720560E070E081E090E00E94720520E0FC
:1003100042E060E184E691E00E942C0463E270E038
:1003200081E691E00E946D066FE170E080E691E069
:100330000E946D0662E270E08FE591E00E946D061A
:1003400084E691E00E94160484E691E00E941D0478
:1003500080E00E9480070C94FD0B2F923F924F92F9
:100360005F926F927F928F929F92AF92BF92CF9245
:10037000DF92EF92FF920F931F93CF93DF9322248C
:100380002A94322C44244394512C7AE6C72EDD243F
:10039000DA9406E910E0C0910401D0910501C13062
:1003A000D10509F032C1809104019091050182E3E9
:1003B00090E090935101809350018EE190E09093F2
:1003C00053018093520181E00E948C0890935B015D
:1003D00080935A0182E00E948C0890935901809387
:1003E000580140915A0150915B0120914A0130918E
:1003F0004B01452B41F0892B09F4F2C010924D01BD
:1004000010924C0107C0892B09F4EFC0D0934D0125
:10041000C0934C0160904C0170904D0162167306C0
:1004200081F03093490120934801809146019091D9
:100430004701909355018093540150924701409297
:1004400046018091400190914101689EE001699EC2
:10045000D00D789ED00D112480915C0190915D01AA
:10046000C80FD91FD0935D01C0935C0180915001EA
:1004700090915101689E7001699EF00C789EF00C7D
:100480001124F0925701E09256018091520190910F
:100490005301BC01882777FD8095982F0E94A00CFE
:1004A0004B015C018091480190914901681A790AD9
:1004B000B301882777FD8095982F0E94A00C9B019F
:1004C000AC01C501B4010E942C0D4B015C0180916F
:1004D0005401909155012091460130914701820FBE
:1004E000931FBC01882777FD8095982F0E94A00C50
:1004F0009B01AC01C501B4010E94050C0E946D0C6A
:1005000070934F0160934E016E0D7F1D6C0F7D1F28
:10051000673971052CF010934501009344010DC01B
:100520006A369FEF79072CF0709345016093440180
:1005300004C0D0924501C092440180914201909143
:10054000430186399105C1F484E691E00E941604C6
:100550002AE030E046EB53E060E070E084E691E0B2
:100560000E94F00B67E071E084E691E00E943C0B92
:1005700010924301109242018091420190914301F7
:10058000019690934301809342018091460190919E
:1005900047010196909347018093460140914401A1
:1005A000509145014A565F4F60E070E082E691E06D
:1005B0000E943A058091440190914501A801481B91
:1005C000590B62E070E082E691E00E943A0580916A
:1005D0004C0190914D0190934B0180934A01DBCEE9
:1005E00030924D0120924C0115CF81E080935E0145
:1005F000121613063CF483E090E090934D01809333
:100600004C0108CF8DEF9FEFF8CFDF91CF911F9175
:100610000F91FF90EF90DF90CF90BF90AF909F90A1
:100620008F907F906F905F904F903F902F900895A4
:1006300048ED5FEF60E070E082E691E00E943A05ED
:1006400048E85FEF62E070E082E691E00E943A05E0
:100650006CE474E080E090E00E94260748E750E0F8
:1006600060E070E082E691E00E943A0548E85FEFC2
:1006700062E070E082E691E00E943A0581E00E942B
:100680008C08892BD9F782E00E948C08892BB1F75E
:1006900081E00E948C08892BD9F382E00E948C08AB
:1006A000892BB1F308958091040190910501019780
:1006B00011F40E94AD01809104019091050107970A
:1006C00041F40E94180381E090E09093050180932B
:1006D000040180910401909105018534910581F414
:1006E00040E050E060E070E082E691E00E943A0570
:1006F00040E050E062E070E082E691E00C943A0560
:100700000895CF93DF93EC0160E08E810E9456083C
:1007100081E090E00E944C0761E08E810E945608C3
:1007200081E090E00E944C0760E08E810E945608B4
:1007300084E690E0DF91CF910C944C07EF92FF920A
:100740000F931F93CF93DF938C01C0E0D0E0E62E90
:10075000F12CB7010C2E02C0759567950A94E2F74B
:100760006170F801EC0FFD1F87810E9456082196E9
:10077000C430D10571F7C801DF91CF911F910F915E
:10078000FF90EF900C948103EF92FF920F931F93D1
:10079000CF93DF938C01C0E0D0E0E62EF12CB701BF
:1007A0000C2E02C0759567950A94E2F76170F80106
:1007B000EC0FFD1F87810E9456082196C830D10595
:1007C00071F7C801DF91CF911F910F91FF90EF90CA
:1007D0000C9481031F93CF93DF93EC01162F642FAA
:1007E0008C810E9456088D818F3F19F060E00E9435
:1007F00056088F85612F84FF06C0CE01DF91CF910F
:100800001F910C94C40370E084E0759567958A95F8
:10081000E1F7CE010E949E03612FCE01DF91CF91BF
:100820001F910C949E0340E00C94EA0361E00E9447
:10083000130480ED97E00C944C0762E00E941304CF
:1008400080ED97E00C944C07FC016089262F246012
:10085000208B6C600C9413040F931F93CF93DF9342
:10086000EC01423018F08F8588608F874B8B1C8A93
:1008700080E48D8B6E8B70E0605C7F4F6F8B2223EA
:1008800029F0413019F48F8584608F8761E08C8175
:100890000E941D088D818F3F19F061E00E941D08A4
:1008A00061E08E810E941D0800E010E08F8584FFCA
:1008B00003C088E090E002C084E090E008171907C8
:1008C00054F4FE01E00FF11F61E087810E941D08D2
:1008D0000F5F1F4FEBCF80E593EC0E944C0760E069
:1008E0008C810E94560860E08E810E9456088D819E
:1008F0008F3F19F060E00E9456086F8564FD1DC0AF
:1009000063E0CE010E949E0384E991E10E944C07BE
:1009100063E0CE010E949E0384E991E10E944C07AE
:1009200063E0CE010E949E0386E990E00E944C079E
:1009300062E0CE010E949E0316C06062CE010E945A
:10094000130484E991E10E944C076F856062CE0137
:100950000E94130486E990E00E944C076F85606254
:10096000CE010E9413046F856062CE010E941304C1
:1009700084E0888BCE010E942404CE010E941604DC
:1009800082E0898B66E0CE01DF91CF911F910F91BC
:100990000C9413048F92AF92CF92EF920F93CF9358
:1009A000DF93CDB7DEB7FC017A855B853C8513828A
:1009B000128281E191E09183808364834583268361
:1009C0000783E086C186A28683867487558736872B
:1009D00080E1878720E041E060E1CF01DF91CF91A6
:1009E0000F91EF90CF90AF908F900C942C0441E03A
:1009F0000E94EA0381E090E00895CF92DF92EF92A7
:100A0000FF920F931F93CF93DF93C5E2D1E08DE167
:100A1000E82E81E0F82E05E111E0C880229661E021
:100A20008C2D0E941D08F701D080F2E0EF0EF11C22
:100A300061E08D2D0E941D0861E08C2D0E945608FA
:100A400061E070E08D2D0E949407F80180810E5FB7
:100A50001F4F60E070E00E949407F1E0CD32DF07A5
:100A6000E1F6DF91CF911F910F91FF90EF90DF9012
:100A7000CF9008950F931F93CF93DF938B01EA01DB
:100A8000000F111F4F3F510509F03CF441308FEF2B
:100A900058078CF057FF03C010C0CFEFD0E0F8012B
:100AA000EB5DFE4F61E080810E945608F801E35E35
:100AB000FE4FBE0110C0C1E0DFEFF801EB5DFE4F5D
:100AC00060E080810E945608662777276C1B7D0BAB
:100AD000F801E35EFE4F8081DF91CF911F910F916E
:100AE0000C9494071F93CF93DF93162FD82FDD0F0D
:100AF000DD0FDD0FC0E0612F8C2F8D0F0E941D08D0
:100B0000CF5FC830C1F7DF91CF911F9108958F92C9
:100B1000AF92CF92EF920F9387E18F9386E18F93FD
:100B200085E18F9324E1822E33E1A32E42E1C42E8E
:100B300051E1E52E00E12CE14BE16AE184E691E030
:100B40000E94CA0482E691E00E94FD0481E691E0E1
:100B50000E94600680E691E00E9460060F900F9070
:100B60000F908FE591E00F91EF90CF90AF908F9025
:100B70000C9460061F920F920FB60F9211240BB6C1
:100B80000F922F933F934F935F936F937F938F9326
:100B90009F93AF93BF93EF93FF9380917E018F5FFD
:100BA00080937E0120917E0180917F0190E0FC0185
:100BB000EE0FFF1FE80FF91FE058FE4F8181281349
:100BC0000DC080917F0190E0FC01EE0FFF1FE80F48
:100BD000F91FE058FE4F828184BD5FC020917E01E5
:100BE00080917F0190E0FC01EE0FFF1FE80FF91FDD
:100BF000E058FE4F8181821708F04FC080917F013D
:100C000090E0FC01EE0FFF1FE80FF91FE058FE4FC8
:100C1000808186FF0FC080917F0190E0FC01EE0F84
:100C2000FF1FE80FF91FE058FE4F808160E08F73CF
:100C30000E94560880917F018F5F80937F01109200
:100C40007E0114BC80917F01882309F180917F018E
:100C50008930E8F480917F0190E0FC01EE0FFF1FE6
:100C6000E80FF91FE058FE4F808186FF16C0809183
:100C70007F0190E0FC01EE0FFF1FE80FF91FE05825
:100C8000FE4F808161E08F730E94560806C08091FC
:100C90007F01893010F010927F01FF91EF91BF9199
:100CA000AF919F918F917F916F915F914F913F9104
:100CB0002F910F900BBE0F900FBE0F901F901895A5
:100CC00020917D01283030F42F5F20937D01FC01BD
:100CD00020830895FC01108208951F93CF93DF9322
:100CE000EC01162F80917C01811127C0E5E8F1E02D
:100CF00095E083E3DF0111979C938083339621E095
:100D0000ED39F207B9F78FE18093810110927F01ED
:100D100010927E0197B717BE25B52B7F25BD25B54F
:100D2000226025BD25B52E7F25BD14BC80E486BF7D
:100D3000906497BF81E080937C018881882399F03B
:100D400061E0812F0E941D08288130E0F901EE0F3B
:100D5000FF1FE20FF31FE058FE4F1F739081907C3E
:100D6000912B906490838881DF91CF911F9108959A
:100D70001F920F920FB60F9211242F933F938F93D0
:100D80009F93AF93BF9380919C0190919D01A091FF
:100D90009E01B0919F0130919B0123E0230F2D37DD
:100DA00020F40196A11DB11D05C026E8230F02966F
:100DB000A11DB11D20939B0180939C0190939D01E7
:100DC000A0939E01B0939F018091A0019091A101F9
:100DD000A091A201B091A3010196A11DB11D809324
:100DE000A0019093A101A093A201B093A301BF9190
:100DF000AF919F918F913F912F910F900FBE0F90C8
:100E00001F9018953FB7F8948091A0019091A1018F
:100E1000A091A201B091A30122B706B600FE05C0C1
:100E20002F3F19F00196A11DB11D3FBF6627782FF6
:100E3000892F9A2F620F711D811D911D42E0660F4F
:100E4000771F881F991F4A95D1F70895CF92DF9297
:100E5000EF92FF92CF93DF936B017C010E94020718
:100E6000EB01C114D104E104F10479F00E940207FE
:100E70006C1B7D0B683E7340A0F381E0C81AD1085B
:100E8000E108F108C851DC4FECCFDF91CF91FF9022
:100E9000EF90DF90CF900895019739F0880F991F58
:100EA000880F991F02970197F1F70895789483B7F7
:100EB000846083BF87B7816087BF1EBC8EB58260A8
:100EC0008EBD8EB581608EBD8FB581608FBD85B5BD
:100ED000846085BD85B5806485BDEAE8F0E08081E9
:100EE00082608083808181608083EBE8F0E0808194
:100EF00081608083329A319A309A379A1AB808956D
:100F00008B3208F08B5287702091060190E4299F64
:100F100090011124822B87B9369A3699FECF84B17D
:100F200025B190E0922B08951F93CF93DF93182F54
:100F3000EB0161E00E941D08209711F460E004C0FD
:100F4000CF3FD10539F461E0812FDF91CF911F911F
:100F50000C945608E12FF0E0EC54FF4F449150E020
:100F6000FA013197EA30F105C0F5EA5BFF4F0C94C6
:100F7000E40D83B7806183BFC1BF34C08FB5806883
:100F80008FBDDBBDCABD2EC08FB580628FBDD9BD00
:100F9000C8BD28C085B5806285BDC3BD23C0809112
:100FA0008B00806880938B00D0938700C09386006D
:100FB00019C080918B00806280938B00D093850054
:100FC000C09384000FC080918B00886080938B0059
:100FD000D0938300C093820005C0C038D1050CF0C7
:100FE000B2CFACCFDF91CF911F91089590E0FC017B
:100FF0003197EA30F10500F5E05BFF4F0C94E40D0A
:101000008FB58F7702C08FB58F7D8FBD089585B561
:101010008F7D85BD089583B78F7D83BF08958091AF
:101020008B008F7707C080918B008F7D03C08091EC
:101030008B00877F80938B000895CF93DF9390E0A0
:10104000FC01E751FF4F2491FC01E25EFE4F8491C9
:10105000882349F190E0880F991FFC01ED58FE4F5D
:10106000A591B4918D599E4FFC01C591D4919FB724
:10107000611108C0F8948C91209582238C9388810B
:1010800082230AC0623051F4F8948C91322F30954B
:1010900083238C938881822B888304C0F8948C915D
:1010A000822B8C939FBFDF91CF9108950F931F9355
:1010B000CF93DF931F92CDB7DEB7282F30E0F90131
:1010C000EC54FF4F8491F901E751FF4F1491F9015E
:1010D000E25EFE4F04910023C9F0882321F069836A
:1010E0000E94F6076981E02FF0E0EE0FFF1FED5937
:1010F000FE4FA591B4919FB7F8948C91611103C0F4
:101100001095812301C0812B8C939FBF0F90DF919D
:10111000CF911F910F910895CF93DF93282F30E047
:10112000F901EC54FF4F8491F901E751FF4FD4913D
:10113000F901E25EFE4FC491CC2391F081110E942F
:10114000F607EC2FF0E0EE0FFF1FED5AFE4FA591D2
:10115000B4912C912D2381E090E021F480E002C035
:1011600080E090E0DF91CF910895FC0124853585E2
:10117000F901E05CFF4F80819181329620813181BD
:10118000805C9F4F821B930B60E470E00E948F0D88
:101190000895FC0184859585FC01E05CFF4F40814A
:1011A00051813296208131814217530741F00190DD
:1011B000F081E02DE80FF91F808190E008958FEF16
:1011C0009FEF0895FC0184859585FC01E05CFF4F4D
:1011D000408151813296208131814217530779F045
:1011E000A081B181A80FB91F8C91208131812F5F1F
:1011F0003F4F2F7333273183208390E008958FEF83
:101200009FEF0895FC0181A1882329F0A489B58965
:101210008C9186FFFBCF11A20895CF93DF93FC0141
:1012200026853785D901A05CBF4F8D919C91119780
:1012300001968F739927E901CE5BDF4F4881598171
:1012400084179507D9F30D90BC91A02DA20FB31F61
:101250006C93A685B785A05CBF4F11969C938E9327
:10126000A689B7892C9181E090E0078C02C0880F95
:10127000991F0A94E2F7282B2C9381E081A304881C
:10128000F589E02D80818064808381E090E0DF91AA
:10129000CF91089508951F920F920FB60F921124C7
:1012A0000BB60F922F933F934F938F939F93EF9390
:1012B000FF935A991BC04CB18091F4029091F502B2
:1012C00001968F7399272091F6023091F7028217C9
:1012D000930769F0E091F402F091F502EC54FD4FB0
:1012E00040839093F5028093F40201C08CB1FF918A
:1012F000EF919F918F914F913F912F910F900BBE46
:101300000F900FBE0F901F90189508951F920F9287
:101310000FB60F9211240BB60F922F933F934F935A
:101320008F939F93EF93FF9380919B0082FD1CC04E
:1013300040919C0080916C0290916D0201968F7398
:10134000992720916E0230916F028217930771F0F6
:10135000E0916C02F0916D02E45DFD4F408390934B
:101360006D0280936C0202C080919C00FF91EF910E
:101370009F918F914F913F912F910F900BBE0F90A6
:101380000FBE0F901F90189586EC91E00E94B50853
:10139000892B11F00E944A0984EA91E00E94B50865
:1013A000892B11F00C94850908951F920F920FB6A6
:1013B0000F9211240BB60F922F933F938F939F930D
:1013C000EF93FF932091B0023091B1028091B2026D
:1013D0009091B3022817390711F4559813C0E09182
:1013E000B202F091B302E059FD4F20818091B20228
:1013F0009091B30201968F7399279093B3028093D3
:10140000B2022CB9FF91EF919F918F913F912F9153
:101410000F900BBE0F900FBE0F901F9018951F924C
:101420000F920FB60F9211240BB60F922F933F938A
:101430008F939F93EF93FF9320912802309129027D
:1014400080912A0290912B022817390731F480915C
:101450009A008F7D80939A0014C0E0912A02F09147
:101460002B02E851FE4F208180912A0290912B029D
:1014700001968F73992790932B0280932A022093D1
:101480009C00FF91EF919F918F913F912F910F9031
:101490000BBE0F900FBE0F901F9018951092C901B0
:1014A0001092C80188EE93E0A0E0B0E08093CA01FA
:1014B0009093CB01A093CC01B093CD0121E331E017
:1014C0003093C7012093C60144EB52E05093D301FF
:1014D0004093D20140E752E05093D5014093D401AC
:1014E00040E950E05093D7014093D60149E250E0E3
:1014F0005093D9014093D8014BE250E05093DB0167
:101500004093DA014AE250E05093DD014093DC0160
:1015100045E950E05093DF014093DE014CE250E09A
:101520005093E1014093E001E4E0E093E20173E0D5
:101530007093E30167E06093E40155E05093E501A7
:1015400041E04093E6011092A7011092A60180931A
:10155000A8019093A901A093AA01B093AB01309385
:10156000A5012093A4018CE292E09093B1018093B5
:10157000B00188EE91E09093B3018093B20188E9C5
:1015800090E09093B5018093B40189E990E0909345
:10159000B7018093B6018BE990E09093B9018093F5
:1015A000B8018AE990E09093BB018093BA018DE97C
:1015B00090E09093BD018093BC018CE990E0909302
:1015C000BF018093BE01E093C0017093C10160939D
:1015D000C2015093C3014093C401089508950E942D
:1015E00056070E94EE0A0E947501C4ECD9E00E94E1
:1015F00053032097E1F30E94C409F9CFCF92DF9201
:10160000EF92FF920F931F93CF93DF936C017A01B8
:10161000EB01E60EF71E00E010E0CE15DF0561F0ED
:101620006991D601ED91FC910190F081E02DC60108
:101630000995080F191FF1CFC801DF91CF911F91B4
:101640000F91FF90EF90DF90CF9008956115710595
:1016500081F0DB010D900020E9F7AD014150510907
:10166000461B570BDC01ED91FC910280F381E02DCC
:10167000099480E090E008950C94260BDC01ED9134
:10168000FC910190F081E02D09948F929F92AF928E
:10169000BF92CF92DF92EF92FF920F931F93CF935F
:1016A000DF93CDB7DEB7A1970FB6F894DEBF0FBEBC
:1016B000CDBF7C01C42EE52FCB01D22E19A221E093
:1016C0002D1510F02AE0D22E8E010F5D1F4F8D2CAC
:1016D000912CA12CB12C6C2D7E2FA50194010E9480
:1016E000A30D8C2DD29E80191124015011098A302E
:1016F00014F4805D01C0895CF801808321153105F7
:101700004105510521F0C22EE32FCA01E4CFB801F3
:10171000C7010E94260BA1960FB6F894DEBF0FBE3C
:10172000CDBFDF91CF911F910F91FF90EF90DF9090
:10173000CF90BF90AF909F908F900895CF92DF92FF
:10174000EF92FF920F931F93CF93DF93EC016A0107
:101750007B012115310579F4E881F9810190F0814F
:10176000E02D642FDF91CF911F910F91FF90EF90AB
:10177000DF90CF9009942A303105E9F477FF1AC041
:101780006DE20E943E0B8C0144275527BA014C198B
:101790005D096E097F092AE0CE010E94450B800F8A
:1017A000911FDF91CF911F910F91FF90EF90DF90EC
:1017B000CF9008952AE0B701A601CE01DF91CF9125
:1017C0001F910F91FF90EF90DF90CF900C94450BFD
:1017D0009A01AB01662757FD6095762F0C949E0BFE
:1017E0002115310541F4DC01ED91FC910190F0816E
:1017F000E02D642F09940C94450B009729F0BC014F
:1018000080E090E00C946E0E08950CD0EBC0E3D015
:1018100040F0DAD030F021F45F3F19F0CCC0511124
:1018200015C1CFC0F0D098F39923C9F35523B1F374
:10183000951B550BBB27AA2762177307840738F03F
:101840009F5F5F4F220F331F441FAA1FA9F333D09E
:101850000E2E3AF0E0E830D091505040E695001C52
:10186000CAF729D0FE2F27D0660F771F881FBB1F0E
:10187000261737074807AB07B0E809F0BB0B802DE8
:10188000BF01FF2793585F4F2AF09E3F510568F034
:1018900092C0DCC05F3FECF3983EDCF38695779511
:1018A0006795B795F7959F5FC9F7880F911D969536
:1018B000879597F90895E1E0660F771F881FBB1F92
:1018C000621773078407BA0720F0621B730B840B3F
:1018D000BA0BEE1F88F7E095089504D06894B11113
:1018E000B5C0089598D088F09F5790F0B92F9927E8
:1018F000B751A0F0D1F0660F771F881F991F1AF01B
:10190000BA95C9F712C0B13081F09FD0B1E0089507
:101910009CC0672F782F8827B85F39F0B93FCCF388
:10192000869577956795B395D9F73EF49095809510
:10193000709561957F4F8F4F9F4F0895E89409C030
:1019400097FB3EF490958095709561957F4F8F4FF2
:101950009F4F9923A9F0F92F96E9BB279395F69508
:10196000879577956795B795F111F8CFFAF4BB0F86
:1019700011F460FF1BC06F5F7F4F8F4F9F4F16C0EA
:10198000882311F096E911C0772321F09EE8872F74
:10199000762F05C0662371F096E8862F70E060E030
:1019A0002AF09A95660F771F881FDAF7880F9695A9
:1019B000879597F9089597F99F6780E870E060E050
:1019C00008959FEF80EC089500240A9416161706D8
:1019D00018060906089500240A9412161306140620
:1019E00005060895092E0394000C11F4882352F083
:1019F000BB0F40F4BF2B11F460FF04C06F5F7F4F3B
:101A00008F4F9F4F089557FD9058440F551F59F021
:101A10005F3F71F04795880F97FB991F61F09F3FDB
:101A200079F087950895121613061406551FF2CF04
:101A30004695F1DF08C0161617061806991FF1CF54
:101A400086957105610508940895E894BB2766277B
:101A50007727CB0197F908950BD0C4CFB5DF28F0D5
:101A6000BADF18F0952309F0A6CFABCF1124EECF43
:101A7000CADFA0F3959FD1F3950F50E0551F629FE9
:101A8000F001729FBB27F00DB11D639FAA27F00DD7
:101A9000B11DAA1F649F6627B00DA11D661F829FFE
:101AA0002227B00DA11D621F739FB00DA11D621FE3
:101AB000839FA00D611D221F749F3327A00D611D00
:101AC000231F849F600D211D822F762F6A2F1124E2
:101AD0009F5750408AF0E1F088234AF0EE0FFF1F35
:101AE000BB1F661F771F881F91505040A9F79E3F6C
:101AF000510570F060CFAACF5F3FECF3983EDCF366
:101B0000869577956795B795F795E7959F5FC1F7A8
:101B1000FE2B880F911D9695879597F9089597FB51
:101B2000072E16F4009407D077FD09D00E94F90D16
:101B300007FC05D03EF4909581959F4F08957095D0
:101B400061957F4F0895A1E21A2EAA1BBB1BFD01D0
:101B50000DC0AA1FBB1FEE1FFF1FA217B307E4078C
:101B6000F50720F0A21BB30BE40BF50B661F771FE4
:101B7000881F991F1A9469F76095709580959095C4
:101B80009B01AC01BD01CF010895052E97FB1EF40A
:101B900000940E94DC0D57FD07D00E94A30D07FCA6
:101BA00003D04EF40C94DC0D509540953095219562
:101BB0003F4F4F4F5F4F0895909580957095619579
:101BC0007F4F8F4F9F4F0895EE0FFF1F0590F491A9
:101BD000E02D09940E940D0EA59F900DB49F900DCD
:101BE000A49F800D911D112408950790F691E02D7A
:101BF0000994AA1BBB1B51E107C0AA1FBB1FA61754
:101C0000B70710F0A61BB70B881F991F5A95A9F7A5
:101C100080959095BC01CD010895A29FB001B39F1E
:101C2000C001A39F700D811D1124911DB29F700DE5
:101C3000811D1124911D08958F929F92AF92BF92A2
:101C4000CF92DF92EF92FF92CF93DF93EC01688106
:101C500079818A819B81611571058105910521F446
:101C600064E279ED8BE597E02DE133EF41E050E060
:101C70000E94C50D49015A019B01AC01A7EAB1E4DC
:101C80000E94EA0D6B017C01ACEEB4EFA50194015A
:101C90000E947A0EC60ED71EE81EF91EF7FE06C079
:101CA00081E0C81AD108E10880E8F80AC882D98220
:101CB000EA82FB82C701B6019F77DF91CF91FF9047
:101CC000EF90DF90CF90BF90AF909F908F9008954E
:101CD0000C941C0E80E091E00C941C0E60930001AB
:101CE0007093010180930201909303010895B7FF5F
:101CF0000C94EA0D0E94EA0D821B930B0895F89450
:021D0000FFCF13
:101D0200010000000100015455524E200000000065
:101D120000F704FE0A05000400010000001D001E79
:101D220000240025001800190026002700000000EA
:0E1D3200000D09FE0AB508E208C90802090002
:00000001FF
