:100000000C94C4000C94FB060C94F3000C94F300C5
:100010000C94F3000C94F3000C94F3000C94F30094
:100020000C94F3000C9413060C9488050C94F300C4
:100030000C94F3000C94F3000C94F3000C94F30074
:100040000C945B070C94F3000C94FA090C94840A4A
:100050000C94F3000C94F3000C94F3000C94F30054
:100060000C94F3000C94F3000C94F3000C94F30044
:100070000C94F3000C94F3000C94350A0C94BE0A13
:100080000C94F3000C94F3000C94F30068089C08A3
:100090006D08730879089C089C087E0888089208F7
:1000A000BA08CB08AF08B208B608CB08CB08BE0820
:1000B000C208C608000000000000000000000000A8
:1000C0000000000000000000000000000000000030
:1000D0000103040500000505090A000000000000F6
:1000E0000000000000000000000102040810204091
:1000F0008001020408102040800102040810204002
:1001000080010204081020408001020408102040F1
:100110008001020408102040800102040810040439
:10012000040404040404030303030303030301019D
:10013000010101010101020202020202020205059F
:100140000505050505050606060606060606070753
:100150000707070000390036003300300021002077
:1001600000630000003B00380035003200230062CD
:1001700000650000003A00370034003100220061C1
:10018000006400005505FD0A11241FBECFEFD0E129
:10019000DEBFCDBF11E0A0E0B1E0EAEBFDE100E0A1
:1001A0000BBF02C007900D92A234B107D9F723E02C
:1001B000A2E4B1E001C01D92AD32B207E1F711E057
:1001C000C8E8D1E000E006C022970109FE010BBF9C
:1001D0000E94650EC438D10780E00807A9F70E9485
:1001E0009E0B0C94DB0E0C94000060E070E080E04D
:1001F00090E00E94400560E070E081E090E00E94A5
:10020000400520E042E060E187E691E00E94FA03C9
:1002100063E284E691E00E94B7066FE183E691E035
:100220000E94B70662E282E691E00E94B70687E686
:1002300091E00E94E40387E691E00E94EB0380E0F6
:100240000E942F080C94590C2F923F924F925F926C
:100250006F927F928F929F92AF92BF92CF92DF92D6
:10026000EF92FF920F931F93CF93DF9384EC282E8E
:1002700089E0382E9AE6492E55245A9426E9E22E32
:10028000F12C32E8C32ED12CC0910601D091070188
:10029000C130D10509F036C1309209012092080120
:1002A000809106019091070182E390E090935301C1
:1002B000809352018EE190E0909355018093540118
:1002C00083E00E943B0990935D0180935C0184E090
:1002D0000E943B0990935B0180935A0140915C011D
:1002E00050915D0120914C0130914D01452B41F021
:1002F000892B09F4F4C010924F0110924E0107C0EF
:10030000892B09F4F3C0D0934F01C0934E01609044
:100310004E0170904F016216730691F030934B01BD
:1003200020934A018091480190914901909357018F
:100330008093560181E090E09093490180934801B9
:100340008091420190914301689EE001699ED00D29
:10035000789ED00D112480915E0190915F01C80FAD
:10036000D91FD0935F01C0935E018091520190919B
:100370005301689E8001699E100D789E100D112416
:1003800010935901009358018091540190915501A7
:10039000BC01882777FD8095982F0E94FC0C4B01AB
:1003A0005C0180914A0190914B01681A790AB3016E
:1003B000882777FD8095982F0E94FC0C9B01AC014B
:1003C000C501B4010E94880D4B015C01809156016A
:1003D000909157012091480130914901820F931F5C
:1003E000BC01882777FD8095982F0E94FC0C9B010B
:1003F000AC01C501B4010E94610C0E94C90C70934C
:10040000510160935001060F171F0C0F1D1F073974
:1004100011052CF0F0924701E09246010DC00A361A
:100420009FEF19072CF0109347010093460104C079
:1004300050924701409246018091440190914501BC
:1004400086399105C1F487E691E00E94E40360914A
:100450000801709109014AE050E087E691E00E94AE
:10046000530C6CE071E087E691E00E94EB0B109278
:1004700045011092440180914401909145010196FB
:1004800090934501809344018091480190914901E6
:100490000196909349018093480140914601509103
:1004A00047014E575F4F60E070E085E691E00E94A3
:1004B00008058091460190914701A601481B590B00
:1004C00061E070E085E691E00E94080580914E01B0
:1004D00090914F0190934D0180934C01D5CE8FEFB9
:1004E0009FEF90934F0180934E0111CF91E0909335
:1004F0006101121613061CF483E090E0F2CF8DEF39
:100500009FEFEFCFDF91CF911F910F91FF90EF9071
:10051000DF90CF90BF90AF909F908F907F906F9023
:100520005F904F903F902F900895CF92DF92EF927F
:10053000FF920F931F9340E050E060E070E085E68B
:1005400091E00E94080540E050E061E070E085E63F
:1005500091E00E9408050E94A5076B01EE24D7FCDC
:10056000E094FE2C0E94A5076C197D098E099F0955
:10057000009108011091090120E030E06017710737
:100580008207930788F448E35FEF60E070E085E658
:1005900091E00E94080540E050E061E070E085E6EF
:1005A00091E00E940805DECF40E050E060E070E09E
:1005B00085E691E00E94080548EC50E061E070E0BB
:1005C00085E691E00E94080583E00E943B09892BA3
:1005D00041F484E00E943B0921E0892B19F420E0DA
:1005E00001C021E0222351F083E00E943B09892BC6
:1005F000D9F784E00E943B09892BB1F76AEF70E0DC
:1006000080E090E00E94D50783E00E943B09892B9F
:1006100059F08091600181110DC08EE090E09093BF
:1006200005018093040106C084E00E943B09892BE8
:1006300059F3EFCF85E490E0909307018093060192
:100640001F910F91FF90EF90DF90CF9008958091D0
:10065000060190910701019711F40E9424018091F5
:10066000060190910701079711F40E94950280916D
:100670000601909107018534910581F440E050E036
:1006800060E070E085E691E00E94080540E050E0FF
:1006900061E070E085E691E00C9408050895CF9341
:1006A000DF93EC0160E08E810E94050981E090E01B
:1006B0000E94FB0761E08E810E94050981E090E0C5
:1006C0000E94FB0760E08E810E94050984E690E0AD
:1006D000DF91CF910C94FB07EF92FF920F931F9342
:1006E000CF93DF938C01C0E0D0E0E62EF12CB70170
:1006F0000C2E02C0759567950A94E2F76170F801B7
:10070000EC0FFD1F87810E9405092196C430D10599
:1007100071F7C801DF91CF911F910F91FF90EF907A
:100720000C944F03EF92FF920F931F93CF93DF939D
:100730008C01C0E0D0E0E62EF12CB7010C2E02C0F7
:10074000759567950A94E2F76170F801EC0FFD1F4B
:1007500087810E9405092196C830D10571F7C8012B
:10076000DF91CF911F910F91FF90EF900C944F0369
:100770001F93CF93DF93EC01162F642F8C810E947F
:1007800005098D818F3F19F060E00E9405098F8572
:10079000612F84FF06C0CE01DF91CF911F910C9491
:1007A000920370E084E0759567958A95E1F7CE0134
:1007B0000E946C03612FCE01DF91CF911F910C94A9
:1007C0006C0340E00C94B80361E00E94E10380ED0B
:1007D00097E00C94FB0762E00E94E10380ED97E054
:1007E0000C94FB07FC016089262F2460208B6C6031
:1007F0000C94E1030F931F93CF93DF93EC014230EE
:1008000018F08F8588608F874B8B1C8A80E48D8BD6
:100810006E8B70E0605C7F4F6F8B222329F041303C
:1008200019F48F8584608F8761E08C810E94CC08E9
:100830008D818F3F19F061E00E94CC0861E08E81CC
:100840000E94CC0800E010E08F8584FF03C088E0A0
:1008500090E002C084E090E00817190754F4FE010C
:10086000E00FF11F61E087810E94CC080F5F1F4FEE
:10087000EBCF80E593EC0E94FB0760E08C810E9447
:10088000050960E08E810E9405098D818F3F19F076
:1008900060E00E9405096F8564FD1DC063E0CE0124
:1008A0000E946C0384E991E10E94FB0763E0CE01A2
:1008B0000E946C0384E991E10E94FB0763E0CE0192
:1008C0000E946C0386E990E00E94FB0762E0CE0183
:1008D0000E946C0316C06062CE010E94E10384E9AD
:1008E00091E10E94FB076F856062CE010E94E103E7
:1008F00086E990E00E94FB076F856062CE010E944E
:10090000E1036F856062CE010E94E10384E0888B81
:10091000CE010E94F203CE010E94E40382E0898BA3
:1009200066E0CE01DF91CF911F910F910C94E1030E
:100930008F92AF92CF92EF920F93CF93DF93CDB779
:10094000DEB7FC017A855B853C851382128286E1E5
:1009500091E0918380836483458326830783E086C7
:10096000C186A286838674875587368780E187870C
:1009700020E041E060E1CF01DF91CF910F91EF9056
:10098000CF90AF908F900C94FA0341E00E94B8038F
:1009900081E090E00895CF92DF92EF92FF920F9363
:1009A0001F93CF93DF93CAE2D1E082E2E82E81E089
:1009B000F82E0AE111E0C880229661E08C2D0E9499
:1009C000CC08F701D080F2E0EF0EF11C61E08D2D34
:1009D0000E94CC0861E08C2D0E94050961E070E066
:1009E0008D2D0E944308F80180810E5F1F4F60E04B
:1009F00070E00E944308F1E0C233DF07E1F6DF91C7
:100A0000CF911F910F91FF90EF90DF90CF900895BD
:100A10000F931F93CF93DF938B01EA01000F111FF8
:100A20004F3F510509F03CF441308FEF58078CF0EF
:100A300057FF03C010C0CFEFD0E0F801E65DFE4FD6
:100A400061E080810E940509F801EE5DFE4FBE0164
:100A500010C0C1E0DFEFF801E65DFE4F60E080818D
:100A60000E940509662777276C1B7D0BF801EE5D58
:100A7000FE4F8081DF91CF911F910F910C9443081D
:100A80001F93CF93DF93162FD82FDD0FDD0FDD0FD0
:100A9000C0E0612F8C2F8D0F0E94CC08CF5FC83033
:100AA000C1F7DF91CF911F9108958F92AF92CF92AE
:100AB000EF920F9387E18F9386E18F9385E18F9378
:100AC00024E1822E33E1A32E42E1C42E51E1E52E32
:100AD00000E12CE14BE16AE187E691E00E94980495
:100AE00085E691E00E94CB0484E691E00E948D06A9
:100AF00083E691E00E948D060F900F900F9082E6A2
:100B000091E00F91EF90CF90AF908F900C948D0665
:100B10001F920F920FB60F9211240BB60F922F93C4
:100B20003F938F939F93AF93BF93EF93FF938091E6
:100B30000A01823020F480910A018F5F01C080E0B9
:100B400080930A0180910A0181115EC0A091850104
:100B500089E08A9FD0011124AA57BE4F9C91992306
:100B6000D9F0A09185018A9FD0011124AA57BE4FC8
:100B700011962C91E09185018E9FF0011124EA5786
:100B8000FE4F0280F381E02D808190E030E02095DF
:100B9000309582239323808380918501873020F4D0
:100BA000809185018F5F01C080E080938501A091D5
:100BB000850189E08A9FD0011124AA57BE4F9C91DC
:100BC0009923B1F0A09185018A9FD0011124AA57E1
:100BD000BE4F11969C91E09185018E9FF0011124EA
:100BE000EA57FE4F0280F381E02D8081892B8083BC
:100BF000E091850189E0E89FF0011124EA57FE4F5A
:100C0000868183BD80E884BDFF91EF91BF91AF9154
:100C10009F918F913F912F910F900BBE0F900FBE20
:100C20000F901F9018951F920F920FB60F921124DC
:100C30000BB60F922F933F938F939F93AF93BF93D6
:100C4000EF93FF93A091850139E03A9FD0011124E1
:100C5000AA57BE4F8C918823F1F180910A0181300F
:100C600069F4A09185013A9FD0011124AA57BE4F83
:100C700017968D919C911897892B91F080910A017C
:100C8000823049F5A091850139E03A9FD0011124C5
:100C9000AA57BE4F17968D919C911897892BD9F022
:100CA000A09185013A9FD0011124AA57BE4F1196F9
:100CB0002C91E09185013E9FF0011124EA57FE4FEF
:100CC0000280F381E02D808190E030E02095309526
:100CD000822393238083FF91EF91BF91AF919F91E6
:100CE0008F913F912F910F900BBE0F900FBE0F90E1
:100CF0001F901895F89414BC8FEF83BD15BC85B573
:100D0000836085BD85B5886485BD87B7806887BFEA
:100D100087B7806487BF78940895FC011082A09102
:100D2000CE01A83018F5A08389E08A9FD001112454
:100D3000AA57BE4F1C9211961C92A0818A9FD00187
:100D40001124AA57BE4F13961C921E921297169604
:100D50001C92E0818E9FF0011124EA57FE4F10860D
:100D600017828091CE018F5F8093CE010895FF920C
:100D70000F931F93CF93DF93EC01862F262F30E044
:100D8000F901E751FF4FF490F901E25EFE4FE49163
:100D9000EE2341F1F0E0EE0FFF1FED59FE4F0591FC
:100DA000149161E00E94CC08A88199E09A9FD0013B
:100DB0001124AA57BE4F81E08C931196FC92E881D2
:100DC0009E9FF0011124EA57FE4F13830283158280
:100DD00014829091CF01911107C08093CF010E949E
:100DE0007A0602C080E001C081E0DF91CF911F91BF
:100DF0000F91FF9008951F920F920FB60F9211243A
:100E00000BB60F920F931F932F933F934F935F93C4
:100E10006F937F938F939F93AF93BF93CF93EF93F2
:100E2000FF930E94A50700917F01109180012091FE
:100E3000810130918201065F1F4F2F4F3F4F0617F0
:100E400017072807390708F5C0E080E00E943B0932
:100E5000892BB1F0CA30B9F480918301909184015B
:100E6000019690938401809383010E94A50760936B
:100E70007F0170938001809381019093820105C06E
:100E8000CA3099F7E9CFCF5FE0CFFF91EF91CF91D3
:100E9000BF91AF919F918F917F916F915F914F9192
:100EA0003F912F911F910F910F900BBE0F900FBE8E
:100EB0000F901F9018951F920F920FB60F9211244A
:100EC0002F933F938F939F93AF93BF938091D101C3
:100ED0009091D201A091D301B091D4013091D00171
:100EE00023E0230F2D3720F40196A11DB11D05C06D
:100EF00026E8230F0296A11DB11D2093D0018093F7
:100F0000D1019093D201A093D301B093D4018091E9
:100F1000D5019091D601A091D701B091D801019649
:100F2000A11DB11D8093D5019093D601A093D70147
:100F3000B093D801BF91AF919F918F913F912F9125
:100F40000F900FBE0F901F9018952FB7F8946091D7
:100F5000D1017091D2018091D3019091D4012FBF22
:100F600008953FB7F8948091D5019091D601A09152
:100F7000D701B091D80122B706B600FE05C02F3FB9
:100F800019F00196A11DB11D3FBF6627782F892F4B
:100F90009A2F620F711D811D911D42E0660F771F10
:100FA000881F991F4A95D1F70895CF92DF92EF924B
:100FB000FF92CF93DF936B017C010E94B107EB019D
:100FC000C114D104E104F10479F00E94B1076C1B53
:100FD0007D0B683E7340A0F381E0C81AD108E10898
:100FE000F108C851DC4FECCFDF91CF91FF90EF902B
:100FF000DF90CF900895019739F0880F991F880FDF
:10100000991F02970197F1F70895789483B7846048
:1010100083BF87B7816087BF1EBC8EB582608EBDDF
:101020008EB581608EBD8FB581608FBD85B58460C2
:1010300085BD85B5806485BDEAE8F0E08081826089
:101040008083808181608083EBE8F0E08081816033
:101050008083329A319A309A379A1AB808958B322F
:1010600008F08B52877020910B0190E4299F90012A
:101070001124822B87B9369A3699FECF84B125B1D7
:1010800090E0922B08951F93CF93DF93182FEB01DD
:1010900061E00E94CC08209711F460E004C0CF3FCB
:1010A000D10539F461E0812FDF91CF911F910C942C
:1010B0000509E12FF0E0EC54FF4F449150E0FA01B4
:1010C0003197EA30F105C0F5EA5BFF4F0C94540EFE
:1010D00083B7806183BFC1BF34C08FB580688FBDC7
:1010E000DBBDCABD2EC08FB580628FBDD9BDC8BD66
:1010F00028C085B5806285BDC3BD23C080918B00AB
:10110000806880938B00D0938700C093860019C0BD
:1011100080918B00806280938B00D0938500C09378
:1011200084000FC080918B00886080938B00D093E7
:101130008300C093820005C0C038D1050CF0B2CF47
:10114000ACCFDF91CF911F91089590E0FC013197D2
:10115000EA30F10500F5E05BFF4F0C94540E8FB5BB
:101160008F7702C08FB58F7D8FBD089585B58F7D38
:1011700085BD089583B78F7D83BF089580918B00CF
:101180008F7707C080918B008F7D03C080918B008B
:10119000877F80938B000895CF93DF9390E0FC01CD
:1011A000E751FF4F2491FC01E25EFE4F84918823BA
:1011B00049F190E0880F991FFC01ED58FE4FA59171
:1011C000B4918D599E4FFC01C591D4919FB7611187
:1011D00008C0F8948C91209582238C938881822377
:1011E0000AC0623051F4F8948C91322F30958323E9
:1011F0008C938881822B888304C0F8948C91822BF5
:101200008C939FBFDF91CF9108950F931F93CF933E
:10121000DF931F92CDB7DEB7282F30E0F901EC54F1
:10122000FF4F8491F901E751FF4F1491F901E25EFC
:10123000FE4F04910023C9F0882321F069830E94A6
:10124000A5086981E02FF0E0EE0FFF1FED59FE4F7A
:10125000A591B4919FB7F8948C91611103C010953A
:10126000812301C0812B8C939FBF0F90DF91CF9181
:101270001F910F910895CF93DF93282F30E0F9014C
:10128000EC54FF4F8491F901E751FF4FD491F901DC
:10129000E25EFE4FC491CC2391F081110E94A5081B
:1012A000EC2FF0E0EE0FFF1FED5AFE4FA591B49129
:1012B0002C912D2381E090E021F480E002C080E0B9
:1012C00090E0DF91CF910895FC0124853585F901E7
:1012D000E05CFF4F80819181329620813181805C7A
:1012E0009F4F821B930B60E470E00E94FF0D0895F6
:1012F000FC0184859585FC01E05CFF4F40815181B4
:101300003296208131814217530741F00190F081DC
:10131000E02DE80FF91F808190E008958FEF9FEF97
:101320000895FC0184859585FC01E05CFF4F4081B8
:1013300051813296208131814217530779F0A08183
:10134000B181A80FB91F8C91208131812F5F3F4F50
:101350002F7333273183208390E008958FEF9FEF21
:101360000895FC0181A1882329F0A489B5898C9175
:1013700086FFFBCF11A20895CF93DF93FC01268552
:101380003785D901A05CBF4F8D919C911197019633
:101390008F739927E901CE5BDF4F4881598184170C
:1013A0009507D9F30D90BC91A02DA20FB31F6C939C
:1013B000A685B785A05CBF4F11969C938E93A68996
:1013C000B7892C9181E090E0078C02C0880F991FAB
:1013D0000A94E2F7282B2C9381E081A30488F589F5
:1013E000E02D80818064808381E090E0DF91CF9167
:1013F000089508951F920F920FB60F9211240BB605
:101400000F922F933F934F938F939F93EF93FF935D
:101410005A991BC04CB18091290390912A030196DF
:101420008F73992720912B0330912C0382179307F8
:1014300069F0E0912903F0912A03E751FD4F4083C1
:1014400090932A038093290301C08CB1FF91EF91FF
:101450009F918F914F913F912F910F900BBE0F90C5
:101460000FBE0F901F90189508951F920F920FB600
:101470000F9211240BB60F922F933F934F938F939C
:101480009F93EF93FF9380919B0082FD1CC040913E
:101490009C008091A1029091A20201968F739927DE
:1014A0002091A3023091A4028217930771F0E0917A
:1014B000A102F091A202EF59FD4F40839093A20246
:1014C0008093A10202C080919C00FF91EF919F91B7
:1014D0008F914F913F912F910F900BBE0F900FBEA8
:1014E0000F901F9018958BEF91E00E946409892B53
:1014F00011F00E94F90989ED91E00E946409892B9D
:1015000011F00C94340A08951F920F920FB60F92A7
:1015100011240BB60F922F933F938F939F93EF93CA
:10152000FF932091E5023091E6028091E7029091CD
:10153000E8022817390711F4559813C0E091E70223
:10154000F091E802EB55FD4F20818091E7029091E8
:10155000E80201968F7399279093E8028093E7023F
:101560002CB9FF91EF919F918F913F912F910F9007
:101570000BBE0F900FBE0F901F9018951F920F92E9
:101580000FB60F9211240BB60F922F933F938F93A8
:101590009F93EF93FF9320915D0230915E028091C3
:1015A0005F02909160022817390731F480919A0008
:1015B0008F7D80939A0014C0E0915F02F0916002E9
:1015C000E35EFD4F208180915F0290916002019661
:1015D0008F7399279093600280935F0220939C0001
:1015E000FF91EF919F918F913F912F910F900BBEA3
:1015F0000F900FBE0F901F9018951092FE01109241
:10160000FD0188EE93E0A0E0B0E08093FF019093AD
:101610000002A0930102B093020226E331E030936E
:10162000FC012093FB0149EE52E0509308024093E5
:10163000070245EA52E050930A024093090240E94A
:1016400050E050930C0240930B0249E250E050935B
:101650000E0240930D024BE250E050931002409373
:101660000F024AE250E0509312024093110245E902
:1016700050E050931402409313024CE250E0509318
:10168000160240931502E4E0E093170273E07093B2
:10169000180267E06093190255E050931A0241E086
:1016A00040931B021092DC011092DB018093DD015C
:1016B0009093DE01A093DF01B093E0013093DA0153
:1016C0002093D90181E692E09093E6018093E501B1
:1016D0008DE192E09093E8018093E70188E990E042
:1016E0009093EA018093E90189E990E09093EC01FD
:1016F0008093EB018BE990E09093EE018093ED01F4
:101700008AE990E09093F0018093EF018DE990E0F9
:101710009093F2018093F1018CE990E09093F401B1
:101720008093F301E093F5017093F6016093F70164
:101730005093F8014093F901089508950E94050817
:101740000E949D0B0E94F500C3E7DAE00E94270388
:101750002097E1F30E94730AF9CFCF92DF92EF92C4
:10176000FF920F931F93CF93DF936C017A01EB01EC
:10177000E60EF71E00E010E0CE15DF0561F069917E
:10178000D601ED91FC910190F081E02DC601099503
:10179000080F191FF1CFC801DF91CF911F910F9151
:1017A000FF90EF90DF90CF9008956115710581F063
:1017B000DB010D900020E9F7AD0141505109461BB6
:1017C000570BDC01ED91FC910280F381E02D09942F
:1017D00080E090E008950C94D50B8F929F92AF9289
:1017E000BF92CF92DF92EF92FF920F931F93CF930E
:1017F000DF93CDB7DEB7A1970FB6F894DEBF0FBE6B
:10180000CDBF7C01C42EE52FCB01D22E19A221E041
:101810002D1510F02AE0D22E8E010F5D1F4F8D2C5A
:10182000912CA12CB12C6C2D7E2FA50194010E942E
:10183000130E8C2DD29E80191124015011098A306B
:1018400014F4805D01C0895CF801808321153105A5
:101850004105510521F0C22EE32FCA01E4CFB801A2
:10186000C7010E94D50BA1960FB6F894DEBF0FBE3C
:10187000CDBFDF91CF911F910F91FF90EF90DF903F
:10188000CF90BF90AF909F908F9008952115310514
:1018900041F4DC01ED91FC910190F081E02D642F89
:1018A00009940C94ED0B9A01AB0160E070E00C948C
:1018B000460C009729F0BC0180E090E00C94CA0E21
:1018C00008950CD0EBC0E3D040F0DAD030F021F432
:1018D0005F3F19F0CCC0511115C1CFC0F0D098F3C3
:1018E0009923C9F35523B1F3951B550BBB27AA27A1
:1018F00062177307840738F09F5F5F4F220F331F13
:10190000441FAA1FA9F333D00E2E3AF0E0E830D0DE
:1019100091505040E695001CCAF729D0FE2F27D0E1
:10192000660F771F881FBB1F261737074807AB07AF
:10193000B0E809F0BB0B802DBF01FF2793585F4F24
:101940002AF09E3F510568F092C0DCC05F3FECF387
:10195000983EDCF3869577956795B795F7959F5FE9
:10196000C9F7880F911D9695879597F90895E1E03D
:10197000660F771F881FBB1F621773078407BA079C
:1019800020F0621B730B840BBA0BEE1F88F7E095F7
:10199000089504D06894B111B5C0089598D088F026
:1019A0009F5790F0B92F9927B751A0F0D1F0660F4B
:1019B000771F881F991F1AF0BA95C9F712C0B13066
:1019C00081F09FD0B1E008959CC0672F782F8827C1
:1019D000B85F39F0B93FCCF3869577956795B395A5
:1019E000D9F73EF490958095709561957F4F8F4F14
:1019F0009F4F0895E89409C097FB3EF49095809519
:101A0000709561957F4F8F4F9F4F9923A9F0F92FC4
:101A100096E9BB279395F695879577956795B79542
:101A2000F111F8CFFAF4BB0F11F460FF1BC06F5F28
:101A30007F4F8F4F9F4F16C0882311F096E911C03A
:101A4000772321F09EE8872F762F05C0662371F05B
:101A500096E8862F70E060E02AF09A95660F771F6F
:101A6000881FDAF7880F9695879597F9089597F963
:101A70009F6780E870E060E008959FEF80EC089534
:101A800000240A941616170618060906089500245D
:101A90000A9412161306140605060895092E0394D7
:101AA000000C11F4882352F0BB0F40F4BF2B11F44B
:101AB00060FF04C06F5F7F4F8F4F9F4F089557FDAA
:101AC0009058440F551F59F05F3F71F04795880FAC
:101AD00097FB991F61F09F3F79F087950895121643
:101AE00013061406551FF2CF4695F1DF08C01616EF
:101AF00017061806991FF1CF8695710561050894A0
:101B00000895E894BB2766277727CB0197F90895B6
:101B10000BD0C4CFB5DF28F0BADF18F0952309F059
:101B2000A6CFABCF1124EECFCADFA0F3959FD1F3A0
:101B3000950F50E0551F629FF001729FBB27F00D7B
:101B4000B11D639FAA27F00DB11DAA1F649F6627D0
:101B5000B00DA11D661F829F2227B00DA11D621F1F
:101B6000739FB00DA11D621F839FA00D611D221FD9
:101B7000749F3327A00D611D231F849F600D211DBD
:101B8000822F762F6A2F11249F5750408AF0E1F060
:101B900088234AF0EE0FFF1FBB1F661F771F881FA9
:101BA00091505040A9F79E3F510570F060CFAACFE9
:101BB0005F3FECF3983EDCF3869577956795B79594
:101BC000F795E7959F5FC1F7FE2B880F911D9695BE
:101BD000879597F90895AA1BBB1B51E107C0AA1F5F
:101BE000BB1FA617B70710F0A61BB70B881F991FBE
:101BF0005A95A9F780959095BC01CD01089597FB62
:101C0000072E16F4009407D077FD09D00E94EB0D43
:101C100007FC05D03EF4909581959F4F08957095EF
:101C200061957F4F0895A1E21A2EAA1BBB1BFD01EF
:101C30000DC0AA1FBB1FEE1FFF1FA217B307E407AB
:101C4000F50720F0A21BB30BE40BF50B661F771F03
:101C5000881F991F1A9469F76095709580959095E3
:101C60009B01AC01BD01CF010895052E97FB1EF429
:101C700000940E944C0E57FD07D00E94130E07FCE3
:101C800003D04EF40C944C0E509540953095219510
:101C90003F4F4F4F5F4F0895909580957095619598
:101CA0007F4F8F4F9F4F0895EE0FFF1F0590F491C8
:101CB000E02D09940E94690EA59F900DB49F900D90
:101CC000A49F800D911D112408950790F691E02D99
:101CD0000994A29FB001B39FC001A39F700D811D05
:101CE0001124911DB29F700D811D1124911D089525
:101CF0008F929F92AF92BF92CF92DF92EF92FF921C
:101D0000CF93DF93EC01688179818A819B81611592
:101D100071058105910521F464E279ED8BE597E089
:101D20002DE133EF41E050E00E94350E49015A01A8
:101D30009B01AC01A7EAB1E40E945A0E6B017C0141
:101D4000ACEEB4EFA50194010E94D60EC60ED71ECC
:101D5000E81EF91EF7FE06C081E0C81AD108E108A6
:101D600080E8F80AC882D982EA82FB82C701B601FC
:101D70009F77DF91CF91FF90EF90DF90CF90BF9052
:101D8000AF909F908F9008950C94780E80E091E032
:101D90000C94780E6093000170930101809302010E
:101DA000909303010895B7FF0C945A0E0E945A0EA7
:0A1DB000821B930B0895F894FFCFF7
:101DBA000100000009000700B60302015455524E03
:101DCA00200000000000C504AD0B0500040001005E
:101DDA0000001D001E00240025001800190026001E
:101DEA00270000000000BC09AD0B640991097809BD
:021DFA00B1092D
:00000001FF
