:100000000C94C5000C94F4000C94F4000C94F400CF
:100010000C94F4000C94F4000C94F4000C94F40090
:100020000C94F4000C94F4000C947B070C94F400F2
:100030000C94F4000C94F4000C94F4000C94F40070
:100040000C94B10A0C94F4000C94500D0C94DA0D3D
:100050000C94F4000C94F4000C94F4000C94F40050
:100060000C94F4000C94F4000C94F4000C94F40040
:100070000C94F4000C94F4000C948B0D0C94140E5E
:100080000C94F4000C94F4000C94F400BE0BF20BEE
:10009000C30BC90BCF0BF20BF20BD40BDE0BE80B2F
:1000A000100C210C050C080C0C0C210C210C140C50
:1000B000180C1C0C000000000000000000000000F4
:1000C0000000000000000000000000000000000030
:1000D0000103040500000505090A000000000000F6
:1000E0000000000000000000000102040810204091
:1000F0008001020408102040800102040810204002
:1001000080010204081020408001020408102040F1
:100110008001020408102040800102040810040439
:10012000040404040404030303030303030301019D
:10013000010101010101020202020202020205059F
:100140000505050505050606060606060606070753
:100150000707070000390036003300300021002077
:1001600000630000003B00380035003200230062CD
:1001700000650000003A00370034003100220061C1
:100180000064000025054807530E11241FBECFEF61
:10019000D0E1DEBFCDBF11E0A0E0B1E0ECE8F5E2D8
:1001A00000E00BBF02C007900D92AC38B107D9F741
:1001B00023E0ACE8B1E001C01D92A735B207E1F73A
:1001C00011E0CAE8D1E000E006C022970109FE0173
:1001D0000BBF0E943A12C438D10780E00807A9F784
:1001E0000E94F40E0C94C4120C94000060E070E0C5
:1001F00080E090E00E94330760E070E081E090E0F2
:100200000E94330720E042E060E183EC91E00E942D
:10021000E50563E270E080EC91E00E942E086FE15A
:1002200070E08FEB91E00E942E0862E270E08EEBAE
:1002300091E00E942E0883EC91E00E94CF0583ECB0
:1002400091E00E94D60580E00E94850B0C9402107C
:100250002F923F924F925F926F927F928F929F92D6
:10026000AF92BF92CF92DF92EF92FF920F931F93C4
:10027000CF93DF930E94FB0A47E0C42ED12CE12CE0
:10028000F12C52E0852E912CA12CB12C80910401EF
:1002900090910501A0910601B09107010197A10578
:1002A000B10509F0DBC180E00E94910C892B41F47B
:1002B000C0920401D0920501E0920601F09207017C
:1002C00086E090E00E942B0797FD03969595879511
:1002D0009595879590939D0180939C0187E090E090
:1002E0000E942B0797FD0396959587959595879581
:1002F00090939F0180939E0181E00E94910C9093C6
:10030000A7018093A60182E00E94910C9093A50121
:100310008093A4012091A6013091A7014091BD01D5
:10032000232B41F0892B09F476C110929901109288
:10033000980109C0892B09F471C181E090E0909384
:100340009901809398014423F9F00E94FB0A0091DF
:10035000B9011091BA012091BB013091BC01601B21
:10036000710B820B930B613B74408105910550F03A
:1003700083EC91E00E94CF0569E071E083EC91E0AD
:100380000E94410F1092BD010091980110919901B6
:1003900080919601909197010817190791F0909319
:1003A0009501809394018091920190919301909393
:1003B000A1018093A00181E090E09093930180934C
:1003C000920180918C0190918D01089FE001099F1D
:1003D000D00D189FD00D11248091A8019091A901F2
:1003E000C80FD91FD093A901C093A80180919C0187
:1003F00090919D01089F1001099F300C189F300CAF
:1004000011243092A3012092A20180919E0190912B
:100410009F01BC01882777FD8095982F0E94E510E9
:100420002B013C018091940190919501081B190BBF
:10043000B801882777FD8095982F0E94E5109B01D1
:10044000AC01C301B2010E9471112B013C018091EA
:10045000A0019091A1012091920130919301820F0E
:10046000931FBC01882777FD8095982F0E94E51087
:100470009B01AC01C301B2010E944A100E94B2105C
:1004800070939B0160939A01260E371E2C0E3D1E21
:1004900097E9291631041CF086E990E00CC09AE631
:1004A00029169FEF39062CF030929101209290018D
:1004B00006C08AE69FEF909391018093900180910E
:1004C0008E0190918F018639910509F048C083EC27
:1004D00091E00E94CF056EE071E083EC91E00E9414
:1004E000410F60919C0170919D014AE050E083ECC6
:1004F00091E00E94ED0F60E171E083EC91E00E94D9
:10050000410F60919E0170919F014AE050E083ECA1
:1005100091E00E94ED0F64E771E083EC91E00E94AE
:10052000410F6091A6017091A7014AE050E083EC71
:1005300091E00E94ED0F64E771E083EC91E00E948E
:10054000410F6091A4017091A5014AE050E083EC55
:1005500091E00E94ED0F10928F0110928E01809118
:100560008E0190918F01019690938F0180938E015F
:1005700080919201909193010196909393018093C1
:10058000920140919001509191014A565F4F60E075
:1005900070E081EC91E00E94F306809190019091CF
:1005A000910146E950E0481B590B61E070E081EC95
:1005B00091E00E94F30680919801909199019093A7
:1005C00097018093960183E00E94910C892B31F46E
:1005D00084E00E94910C892B09F458CE0E94FB0AFA
:1005E0000091AE011091AF012091B0013091B101A5
:1005F000601B710B820B930B693775408105910568
:1006000008F444CE8092040190920501A092060164
:10061000B09207013BCE8FEF9FEF91CE41110AC000
:100620000E94FB0A6093B9017093BA018093BB01E9
:100630009093BC0181E08093BD01809196019091DF
:100640009701181619061CF483E090E002C08DEFA4
:100650009FEF909399018093980196CEDF91CF916F
:100660001F910F91FF90EF90DF90CF90BF90AF90D0
:100670009F908F907F906F905F904F903F902F90C2
:1006800008952F923F924F925F926F927F928F9236
:100690009F92AF92BF92CF92DF92EF92FF920F9311
:1006A0001F93CF93DF9300D01F92CDB7DEB70E9488
:1006B000FB0A6B017C0133243394212C198288249A
:1006C0008394912C0E94FB0A6C197D098E099F0965
:1006D000663971058105910508F0FDC083E00E942F
:1006E000910C892B11F081E0898384E00E94910CA8
:1006F000892B11F02224239485E00E94910C892BF0
:1007000009F008C187E00E94910C892B09F002C111
:10071000312C86E090E00E942B0797FD039695957B
:1007200087959595879590939D0180939C0187E08F
:1007300090E00E942B0797FD0396959587959595D8
:10074000879590939F0180939E0181E00E94910C78
:100750009093A7018093A60182E00E94910C909350
:10076000A5018093A4014091A6015091A701209179
:10077000960130919701452B41F0892B09F4CDC0AA
:10078000109299011092980107C0892B09F4CCC0EE
:10079000909299018092980140919801509199010D
:1007A0004217530781F03093950120939401809173
:1007B0009201909193019093A1018093A001909256
:1007C00093018092920180919C0190919D01489F9C
:1007D0005001499FB00C589FB00C1124B092A30156
:1007E000A092A201009192011091930180919E012B
:1007F00090919F01BC01882777FD8095982F4A83AF
:100800005B830E94E5102B013C0180919401909143
:1008100095014A815B81481B590BBA01882777FDF6
:100820008095982F0E94E5109B01AC01C301B20195
:100830000E9471112B013C018091A0019091A101B6
:10084000800F911FBC01882777FD8095982F0E940B
:10085000E5109B01AC01C301B2010E944A100E9445
:10086000B21070939B0160939A01A60EB71EB092CE
:100870009101A092900160918E0170918F016F5F44
:100880007F4F70938F0160938E010F5F1F4F109306
:10089000930100939201A5014A565F4F60E070E01A
:1008A00081EC91E00E94F30680919001909191017A
:1008B00046E950E0481B590B61E070E081EC91E0A3
:1008C0000E94F3068091980190919901909397016D
:1008D00080939601F7CE04E011E0222D4981632D2B
:1008E0008AEA91E00E94EB090F900F900F90DF9140
:1008F000CF911F910F91FF90EF90DF90CF90BF901D
:10090000AF909F908F907F906F905F904F903F90AF
:100910002F90089533243394FCCEEFEFFFEFF09344
:100920009901E093980138CF121613061CF4E3E006
:10093000F0E0F5CF8DEF9FEF9093990180939801B0
:100940002BCF83EC91E00E94CF0562E171E083EC54
:1009500091E00E94410F0E94B3088AEA91E00E9450
:10096000960A811113C08EE090E0A0E0B0E0809381
:10097000AA019093AB01A093AC01B093AD0183ECBD
:1009800091E00E94CF056AE171E006C083EC91E03E
:100990000E94CF056CE271E083EC91E00E94410F70
:1009A00085E490E0A0E0B0E080930401909305011D
:1009B000A0930601B09307010895809104019091DE
:1009C0000501A0910601B09107010197A105B105AC
:1009D00011F40E9428018091040190910501A091D9
:1009E0000601B09107010297A105B10511F40E941B
:1009F00041038091040190910501A0910601B091FD
:100A000007010797A105B10511F40E94A104809187
:100A1000040190910501A0910601B0910701853470
:100A20009105A105B10581F440E050E060E070E07F
:100A300081EC91E00E94F30640E050E061E070E05C
:100A400081EC91E00C94F306089589E090E0A0E039
:100A5000B0E08093AA019093AB01A093AC01B09356
:100A6000AD011092B5011092B6011092B70110922B
:100A7000B8010895CF93DF93EC0160E08E810E946E
:100A80005B0C81E090E00E94510B61E08E810E943E
:100A90005B0C81E090E00E94510B60E08E810E942F
:100AA0005B0C84E690E0DF91CF910C94510BEF92B8
:100AB000FF920F931F93CF93DF938C01C0E0D0E0A0
:100AC000E62EF12CB7010C2E02C0759567950A949D
:100AD000E2F76170F801EC0FFD1F87810E945B0C4B
:100AE0002196C430D10571F7C801DF91CF911F91D4
:100AF0000F91FF90EF900C943A05EF92FF920F93B5
:100B00001F93CF93DF938C01C0E0D0E0E62EF12C51
:100B1000B7010C2E02C0759567950A94E2F76170D3
:100B2000F801EC0FFD1F87810E945B0C2196C830F5
:100B3000D10571F7C801DF91CF911F910F91FF90FF
:100B4000EF900C943A051F93CF93DF93EC01162F8F
:100B5000642F8C810E945B0C8D818F3F19F060E0C7
:100B60000E945B0C8F85612F84FF06C0CE01DF9150
:100B7000CF911F910C947D0570E084E07595679589
:100B80008A95E1F7CE010E945705612FCE01DF91D2
:100B9000CF911F910C94570540E00C94A30561E0A0
:100BA0000E94CC0580ED97E00C94510B62E00E940E
:100BB000CC0580ED97E00C94510BFC016089262F49
:100BC0002460208B6C600C94CC050F931F93CF9303
:100BD000DF93EC01423018F08F8588608F874B8B54
:100BE0001C8A80E48D8B6E8B70E0605C7F4F6F8B16
:100BF000222329F0413019F48F8584608F8761E0CA
:100C00008C810E94220C8D818F3F19F061E00E943F
:100C1000220C61E08E810E94220C00E010E08F85A2
:100C200084FF03C088E090E002C084E090E00817F1
:100C3000190754F4FE01E00FF11F61E087810E9463
:100C4000220C0F5F1F4FEBCF80E593EC0E94510BFE
:100C500060E08C810E945B0C60E08E810E945B0CE6
:100C60008D818F3F19F060E00E945B0C6F8564FD01
:100C70001DC063E0CE010E94570584E991E10E9406
:100C8000510B63E0CE010E94570584E991E10E9477
:100C9000510B63E0CE010E94570586E990E00E9467
:100CA000510B62E0CE010E94570516C06062CE0172
:100CB0000E94CC0584E991E10E94510B6F8560622E
:100CC000CE010E94CC0586E990E00E94510B6F8511
:100CD0006062CE010E94CC056F856062CE010E94E9
:100CE000CC0584E0888BCE010E94DD05CE010E94F8
:100CF000CF0582E0898B66E0CE01DF91CF911F9115
:100D00000F910C94CC058F92AF92CF92EF920F93EC
:100D1000CF93DF93CDB7DEB7FC017A855B853C8549
:100D20001382128281E491E09183808364834583FE
:100D300026830783E086C186A286838674875587CB
:100D4000368780E1878720E041E060E1CF01DF91D5
:100D5000CF910F91EF90CF90AF908F900C94E505CD
:100D600041E00E94A30581E090E00895CF92DF92D8
:100D7000EF92FF920F931F93CF93DF93C5E5D1E0DE
:100D80008DE4E82E81E0F82E05E411E0C88022967B
:100D900061E08C2D0E94220CF701D080F2E0EF0E72
:100DA000F11C61E08D2D0E94220C61E08C2D0E94CF
:100DB0005B0C61E070E08D2D0E94990BF801808141
:100DC0000E5F1F4F60E070E00E94990BF1E0CD359F
:100DD000DF07E1F6DF91CF911F910F91FF90EF9028
:100DE000DF90CF9008950F931F93CF93DF938B01E4
:100DF000EA01000F111F4F3F510509F03CF441304B
:100E00008FEF58078CF057FF03C010C0CFEFD0E032
:100E1000F801EB5AFE4F61E080810E945B0CF80103
:100E2000E35BFE4FBE0110C0C1E0DFEFF801EB5AFB
:100E3000FE4F60E080810E945B0C662777276C1B69
:100E40007D0BF801E35BFE4F8081DF91CF911F9115
:100E50000F910C94990BFC01EE0FFF1FE35AFE4F0C
:100E600080810C94850B1F93CF93DF93162FD82F7F
:100E7000DD0FDD0FDD0FC0E0612F8C2F8D0F0E9485
:100E8000220CCF5FC830C1F7DF91CF911F91089539
:100E90008F92AF92CF92EF920F9387E18F9386E17B
:100EA0008F9385E18F9324E1822E33E1A32E42E1DB
:100EB000C42E51E1E52E00E12CE14BE16AE183EC27
:100EC00091E00E94830681EC91E00E94B60680ECDE
:100ED00091E00E9421088FEB91E00E9421080F9081
:100EE0000F900F908EEB91E00F91EF90CF90AF901D
:100EF0008F900C9421081F920F920FB60F9211241D
:100F00000BB60F922F933F934F935F936F937F9303
:100F10008F939F93AF93BF93EF93FF938091DD01E6
:100F20008F5F8093DD012091DD018091DE0190E0F3
:100F3000FC01EE0FFF1FE80FF91FE152FE4F818108
:100F400028130DC08091DE0190E0FC01EE0FFF1F21
:100F5000E80FF91FE152FE4F828184BD5FC02091EE
:100F6000DD018091DE0190E0FC01EE0FFF1FE80F34
:100F7000F91FE152FE4F8181821708F04FC0809126
:100F8000DE0190E0FC01EE0FFF1FE80FF91FE152B8
:100F9000FE4F808186FF0FC08091DE0190E0FC0152
:100FA000EE0FFF1FE80FF91FE152FE4F808160E056
:100FB0008F730E945B0C8091DE018F5F8093DE0156
:100FC0001092DD0114BC8091DE01882309F180912B
:100FD000DE018930E8F48091DE0190E0FC01EE0F43
:100FE000FF1FE80FF91FE152FE4F808186FF16C0F8
:100FF0008091DE0190E0FC01EE0FFF1FE80FF91F6A
:10100000E152FE4F808161E08F730E945B0C06C04D
:101010008091DE01893010F01092DE01FF91EF9196
:10102000BF91AF919F918F917F916F915F914F9100
:101030003F912F910F900BBE0F900FBE0F901F90FE
:1010400018952091DC01283030F42F5F2093DC01CB
:10105000FC0120830895FC01108208951F93CF9313
:10106000DF93EC01162F8091DB01811127C0E4EEA4
:10107000F1E095E083E3DF0111979C938083339641
:1010800021E0EC3FF207B9F78FE18093E001109285
:10109000DE011092DD0197B717BE25B52B7F25BD68
:1010A00025B5226025BD25B52E7F25BD14BC80E465
:1010B00086BF906497BF81E08093DB01888188239D
:1010C00099F061E0812F0E94220C288130E0F90123
:1010D000EE0FFF1FE20FF31FE152FE4F1F739081CF
:1010E000907C912B906490838881DF91CF911F91A8
:1010F00008950097B9F1029759F448E750E060E08D
:1011000070E081EC91E00E94F30648E85FEF0AC0CE
:1011100048E85FEF60E070E081EC91E00E94F30648
:1011200048E750E061E070E081EC91E00E94F30656
:1011300064E670E080E090E00E942B0B81E00E946A
:10114000910C892BD9F782E00E94910C892BB1F781
:1011500081E00E94910C892BD9F382E00E94910CCE
:10116000892BB1F3089548ED5FEF60E070E081EC0A
:1011700091E00E94F30648E85FEF61E070E081ECE7
:1011800091E00E94F3066CE474E080E090E00E943D
:101190002B0B48E750E060E070E081EC91E00E94AA
:1011A000F30648E85FEF61E070E081EC91E00E94B7
:1011B000F30681E00E94910C892BD9F782E00E940E
:1011C000910C892BB1F781E00E94910C892BD9F306
:1011D00082E00E94910C892BB1F30895CF93DF93A5
:1011E000EC0123E030E040E050E060E070E0CB0153
:1011F0000E942E106115710531F48885882389F3CA
:10120000DF91CF9108956130710531F4898588238C
:1012100041F381E090E008C06230710511F78A85E2
:101220008823F9F282E090E0DF91CF910C94790865
:10123000FC018085681306C08185481303C081E0E6
:101240009285291380E00895CF93DF93EC014B85BD
:101250005C856D857E854130510561057105E9F13B
:10126000423051056105710519F481E090E02CC010
:10127000433051056105710521F481E090E00E9441
:1012800079088B859C85AD85BE850497A105B10540
:1012900021F481E090E00E9479084B855C856D85A2
:1012A0007E85453051056105710539F481E090E096
:1012B0000E94790820E041E016C0463051056105E2
:1012C000710531F482E090E00E94790821E0F3CFCB
:1012D000473051056105710541F482E090E00E94BC
:1012E000790821E040E061E00CC04830510561051B
:1012F000710561F482E090E00E94790821E041E00C
:1013000060E0CE01DF91CF910C941809DF91CF916D
:101310000895CF93DF93EC014B855C856D857E85C9
:10132000413051056105710531F481E090E00E9482
:10133000790820E00AC0423051056105710541F489
:1013400082E090E00E94790821E041E061E03AC04B
:10135000433051056105710519F482E090E02DC01C
:10136000443051056105710539F482E090E00E9436
:10137000790821E040E025C045305105610571053F
:1013800039F482E090E00E94790821E040E0DECF6D
:10139000463051056105710519F481E090E0D2CF26
:1013A000473051056105710509F4BFCF483051053B
:1013B0006105710561F481E090E00E94790821E007
:1013C00041E060E0CE01DF91CF910C94180980E0FC
:1013D000DF91CF910895CF92DF92FF920F931F93E9
:1013E000CF93DF9300D01F92CDB7DEB76C0183ECB3
:1013F00091E02B834A8369830E94CF056981F601BE
:1014000060874A8141872B81228743855485658582
:1014100076854F5F5F4F6F4F7F4F43875487658758
:10142000768740815181628173814E30510561051B
:10143000710521F4C6010E94EE0812C04A30510520
:101440006105710521F4C6010E94240908C04930D4
:1014500051056105710521F4C6010E948909F82E24
:10146000F1101EC083EC91E00E94CF056DE671E0A3
:1014700083EC91E00E94410FF60143855485658518
:1014800076852AE030E083EC91E00E94F50F85E458
:1014900090E0A0E0B0E0F80180839183A283B38361
:1014A000F60183859485A585B68586349105A105C9
:1014B000B10598F085E490E0A0E0B0E0F801808309
:1014C0009183A283B38383EC91E00E94CF0566E70A
:1014D00071E083EC91E00E94410FF80180819181DD
:1014E000A281B38185349105A105B10541F081E068
:1014F00090E0A0E0B0E080839183A283B3830E9458
:10150000FB0AF601648375838683978366E771E03F
:1015100083EC91E00F900F900F90DF91CF911F918E
:101520000F91FF90DF90CF900C94410F49E050E075
:1015300060E070E0FC0140835183628373834385E4
:1015400054856585768581E04730510561057105D3
:1015500039F0483051056105710511F080E00895BA
:1015600008951F920F920FB60F9211242F933F935D
:101570008F939F93AF93BF938091FB019091FC0158
:10158000A091FD01B091FE013091FA0123E0230FFB
:101590002D3720F40196A11DB11D05C026E8230FAB
:1015A0000296A11DB11D2093FA018093FB01909337
:1015B000FC01A093FD01B093FE018091FF01909189
:1015C0000002A0910102B09102020196A11DB11D7D
:1015D0008093FF0190930002A0930102B093020256
:1015E000BF91AF919F918F913F912F910F900FBE1F
:1015F0000F901F9018952FB7F8946091FB01709190
:10160000FC018091FD019091FE012FBF08953FB72D
:10161000F8948091FF0190910002A0910102B09195
:10162000020222B706B600FE05C02F3F19F0019650
:10163000A11DB11D3FBF6627782F892F9A2F620FFA
:10164000711D811D911D42E0660F771F881F991F34
:101650004A95D1F70895CF92DF92EF92FF92CF9300
:10166000DF936B017C010E94070BEB01C114D104D5
:10167000E104F10479F00E94070B6C1B7D0B683EBE
:101680007340A0F381E0C81AD108E108F108C851FD
:10169000DC4FECCFDF91CF91FF90EF90DF90CF90B8
:1016A0000895019739F0880F991F880F991F0297A5
:1016B0000197F1F70895789483B7846083BF87B763
:1016C000816087BF1EBC8EB582608EBD8EB5816085
:1016D0008EBD8FB581608FBD85B5846085BD85B5B4
:1016E000806485BDEAE8F0E080818260808380814B
:1016F00081608083EBE8F0E0808181608083329AB2
:10170000319A309A379A1AB808958B3208F08B5272
:1017100087702091080190E4299F90011124822B69
:1017200087B9369A3699FECF84B125B190E0922BD5
:1017300008951F93CF93DF93182FEB0161E00E9470
:10174000220C209711F460E004C0CF3FD10539F49A
:1017500061E0812FDF91CF911F910C945B0CE12F01
:10176000F0E0EC54FF4F449150E0FA013197EA3039
:10177000F105C0F5EA5BFF4F0C94291283B7806135
:1017800083BFC1BF34C08FB580688FBDDBBDCABD0C
:101790002EC08FB580628FBDD9BDC8BD28C085B5AC
:1017A000806285BDC3BD23C080918B00806880931B
:1017B0008B00D0938700C093860019C080918B0066
:1017C000806280938B00D0938500C09384000FC00B
:1017D00080918B00886080938B00D0938300C093AE
:1017E000820005C0C038D1050CF0B2CFACCFDF917C
:1017F000CF911F91089590E0FC013197EA30F105F7
:1018000000F5E05BFF4F0C9429128FB58F7702C073
:101810008FB58F7D8FBD089585B58F7D85BD08956A
:1018200083B78F7D83BF089580918B008F7707C02A
:1018300080918B008F7D03C080918B00877F809388
:101840008B000895CF93DF9390E0FC01E751FF4FA9
:101850002491FC01E25EFE4F8491882349F190E0DF
:10186000880F991FFC01ED58FE4FA591B4918D5939
:101870009E4FFC01C591D4919FB7611108C0F894A7
:101880008C91209582238C93888182230AC06230B8
:1018900051F4F8948C91322F309583238C93888166
:1018A000822B888304C0F8948C91822B8C939FBFE9
:1018B000DF91CF9108950F931F93CF93DF931F92E2
:1018C000CDB7DEB7282F30E0F901EC54FF4F8491FB
:1018D000F901E751FF4F1491F901E25EFE4F0491C7
:1018E0000023C9F0882321F069830E94FB0B6981E2
:1018F000E02FF0E0EE0FFF1FED59FE4FA591B491E0
:101900009FB7F8948C91611103C01095812301C099
:10191000812B8C939FBF0F90DF91CF911F910F91DF
:101920000895CF93DF93282F30E0F901EC54FF4F57
:101930008491F901E751FF4FD491F901E25EFE4F26
:10194000C491CC2391F081110E94FB0BEC2FF0E0AD
:10195000EE0FFF1FED5AFE4FA591B4912C912D2350
:1019600081E090E021F480E002C080E090E0DF912F
:10197000CF910895FC0124853585F901E05CFF4F86
:1019800080819181329620813181805C9F4F821BC2
:10199000930B60E470E00E94D4110895FC018485EB
:1019A0009585FC01E05CFF4F40815181329620819A
:1019B00031814217530741F00190F081E02DE80F8B
:1019C000F91F808190E008958FEF9FEF0895FC014B
:1019D00084859585FC01E05CFF4F40815181329602
:1019E000208131814217530779F0A081B181A80F7E
:1019F000B91F8C91208131812F5F3F4F2F73332787
:101A00003183208390E008958FEF9FEF0895FC01CC
:101A100081A1882329F0A489B5898C9186FFFBCF09
:101A200011A20895CF93DF93FC0126853785D90154
:101A3000A05CBF4F8D919C91119701968F73992750
:101A4000E901CE5BDF4F4881598184179507D9F3AF
:101A50000D90BC91A02DA20FB31F6C93A685B785E6
:101A6000A05CBF4F11969C938E93A689B7892C9149
:101A700081E090E0078C02C0880F991F0A94E2F77A
:101A8000282B2C9381E081A30488F589E02D8081A7
:101A90008064808381E090E0DF91CF910895089584
:101AA0001F920F920FB60F9211240BB60F922F9325
:101AB0003F934F938F939F93EF93FF935A991BC03C
:101AC0004CB1809153039091540301968F739927E1
:101AD00020915503309156038217930769F0E091E6
:101AE0005303F0915403ED5EFC4F408390935403F5
:101AF0008093530301C08CB1FF91EF919F918F911F
:101B00004F913F912F910F900BBE0F900FBE0F90F2
:101B10001F90189508951F920F920FB60F921124DF
:101B20000BB60F922F933F934F938F939F93EF9307
:101B3000FF9380919B0082FD1CC040919C0080918E
:101B4000CB029091CC0201968F7399272091CD0200
:101B50003091CE028217930771F0E091CB02F091A1
:101B6000CC02E557FD4F40839093CC028093CB028B
:101B700002C080919C00FF91EF919F918F914F91B6
:101B80003F912F910F900BBE0F900FBE0F901F90A3
:101B9000189585E292E00E94BA0C892B11F00E9400
:101BA0004F0D83E092E00E94BA0C892B11F00C9447
:101BB0008A0D08951F920F920FB60F9211240BB643
:101BC0000F922F933F938F939F93EF93FF932091C7
:101BD0000F03309110038091110390911203281785
:101BE000390711F4559813C0E0911103F0911203D5
:101BF000E153FD4F208180911103909112030196D2
:101C00008F73992790931203809311032CB9FF913E
:101C1000EF919F918F913F912F910F900BBE0F905D
:101C20000FBE0F901F9018951F920F920FB60F9234
:101C300011240BB60F922F933F938F939F93EF93A3
:101C4000FF932091870230918802809189029091C0
:101C50008A022817390731F480919A008F7D80938A
:101C60009A0014C0E0918902F0918A02E95BFD4F6D
:101C700020818091890290918A0201968F73992721
:101C800090938A028093890220939C00FF91EF91A8
:101C90009F918F913F912F910F900BBE0F900FBE90
:101CA0000F901F901895109228021092270288EE2C
:101CB00093E0A0E0B0E08093290290932A02A093E1
:101CC0002B02B0932C022FE731E0309326022093B1
:101CD000250243E153E050933202409331024FEC2E
:101CE00052E0509334024093330240E950E0509365
:101CF00036024093350249E250E050933802409357
:101D000037024BE250E050933A02409339024AE2E4
:101D100050E050933C0240933B0245E950E0509321
:101D20003E0240933D024CE250E05093400240930B
:101D30003F02E4E0E093410273E07093420267E007
:101D40006093430255E05093440241E040934502C2
:101D500010920602109205028093070290930802E7
:101D6000A0930902B0930A02309304022093030265
:101D70008BE892E09093100280930F0287E492E048
:101D8000909312028093110288E990E090931402DC
:101D90008093130289E990E09093160280931502D4
:101DA0008BE990E090931802809317028AE990E003
:101DB00090931A02809319028DE990E090931C028F
:101DC00080931B028CE990E090931E0280931D0289
:101DD000E0931F027093200260932102509322022D
:101DE00040932302089508950E945B0B0E94F30E16
:101DF0000E94F600C9ECDDE00E94DD042097E1F3CB
:101E00000E94C90DF9CFCF92DF92EF92FF920F930C
:101E10001F93CF93DF936C017A01EB01E60EF71E5F
:101E200000E010E0CE15DF0561F06991D601ED917B
:101E3000FC910190F081E02DC6010995080F191F52
:101E4000F1CFC801DF91CF911F910F91FF90EF90DB
:101E5000DF90CF9008956115710581F0DB010D9041
:101E60000020E9F7AD0141505109461B570BDC0139
:101E7000ED91FC910280F381E02D099480E090E0E7
:101E800008950C942B0FDC01ED91FC910190F081F1
:101E9000E02D09948F929F92AF92BF92CF92DF92E2
:101EA000EF92FF920F931F93CF93DF93CDB7DEB7DF
:101EB000A1970FB6F894DEBF0FBECDBF7C01C42E34
:101EC000E52FCB01D22E19A221E02D1510F02AE02A
:101ED000D22E8E010F5D1F4F8D2C912CA12CB12C79
:101EE0006C2D7E2FA50194010E94E8118C2DD29EAD
:101EF00080191124015011098A3014F4805D01C049
:101F0000895CF8018083211531054105510521F0D7
:101F1000C22EE32FCA01E4CFB801C7010E942B0FE4
:101F2000A1960FB6F894DEBF0FBECDBFDF91CF9163
:101F30001F910F91FF90EF90DF90CF90BF90AF90E7
:101F40009F908F900895CF92DF92EF92FF920F9320
:101F50001F93CF93DF93EC016A017B0121153105BB
:101F600079F4E881F9810190F081E02D642FDF910F
:101F7000CF911F910F91FF90EF90DF90CF90099438
:101F80002A303105E9F477FF1AC06DE20E94430F51
:101F90008C0144275527BA014C195D096E097F0948
:101FA0002AE0CE010E944A0F800F911FDF91CF914E
:101FB0001F910F91FF90EF90DF90CF9008952AE04E
:101FC000B701A601CE01DF91CF911F910F91FF9034
:101FD000EF90DF90CF900C944A0F9A01AB016627E7
:101FE00057FD6095762F0C94A30F2115310541F410
:101FF000DC01ED91FC910190F081E02D642F0994BA
:102000000C944A0F009729F0BC0180E090E00C94FA
:10201000B3120895CF93DF9300D000D0CDB7DEB7D1
:102020009B01AC01611571058105910569F069831A
:102030003A834B835C830E94AF1229813A814B81A2
:102040005C810E940A1203C060E070E0CB010F9037
:102050000F900F900F90DF91CF910895CF92DF9264
:10206000EF92FF926B017C0162177307840795075B
:1020700064F4CA01B9016C197D098E099F090E9497
:102080000A106C0D7D1D8E1D9F1DFF90EF90DF903F
:10209000CF9008950CD0EBC0E3D040F0DAD030F010
:1020A00021F45F3F19F0CCC0511115C1CFC0F0D061
:1020B00098F39923C9F35523B1F3951B550BBB270F
:1020C000AA2762177307840738F09F5F5F4F220FBC
:1020D000331F441FAA1FA9F333D00E2E3AF0E0E8B5
:1020E00030D091505040E695001CCAF729D0FE2F01
:1020F00027D0660F771F881FBB1F26173707480793
:10210000AB07B0E809F0BB0B802DBF01FF27935848
:102110005F4F2AF09E3F510568F092C0DCC05F3FE0
:10212000ECF3983EDCF3869577956795B795F79530
:102130009F5FC9F7880F911D9695879597F9089528
:10214000E1E0660F771F881FBB1F621773078407C4
:10215000BA0720F0621B730B840BBA0BEE1F88F7D3
:10216000E095089504D06894B111B5C0089598D051
:1021700088F09F5790F0B92F9927B751A0F0D1F070
:10218000660F771F881F991F1AF0BA95C9F712C0FA
:10219000B13081F09FD0B1E008959CC0672F782FB7
:1021A0008827B85F39F0B93FCCF386957795679566
:1021B000B395D9F73EF490958095709561957F4FD2
:1021C0008F4F9F4F0895E89409C097FB3EF4909578
:1021D0008095709561957F4F8F4F9F4F9923A9F000
:1021E000F92F96E9BB279395F6958795779567958F
:1021F000B795F111F8CFFAF4BB0F11F460FF1BC0D3
:102200006F5F7F4F8F4F9F4F16C0882311F096E965
:1022100011C0772321F09EE8872F762F05C0662313
:1022200071F096E8862F70E060E02AF09A95660FCC
:10223000771F881FDAF7880F9695879597F9089585
:1022400097F99F6780E870E060E008959FEF80EC69
:10225000089500240A94161617061806090608950C
:1022600000240A9412161306140605060895092E72
:102270000394000C11F4882352F0BB0F40F4BF2BE1
:1022800011F460FF04C06F5F7F4F8F4F9F4F089521
:1022900057FD9058440F551F59F05F3F71F0479517
:1022A000880F97FB991F61F09F3F79F087950895FC
:1022B000121613061406551FF2CF4695F1DF08C01B
:1022C000161617061806991FF1CF86957105610538
:1022D00008940895E894BB2766277727CB0197F9E0
:1022E00008950BD0C4CFB5DF28F0BADF18F09523DE
:1022F00009F0A6CFABCF1124EECFCADFA0F3959F94
:10230000D1F3950F50E0551F629FF001729FBB27DC
:10231000F00DB11D639FAA27F00DB11DAA1F649F88
:102320006627B00DA11D661F829F2227B00DA11D3B
:10233000621F739FB00DA11D621F839FA00D611DC1
:10234000221F749F3327A00D611D231F849F600DE2
:10235000211D822F762F6A2F11249F5750408AF01B
:10236000E1F088234AF0EE0FFF1FBB1F661F771FA7
:10237000881F91505040A9F79E3F510570F060CFE3
:10238000AACF5F3FECF3983EDCF38695779567958F
:10239000B795F795E7959F5FC1F7FE2B880F911DC5
:1023A0009695879597F9089597FB072E16F4009454
:1023B00007D077FD09D00E943E1207FC05D03EF4FD
:1023C000909581959F4F0895709561957F4F0895E1
:1023D000A1E21A2EAA1BBB1BFD010DC0AA1FBB1F29
:1023E000EE1FFF1FA217B307E407F50720F0A21B9B
:1023F000B30BE40BF50B661F771F881F991F1A9408
:1024000069F760957095809590959B01AC01BD0131
:10241000CF010895052E97FB1EF400940E9421120F
:1024200057FD07D00E94E81107FC03D04EF40C942E
:10243000211250954095309521953F4F4F4F5F4F5A
:10244000089590958095709561957F4F8F4F9F4F20
:102450000895EE0FFF1F0590F491E02D09940E945E
:102460005212A59F900DB49F900DA49F800D911DB9
:10247000112408950790F691E02D0994AA1BBB1B27
:1024800051E107C0AA1FBB1FA617B70710F0A61B74
:10249000B70B881F991F5A95A9F780959095BC0195
:1024A000CD010895A29FB001B39FC001A39F700DFD
:1024B000811D1124911DB29F700D811D1124911D4C
:1024C00008958F929F92AF92BF92CF92DF92EF9238
:1024D000FF92CF93DF93EC01688179818A819B81A0
:1024E000611571058105910521F464E279ED8BE5B3
:1024F00097E02DE133EF41E050E00E940A124901DC
:102500005A019B01AC01A7EAB1E40E942F126B01B2
:102510007C01ACEEB4EFA50194010E94BF12C60E7F
:10252000D71EE81EF91EF7FE06C081E0C81AD108C2
:10253000E10880E8F80AC882D982EA82FB82C701F2
:10254000B6019F77DF91CF91FF90EF90DF90CF9012
:10255000BF90AF909F908F9008950C94611280E08F
:1025600091E00C94611260930001709301018093DB
:102570000201909303010895B7FF0C942F120E945B
:0C2580002F12821B930B0895F894FFCFDC
:10258C000100000001000000014C4F5354005000AA
:10259C0044005455524E494E47005455524E20411A
:1025AC00524F554E442046414C5345005455524EC3
:1025BC002041524F554E44205452554500000000C6
:1025CC0000B006030F05000400010000001D001EF2
:1025DC0000240025001800190026002700FFFFFF2B
:1025EC00FFFFFFFFFFFFFFFFFF06000700494E56EE
:1025FC00414C49442000444F4E450000000000125D
:0C260C000D030FBA0CE70CCE0C070D00FC
:00000001FF
