:100000000C94C5000C94B0080C94F4000C94F4000B
:100010000C94F4000C94F4000C94F4000C94F40090
:100020000C94F4000C94C8070C943D070C94F40055
:100030000C94F4000C94F4000C94F4000C94F40070
:100040000C94200B0C94F4000C94BF0D0C94490EEE
:100050000C94F4000C94F4000C94F4000C94F40050
:100060000C94F4000C94F4000C94F4000C94F40040
:100070000C94F4000C94F4000C94FA0D0C94830E80
:100080000C94F4000C94F4000C94F4002D0C610C0E
:10009000320C380C3E0C610C610C430C4D0C570CAF
:1000A0007F0C900C740C770C7B0C900C900C830CD8
:1000B000870C8B0C00000000000000000000000016
:1000C0000000000000000000000000000000000030
:1000D0000103040500000505090A000000000000F6
:1000E0000000000000000000000102040810204091
:1000F0008001020408102040800102040810204002
:1001000080010204081020408001020408102040F1
:100110008001020408102040800102040810040439
:10012000040404040404030303030303030301019D
:10013000010101010101020202020202020205059F
:100140000505050505050606060606060606070753
:100150000707070000390036003300300021002077
:1001600000630000003B00380035003200230062CD
:1001700000650000003A00370034003100220061C1
:1001800000640000DC040A07C20E11241FBECFEF7A
:10019000D0E1DEBFCDBF11E0A0E0B1E0EAE6F6E2DB
:1001A00000E00BBF02C007900D92AE38B107D9F73F
:1001B00023E0AEE8B1E001C01D92A838B207E1F734
:1001C00011E0CAE8D1E000E006C022970109FE0173
:1001D0000BBF0E94BD12C438D10780E00807A9F701
:1001E0000E94630F0C9433130C94000060E070E0E5
:1001F00080E090E00E94F50660E070E081E090E031
:100200000E94F50620E042E060E182EC91E00E946D
:100210009C0563E28FEB91E00E946C086FE18EEB2E
:1002200091E00E946C0862E28DEB91E00E946C0804
:1002300082EC91E00E94860582EC91E00E948D059F
:1002400080E00E94F40B0C9471102F923F924F9219
:100250005F926F927F928F929F92AF92BF92CF9256
:10026000DF92EF92FF920F931F93CF93DF9300D013
:1002700000D0CDB7DEB745E4C42ED12CE12CF12C53
:1002800052E0852E912CA12CB12C06E910E0809132
:10029000040190910501A0910601B0910701019719
:1002A000A105B10509F0E7C10E94EA06892B51F0CA
:1002B0000E944A09C0920401D0920501E092060111
:1002C000F092070186E090E00E94E20697FD039617
:1002D000959587959595879590939F0180939E011D
:1002E00087E090E00E94E20697FD0396959587953A
:1002F000959587959093A1018093A00183E00E943A
:10030000000D9093A9018093A80184E00E94000D44
:100310009093A7018093A6012091A8013091A90193
:100320004091BC01232B41F0892B09F481C110922B
:100330009B0110929A0109C0892B09F47CC121E02C
:1003400030E030939B0120939A014423E9F00E940E
:100350006A0B4090B8015090B9016090BA0170905A
:10036000BB0164197509860997096D3B72408105C7
:10037000910550F082EC91E00E9486056AE071E000
:1003800082EC91E00E94B00F20909A0130909B0186
:1003900080919801909199012816390691F09093D7
:1003A000970180939601809194019091950190938B
:1003B000A3018093A20121E030E0309395012093C6
:1003C000940180918E0190918F01289EF001299EC9
:1003D000F00D389EF00D11248091AA019091AB018F
:1003E000E80FF91FFC83EB83F093AB01E093AA01C4
:1003F00080919E0190919F01289E9001299E300D31
:10040000389E300D11243A8329833093A50120931F
:10041000A4018091A0019091A101BC01882777FDE2
:100420008095982F0E9454112B013C0180919601D8
:1004300090919701281A390AB101882777FD809594
:10044000982F0E9454119B01AC01C301B2010E947C
:10045000E0112B013C018091A2019091A301209118
:10046000940130919501820F931FBC01882777FD7D
:100470008095982F0E9454119B01AC01C301B201D9
:100480000E94B9100E94211170939D0160939C01FC
:1004900089819A81860F971FEB81FC818E0F9F1FA8
:1004A000873991052CF010939301009392010FC0AE
:1004B0008A36FFEF9F072CF090939301809392016F
:1004C00006C02AE63FEF309393012093920180917A
:1004D0009001909191018639910509F048C082EC14
:1004E00091E00E9486056FE071E082EC91E00E944D
:1004F000B00F60919E0170919F014AE050E082EC44
:1005000091E00E945C1061E171E082EC91E00E9458
:10051000B00F6091A0017091A1014AE050E082EC1F
:1005200091E00E945C1067E171E082EC91E00E9432
:10053000B00F6091A8017091A9014AE050E082ECEF
:1005400091E00E945C1067E171E082EC91E00E9412
:10055000B00F6091A6017091A7014AE050E082ECD3
:1005600091E00E945C101092910110929001809194
:100570009001909191010196909391018093900147
:1005800080919401909195010196909395018093AB
:10059000940140919201509193014A565F4F60E05F
:1005A00070E080EC91E00E94AA0680919201909107
:1005B0009301A801481B590B61E070E080EC91E0C9
:1005C0000E94AA0680919A0190919B0190939901B3
:1005D0008093980181E00E94000D892B31F482E024
:1005E0000E94000D892B09F452CE0E946A0B4090A4
:1005F000B0015090B1016090B2017090B3016419E4
:10060000750986099709693E73408105910508F4CB
:100610003ECE8092040190920501A0920601B09214
:10062000070163E171E082EC91E00E94B00F2DCEF2
:100630002FEF3FEF86CE41110AC00E946A0B6093F4
:10064000B8017093B9018093BA019093BB0131E076
:100650003093BC0180919801909199011816190668
:100660001CF483E090E002C08DEF9FEF90939B011C
:1006700080939A0189CE0F900F900F900F90DF9189
:10068000CF911F910F91FF90EF90DF90CF90BF908F
:10069000AF909F908F907F906F905F904F903F9022
:1006A0002F9008952F923F924F925F926F927F9278
:1006B0008F929F92AF92BF92CF92DF92EF92FF9272
:1006C0000F931F93CF93DF930E946A0B6B017C0102
:1006D000312C212C88248394912C0E946A0B6C1954
:1006E0007D098E099F096B3471058105910508F01C
:1006F000EFC081E00E94000D892B11F02224239489
:1007000082E00E94000D892B11F03324339480E0A5
:100710000E94000D86E090E00E94E20697FD03969D
:10072000959587959595879590939F0180939E01C8
:1007300087E090E00E94E20697FD039695958795E5
:10074000959587959093A1018093A00183E00E94E5
:10075000000D9093A9018093A80184E00E94000DF0
:100760009093A7018093A6014091A8015091A901FF
:100770002091980130919901452B41F0892B09F482
:10078000C3C010929B0110929A0107C0892B09F4F3
:10079000C2C090929B0180929A01C0919A01D0911F
:1007A0009B01C217D30781F03093970120939601E4
:1007B00080919401909195019093A3018093A2015F
:1007C000909295018092940180919E0190919F0159
:1007D000C89F5001C99FB00CD89FB00C1124B09293
:1007E000A501A092A401009194011091950180911E
:1007F000A0019091A101BC01882777FD8095982FD9
:100800000E9454112B013C01809196019091970117
:10081000C81BD90BBE01882777FD8095982F0E94B1
:1008200054119B01AC01C301B2010E94E0112B01E4
:100830003C018091A2019091A301800F911FBC0106
:10084000882777FD8095982F0E9454119B01AC0159
:10085000C301B2010E94B9100E94211170939D0141
:1008600060939C01A60EB71EB0929301A0929201D4
:1008700060919001709191016F5F7F4F7093910132
:10088000609390010F5F1F4F1093950100939401A7
:10089000A5014A565F4F60E070E080EC91E00E9455
:1008A000AA06809192019091930146E950E0481B7D
:1008B000590B61E070E080EC91E00E94AA06809103
:1008C0009A0190919B01909399018093980105CF93
:1008D00004E011E0232D422D61E08CEA91E00E94BA
:1008E0008A0ADF91CF911F910F91FF90EF90DF90D7
:1008F000CF90BF90AF909F908F907F906F905F90C0
:100900004F903F902F9008958FEF9FEF90939B0112
:1009100080939A0142CF121613061CF483E090E0F4
:10092000F5CF8DEF9FEFF2CF8091040190910501FB
:10093000A0910601B09107010197A105B10511F43D
:100940000E9425018091040190910501A09106016A
:10095000B09107010297A105B10511F40E9452035D
:100960008091040190910501A0910601B0910701C9
:100970000797A105B10511F40E944A09809104016D
:1009800090910501A0910601B09107018534910570
:10099000A105B10581F440E050E060E070E080EC3A
:1009A00091E00E94AA0640E050E061E070E080EC37
:1009B00091E00C94AA0608958AE090E0A0E0B0E0EF
:1009C0008093AC019093AD01A093AE01B093AF01C1
:1009D0001092B4011092B5011092B6011092B701B5
:1009E0000895CF93DF93EC0160E08E810E94CA0CE2
:1009F00081E090E00E94C00B61E08E810E94CA0CF1
:100A000081E090E00E94C00B60E08E810E94CA0CE1
:100A100084E690E0DF91CF910C94C00BEF92FF92AF
:100A20000F931F93CF93DF938C01C0E0D0E0E62EAD
:100A3000F12CB7010C2E02C0759567950A94E2F768
:100A40006170F801EC0FFD1F87810E94CA0C21968E
:100A5000C430D10571F7C801DF91CF911F910F917B
:100A6000FF90EF900C94F104EF92FF920F931F937D
:100A7000CF93DF938C01C0E0D0E0E62EF12CB701DC
:100A80000C2E02C0759567950A94E2F76170F80123
:100A9000EC0FFD1F87810E94CA0C2196C830D1053A
:100AA00071F7C801DF91CF911F910F91FF90EF90E7
:100AB0000C94F1041F93CF93DF93EC01162F642F56
:100AC0008C810E94CA0C8D818F3F19F060E00E94DA
:100AD000CA0C8F85612F84FF06C0CE01DF91CF91B4
:100AE0001F910C94340570E084E0759567958A95A4
:100AF000E1F7CE010E940E05612FCE01DF91CF916B
:100B00001F910C940E0540E00C945A0561E00E9480
:100B1000830580ED97E00C94C00B62E00E94830592
:100B200080ED97E00C94C00BFC016089262F2460B7
:100B3000208B6C600C9483050F931F93CF93DF93EE
:100B4000EC01423018F08F8588608F874B8B1C8AB0
:100B500080E48D8B6E8B70E0605C7F4F6F8B222307
:100B600029F0413019F48F8584608F8761E08C8192
:100B70000E94910C8D818F3F19F061E00E94910CD1
:100B800061E08E810E94910C00E010E08F8584FF6F
:100B900003C088E090E002C084E090E008171907E5
:100BA00054F4FE01E00FF11F61E087810E94910C77
:100BB0000F5F1F4FEBCF80E593EC0E94C00B60E00E
:100BC0008C810E94CA0C60E08E810E94CA0C8D81CB
:100BD0008F3F19F060E00E94CA0C6F8564FD1DC054
:100BE00063E0CE010E940E0584E991E10E94C00BF2
:100BF00063E0CE010E940E0584E991E10E94C00BE2
:100C000063E0CE010E940E0586E990E00E94C00BD1
:100C100062E0CE010E940E0516C06062CE010E9405
:100C2000830584E991E10E94C00B6F856062CE016B
:100C30000E94830586E990E00E94C00B6F85606288
:100C4000CE010E9483056F856062CE010E948305FC
:100C500084E0888BCE010E949405CE010E94860517
:100C600082E0898B66E0CE01DF91CF911F910F91D9
:100C70000C9483058F92AF92CF92EF920F93CF9304
:100C8000DF93CDB7DEB7FC017A855B853C851382A7
:100C900012828DE191E09183808364834583268372
:100CA0000783E086C186A286838674875587368748
:100CB00080E1878720E041E060E1CF01DF91CF91C3
:100CC0000F91EF90CF90AF908F900C949C0541E0E6
:100CD0000E945A0581E090E00895CF92DF92EF9252
:100CE000FF920F931F93CF93DF93C1E3D1E089E28B
:100CF000E82E81E0F82E01E211E0C880229661E042
:100D00008C2D0E94910CF701D080F2E0EF0EF11CC7
:100D100061E08D2D0E94910C61E08C2D0E94CA0C27
:100D200061E070E08D2D0E94080CF80180810E5F5B
:100D30001F4F60E070E00E94080CF1E0C933DF074C
:100D4000E1F6DF91CF911F910F91FF90EF90DF902F
:100D5000CF9008950F931F93CF93DF938B01EA01F8
:100D6000000F111F4F3F510509F03CF441308FEF48
:100D700058078CF057FF03C010C0CFEFD0E0F80148
:100D8000EF5CFE4F61E080810E94CA0CF801E75DD4
:100D9000FE4FBE0110C0C1E0DFEFF801EF5CFE4F77
:100DA00060E080810E94CA0C662777276C1B7D0B50
:100DB000F801E75DFE4F8081DF91CF911F910F9188
:100DC0000C94080CFC01EE0FFF1FE75CFE4F8081C6
:100DD0000C94F40B82E30E94000D21E030E0892B9B
:100DE00011F020E030E0C90108951F93CF93DF9305
:100DF000162FD82FDD0FDD0FDD0FC0E0612F8C2FF8
:100E00008D0F0E94910CCF5FC830C1F7DF91CF9159
:100E10001F9108958F92AF92CF92EF920F9387E137
:100E20008F9386E18F9385E18F9324E1822E33E1C6
:100E3000A32E42E1C42E51E1E52E00E12CE14BE16D
:100E40006AE182EC91E00E943A0680EC91E00E9417
:100E50006D068FEB91E00E9442088EEB91E00E94BC
:100E600042080F900F900F908DEB91E00F91EF9053
:100E7000CF90AF908F900C9442081F920F920FB6B4
:100E80000F9211240BB60F922F933F938F939F9342
:100E9000AF93BF93EF93FF9380910801823020F4CA
:100EA000809108018F5F01C080E0809308018091EC
:100EB000080181115EC0A091E00189E08A9FD00104
:100EC0001124AF51BE4F9C919923D9F0A091E0011C
:100ED0008A9FD0011124AF51BE4F11962C91E09101
:100EE000E0018E9FF0011124EF51FE4F0280F3814B
:100EF000E02D808190E030E020953095822393238F
:100F000080838091E001873020F48091E0018F5F41
:100F100001C080E08093E001A091E00189E08A9F18
:100F2000D0011124AF51BE4F9C919923B1F0A091F3
:100F3000E0018A9FD0011124AF51BE4F11969C91C0
:100F4000E091E0018E9FF0011124EF51FE4F0280ED
:100F5000F381E02D8081892B8083E091E00189E09D
:100F6000E89FF0011124EF51FE4F868183BD80E898
:100F700084BDFF91EF91BF91AF919F918F913F9170
:100F80002F910F900BBE0F900FBE0F901F901895D2
:100F90001F920F920FB60F9211240BB60F922F9340
:100FA0003F938F939F93AF93BF93EF93FF93A09142
:100FB000E00139E03A9FD0011124AF51BE4F8C912E
:100FC0008823F1F180910801813069F4A091E0015A
:100FD0003A9FD0011124AF51BE4F17968D919C912D
:100FE0001897892B91F080910801823049F5A091E2
:100FF000E00139E03A9FD0011124AF51BE4F17965E
:101000008D919C911897892BD9F0A091E0013A9F7E
:10101000D0011124AF51BE4F11962C91E091E00107
:101020003E9FF0011124EF51FE4F0280F381E02D2D
:10103000808190E030E02095309582239323808357
:10104000FF91EF91BF91AF919F918F913F912F9120
:101050000F900BBE0F900FBE0F901F901895F89435
:1010600014BC8FEF83BD15BC85B5836085BD85B588
:10107000886485BD87B7806887BF87B7806487BF6E
:1010800078940895FC011082A0912902A83018F5E7
:10109000A08389E08A9FD0011124AF51BE4F1C92DA
:1010A00011961C92A0818A9FD0011124AF51BE4F8E
:1010B00013961C921E92129716961C92E0818E9F98
:1010C000F0011124EF51FE4F108617828091290202
:1010D0008F5F809329020895FF920F931F93CF9300
:1010E000DF93EC01862F262F30E0F901E751FF4F07
:1010F000F490F901E25EFE4FE491EE2341F1F0E05D
:10110000EE0FFF1FED59FE4F0591149161E00E9413
:10111000910CA88199E09A9FD0011124AF51BE4F44
:1011200081E08C931196FC92E8819E9FF00111243E
:10113000EF51FE4F138302831582148290912A028D
:10114000911107C080932A020E942F0802C080E0FC
:1011500001C081E0DF91CF911F910F91FF90089521
:101160001F920F920FB60F9211240BB60F920F938E
:101170001F932F933F934F935F936F937F938F931F
:101180009F93AF93BF93CF93EF93FF930E946A0B0C
:101190000091DA011091DB012091DC013091DD0139
:1011A000065F1F4F2F4F3F4F0617170728073907B6
:1011B00008F5C0E080E00E94000D892BB1F0CA3034
:1011C000B9F48091DE019091DF0101969093DF01E7
:1011D0008093DE010E946A0B6093DA017093DB0159
:1011E0008093DC019093DD0105C0CA3099F7E9CF07
:1011F000CF5FE0CFFF91EF91CF91BF91AF919F91E2
:101200008F917F916F915F914F913F912F911F919E
:101210000F910F900BBE0F900FBE0F901F9018955F
:101220000097B9F1029759F448E750E060E070E0A8
:1012300080EC91E00E94AA0648E85FEF0AC048E807
:101240005FEF60E070E080EC91E00E94AA0648E762
:1012500050E061E070E080EC91E00E94AA066AEF45
:1012600070E080E090E00E949A0B83E00E94000D05
:10127000892BD9F784E00E94000D892BB1F783E018
:101280000E94000D892BD9F384E00E94000D892B68
:10129000B1F3089548ED5FEF60E070E080EC91E01D
:1012A0000E94AA0648E85FEF61E070E080EC91E000
:1012B0000E94AA066CE474E080E090E00E949A0B21
:1012C00048E750E060E070E080EC91E00E94AA0600
:1012D00048E85FEF61E070E080EC91E00E94AA06D0
:1012E00083E00E94000D892BD9F784E00E94000D55
:1012F000892BB1F783E00E94000D892BD9F384E09C
:101300000E94000D892BB1F308951F93CF93DF93B3
:10131000C62FD42F122F23E030E040E050E060E0F1
:1013200070E0CB010E949D106115710531F4CC2352
:1013300091F3DF91CF911F9108956130710529F4E8
:10134000DD2349F381E090E007C06230710519F7B1
:10135000112309F382E090E0DF91CF911F910C946B
:101360001009BF92CF92DF92EF92FF920F931F93DB
:10137000CF93DF93C62FD42FB22EFC0100851185A9
:1013800022853385013011052105310559F482E0AC
:1013900090E00E941009C13009F052C0D11150C034
:1013A0002B2D4FC0023011052105310559F481E084
:1013B00090E00E941009C13009F042C0D13009F01C
:1013C0003FC0EECF68017901F3E0CF1AD108E10800
:1013D000F10882E0C816D104E104F10430F481E0A0
:1013E00090E00E94100921E02CC005301105210574
:1013F000310559F481E090E00E941009C13001F5F7
:10140000D130F1F42B2D2D271CC0063011052105FC
:10141000310519F482E090E0CCCF073011052105A9
:10142000310509F4B4CF083011052105310539F42F
:1014300069E471E082EC91E00E94B00F01C002C04B
:1014400020E0822FDF91CF911F910F91FF90EF90BD
:10145000DF90CF90BF900895FF920F931F93CF938B
:10146000DF93D62FC42FF22EFC0100851185228533
:101470003385013011052105310551F481E090E0FB
:101480000E941009D130F1F5C130E1F5CF253BC004
:10149000023011052105310551F482E090E00E94EF
:1014A0001009D13079F5C13069F5CF2D2CC003304A
:1014B00011052105310539F482E090E00E94100900
:1014C000DD2389F31FC0043011052105310549F4DE
:1014D00081E090E00E941009D11114C0CC2329F3BF
:1014E00011C0053011052105310559F481E090E066
:1014F0000E94100969E571E082EC91E00E94B00F52
:1015000001C002C0C0E08C2FDF91CF911F910F91DD
:10151000FF900895BF92CF92DF92EF92FF920F93C8
:101520001F93CF93DF93EC01C884D984EA84FB84B2
:101530008FEFC81AD80AE80AF80AC886D986EA8658
:10154000FB86C880D980EA80FB80EEE0CE16D1040D
:10155000E104F10421F4CE010E94850914C0FAE0EF
:10156000CF16D104E104F10421F4CE010E94B109A7
:1015700009C089E0C816D104E104F10421F4CE01C8
:101580000E942C0AB82EB1101DC082EC91E00E947E
:10159000860568E671E082EC91E00E94B00F488514
:1015A00059856A857B852AE030E082EC91E00E94D3
:1015B000641085E490E0A0E0B0E0F80180839183BE
:1015C000A283B38388859985AA85BB8586349105D6
:1015D000A105B10598F085E490E0A0E0B0E0F80145
:1015E00080839183A283B38382EC91E00E9486057D
:1015F00063E671E082EC91E00E94B00FF801808117
:101600009181A281B38185349105A105B10541F095
:1016100081E090E0A0E0B0E080839183A283B38377
:101620000E946A0B6C837D838E839F83DF91CF91B1
:101630001F910F91FF90EF90DF90CF90BF90089592
:101640001F920F920FB60F9211242F933F938F93F7
:101650009F93AF93BF9380912C0290912D02A09104
:101660002E02B0912F0230912B0223E0230F2D3751
:1016700020F40196A11DB11D05C026E8230F029696
:10168000A11DB11D20932B0280932C0290932D025B
:10169000A0932E02B0932F028091300290913102DC
:1016A000A0913202B09133020196A11DB11D809329
:1016B000300290933102A0933202B0933302BF9173
:1016C000AF919F918F913F912F910F900FBE0F90EF
:1016D0001F9018952FB7F89460912C0270912D02ED
:1016E00080912E0290912F022FBF08953FB7F8945A
:1016F0008091300290913102A0913202B091330278
:1017000022B706B600FE05C02F3F19F00196A11DB5
:10171000B11D3FBF6627782F892F9A2F620F711D49
:10172000811D911D42E0660F771F881F991F4A9502
:10173000D1F70895CF92DF92EF92FF92CF93DF938C
:101740006B017C010E94760BEB01C114D104E10412
:10175000F10479F00E94760B6C1B7D0B683E7340A0
:10176000A0F381E0C81AD108E108F108C851DC4FA4
:10177000ECCFDF91CF91FF90EF90DF90CF90089565
:10178000019739F0880F991F880F991F02970197C9
:10179000F1F70895789483B7846083BF87B7816039
:1017A00087BF1EBC8EB582608EBD8EB581608EBD3A
:1017B0008FB581608FBD85B5846085BD85B580643A
:1017C00085BDEAE8F0E0808182608083808181606D
:1017D0008083EBE8F0E0808181608083329A319AE7
:1017E000309A379A1AB808958B3208F08B52877066
:1017F0002091090190E4299F90011124822B87B93F
:10180000369A3699FECF84B125B190E0922B089597
:101810001F93CF93DF93182FEB0161E00E94910C8F
:10182000209711F460E004C0CF3FD10539F461E0A6
:10183000812FDF91CF911F910C94CA0CE12FF0E022
:10184000EC54FF4F449150E0FA013197EA30F10532
:10185000C0F5EA5BFF4F0C94AC1283B7806183BF85
:10186000C1BF34C08FB580688FBDDBBDCABD2EC07F
:101870008FB580628FBDD9BDC8BD28C085B58062D7
:1018800085BDC3BD23C080918B00806880938B0091
:10189000D0938700C093860019C080918B0080622E
:1018A00080938B00D0938500C09384000FC08091FB
:1018B0008B00886080938B00D0938300C09382005C
:1018C00005C0C038D1050CF0B2CFACCFDF91CF91BD
:1018D0001F91089590E0FC013197EA30F10500F581
:1018E000E05BFF4F0C94AC128FB58F7702C08FB5C1
:1018F0008F7D8FBD089585B58F7D85BD089583B794
:101900008F7D83BF089580918B008F7707C0809172
:101910008B008F7D03C080918B00877F80938B002D
:101920000895CF93DF9390E0FC01E751FF4F24919E
:10193000FC01E25EFE4F8491882349F190E0880F1C
:10194000991FFC01ED58FE4FA591B4918D599E4F02
:10195000FC01C591D4919FB7611108C0F8948C9196
:10196000209582238C93888182230AC0623051F4AF
:10197000F8948C91322F309583238C938881822B1D
:10198000888304C0F8948C91822B8C939FBFDF9145
:10199000CF9108950F931F93CF93DF931F92CDB7ED
:1019A000DEB7282F30E0F901EC54FF4F8491F901A4
:1019B000E751FF4F1491F901E25EFE4F04910023BD
:1019C000C9F0882321F069830E946A0C6981E02FA5
:1019D000F0E0EE0FFF1FED59FE4FA591B4919FB7B8
:1019E000F8948C91611103C01095812301C0812B63
:1019F0008C939FBF0F90DF91CF911F910F9108950E
:101A0000CF93DF93282F30E0F901EC54FF4F8491FE
:101A1000F901E751FF4FD491F901E25EFE4FC49105
:101A2000CC2391F081110E946A0CEC2FF0E0EE0FB4
:101A3000FF1FED5AFE4FA591B4912C912D2381E00B
:101A400090E021F480E002C080E090E0DF91CF914F
:101A50000895FC0124853585F901E05CFF4F808104
:101A60009181329620813181805C9F4F821B930B44
:101A700060E470E00E9457120895FC01848595850A
:101A8000FC01E05CFF4F4081518132962081318121
:101A90004217530741F00190F081E02DE80FF91F44
:101AA000808190E008958FEF9FEF0895FC01848579
:101AB0009585FC01E05CFF4F408151813296208189
:101AC00031814217530779F0A081B181A80FB91F66
:101AD0008C91208131812F5F3F4F2F7333273183CA
:101AE000208390E008958FEF9FEF0895FC0181A17E
:101AF000882329F0A489B5898C9186FFFBCF11A298
:101B00000895CF93DF93FC0126853785D901A05C2A
:101B1000BF4F8D919C91119701968F739927E90181
:101B2000CE5BDF4F4881598184179507D9F30D901B
:101B3000BC91A02DA20FB31F6C93A685B785A05CA6
:101B4000BF4F11969C938E93A689B7892C9181E003
:101B500090E0078C02C0880F991F0A94E2F7282BA7
:101B60002C9381E081A30488F589E02D8081806435
:101B7000808381E090E0DF91CF91089508951F92D6
:101B80000F920FB60F9211240BB60F922F933F9323
:101B90004F938F939F93EF93FF935A991BC04CB130
:101BA000809184039091850301968F7399272091EA
:101BB0008603309187038217930769F0E0918403CD
:101BC000F0918503EC5BFC4F4083909385038093F9
:101BD000840301C08CB1FF91EF919F918F914F9140
:101BE0003F912F910F900BBE0F900FBE0F901F9043
:101BF000189508951F920F920FB60F9211240BB6ED
:101C00000F922F933F934F938F939F93EF93FF9355
:101C100080919B0082FD1CC040919C008091FC0241
:101C20009091FD0201968F7399272091FE023091C9
:101C3000FF028217930771F0E091FC02F091FD0220
:101C4000E454FD4F40839093FD028093FC0202C058
:101C500080919C00FF91EF919F918F914F913F91C7
:101C60002F910F900BBE0F900FBE0F901F901895E5
:101C700086E592E00E94290D892B11F00E94BE0D8D
:101C800084E392E00E94290D892B11F00C94F90D48
:101C900008951F920F920FB60F9211240BB60F9258
:101CA0002F933F938F939F93EF93FF932091400344
:101CB00030914103809142039091430328173907E3
:101CC00011F4559813C0E0914203F0914303E050A2
:101CD000FD4F2081809142039091430301968F73C1
:101CE000992790934303809342032CB9FF91EF917E
:101CF0009F918F913F912F910F900BBE0F900FBE30
:101D00000F901F9018951F920F920FB60F921124EB
:101D10000BB60F922F933F938F939F93EF93FF9365
:101D20002091B8023091B9028091BA029091BB0221
:101D30002817390731F480919A008F7D80939A009B
:101D400014C0E091BA02F091BB02E858FD4F208127
:101D50008091BA029091BB0201968F73992790935C
:101D6000BB028093BA0220939C00FF91EF919F9158
:101D70008F913F912F910F900BBE0F900FBE0F9040
:101D80001F901895109259021092580288EE93E015
:101D9000A0E0B0E080935A0290935B02A0935C02B3
:101DA000B0935D0221E831E0309357022093560250
:101DB00044E453E0509363024093620240E053E0F6
:101DC000509365024093640240E950E050936702EB
:101DD0004093660249E250E05093690240936802E2
:101DE0004BE250E050936B0240936A024AE250E0AB
:101DF00050936D0240936C0245E950E050936F029E
:101E000040936E024CE250E0509371024093700296
:101E1000E4E0E093720273E07093730267E0609312
:101E2000740255E05093750241E04093760210929F
:101E30003702109236028093380290933902A093B1
:101E40003A02B0933B0230933502209334028CEB7C
:101E500092E0909341028093400288E792E0909351
:101E600043028093420288E990E090934502809378
:101E7000440289E990E090934702809346028BE9FF
:101E800090E090934902809348028AE990E0909311
:101E90004B0280934A028DE990E090934D0280932B
:101EA0004C028CE990E090934F0280934E02E093B5
:101EB0005002709351026093520250935302409328
:101EC0005402089508950E94CA0B0E94620F0E9456
:101ED000F600C8E3DEE00E9494042097E1F30E943C
:101EE000380EF9CFCF92DF92EF92FF920F931F93AC
:101EF000CF93DF936C017A01EB01E60EF71E00E051
:101F000010E0CE15DF0561F06991D601ED91FC91ED
:101F10000190F081E02DC6010995080F191FF1CF3E
:101F2000C801DF91CF911F910F91FF90EF90DF904B
:101F3000CF9008956115710581F0DB010D900020AF
:101F4000E9F7AD0141505109461B570BDC01ED91FA
:101F5000FC910280F381E02D099480E090E00895E7
:101F60000C949A0FDC01ED91FC910190F081E02D31
:101F700009948F929F92AF92BF92CF92DF92EF928D
:101F8000FF920F931F93CF93DF93CDB7DEB7A19747
:101F90000FB6F894DEBF0FBECDBF7C01C42EE52F77
:101FA000CB01D22E19A221E02D1510F02AE0D22E5D
:101FB0008E010F5D1F4F8D2C912CA12CB12C6C2DFF
:101FC0007E2FA50194010E946B128C2DD29E801948
:101FD0001124015011098A3014F4805D01C0895C1C
:101FE000F8018083211531054105510521F0C22EEC
:101FF000E32FCA01E4CFB801C7010E949A0FA1964E
:102000000FB6F894DEBF0FBECDBFDF91CF911F9109
:102010000F91FF90EF90DF90CF90BF90AF909F9087
:102020008F900895CF92DF92EF92FF920F931F93BC
:10203000CF93DF93EC016A017B012115310579F41F
:10204000E881F9810190F081E02D642FDF91CF913B
:102050001F910F91FF90EF90DF90CF9009942A305D
:102060003105E9F477FF1AC06DE20E94B20F8C01CE
:1020700044275527BA014C195D096E097F092AE0EA
:10208000CE010E94B90F800F911FDF91CF911F9158
:102090000F91FF90EF90DF90CF9008952AE0B70165
:1020A000A601CE01DF91CF911F910F91FF90EF908C
:1020B000DF90CF900C94B90F9A01AB01662757FDC2
:1020C0006095762F0C9412102115310541F4DC0136
:1020D000ED91FC910190F081E02D642F09940C9416
:1020E000B90F009729F0BC0180E090E00C94221316
:1020F0000895CF93DF9300D000D0CDB7DEB79B011A
:10210000AC01611571058105910569F069833A8318
:102110004B835C830E941E1329813A814B815C8131
:102120000E948D1203C060E070E0CB010F900F9011
:102130000F900F90DF91CF910895CF92DF92EF92A1
:10214000FF926B017C01621773078407950764F4A3
:10215000CA01B9016C197D098E099F090E94791085
:102160006C0D7D1D8E1D9F1DFF90EF90DF90CF9019
:1021700008950CD0EBC0E3D040F0DAD030F021F479
:102180005F3F19F0CCC0511115C1CFC0F0D098F30A
:102190009923C9F35523B1F3951B550BBB27AA27E8
:1021A00062177307840738F09F5F5F4F220F331F5A
:1021B000441FAA1FA9F333D00E2E3AF0E0E830D026
:1021C00091505040E695001CCAF729D0FE2F27D029
:1021D000660F771F881FBB1F261737074807AB07F7
:1021E000B0E809F0BB0B802DBF01FF2793585F4F6C
:1021F0002AF09E3F510568F092C0DCC05F3FECF3CF
:10220000983EDCF3869577956795B795F7959F5F30
:10221000C9F7880F911D9695879597F90895E1E084
:10222000660F771F881FBB1F621773078407BA07E3
:1022300020F0621B730B840BBA0BEE1F88F7E0953E
:10224000089504D06894B111B5C0089598D088F06D
:102250009F5790F0B92F9927B751A0F0D1F0660F92
:10226000771F881F991F1AF0BA95C9F712C0B130AD
:1022700081F09FD0B1E008959CC0672F782F882708
:10228000B85F39F0B93FCCF3869577956795B395EC
:10229000D9F73EF490958095709561957F4F8F4F5B
:1022A0009F4F0895E89409C097FB3EF49095809560
:1022B000709561957F4F8F4F9F4F9923A9F0F92F0C
:1022C00096E9BB279395F695879577956795B7958A
:1022D000F111F8CFFAF4BB0F11F460FF1BC06F5F70
:1022E0007F4F8F4F9F4F16C0882311F096E911C082
:1022F000772321F09EE8872F762F05C0662371F0A3
:1023000096E8862F70E060E02AF09A95660F771FB6
:10231000881FDAF7880F9695879597F9089597F9AA
:102320009F6780E870E060E008959FEF80EC08957B
:1023300000240A94161617061806090608950024A4
:102340000A9412161306140605060895092E03941E
:10235000000C11F4882352F0BB0F40F4BF2B11F492
:1023600060FF04C06F5F7F4F8F4F9F4F089557FDF1
:102370009058440F551F59F05F3F71F04795880FF3
:1023800097FB991F61F09F3F79F08795089512168A
:1023900013061406551FF2CF4695F1DF08C0161636
:1023A00017061806991FF1CF8695710561050894E7
:1023B0000895E894BB2766277727CB0197F90895FE
:1023C0000BD0C4CFB5DF28F0BADF18F0952309F0A1
:1023D000A6CFABCF1124EECFCADFA0F3959FD1F3E8
:1023E000950F50E0551F629FF001729FBB27F00DC3
:1023F000B11D639FAA27F00DB11DAA1F649F662718
:10240000B00DA11D661F829F2227B00DA11D621F66
:10241000739FB00DA11D621F839FA00D611D221F20
:10242000749F3327A00D611D231F849F600D211D04
:10243000822F762F6A2F11249F5750408AF0E1F0A7
:1024400088234AF0EE0FFF1FBB1F661F771F881FF0
:1024500091505040A9F79E3F510570F060CFAACF30
:102460005F3FECF3983EDCF3869577956795B795DB
:10247000F795E7959F5FC1F7FE2B880F911D969505
:10248000879597F90895AA1BBB1B51E107C0AA1FA6
:10249000BB1FA617B70710F0A61BB70B881F991F05
:1024A0005A95A9F780959095BC01CD01089597FBA9
:1024B000072E16F4009407D077FD09D00E9443122E
:1024C00007FC05D03EF4909581959F4F0895709537
:1024D00061957F4F0895A1E21A2EAA1BBB1BFD0137
:1024E0000DC0AA1FBB1FEE1FFF1FA217B307E407F3
:1024F000F50720F0A21BB30BE40BF50B661F771F4B
:10250000881F991F1A9469F760957095809590952A
:102510009B01AC01BD01CF010895052E97FB1EF470
:1025200000940E94A41257FD07D00E946B1207FC72
:1025300003D04EF40C94A4125095409530952195FB
:102540003F4F4F4F5F4F08959095809570956195DF
:102550007F4F8F4F9F4F0895EE0FFF1F0590F4910F
:10256000E02D09940E94C112A59F900DB49F900D7B
:10257000A49F800D911D112408950790F691E02DE0
:102580000994A29FB001B39FC001A39F700D811D4C
:102590001124911DB29F700D811D1124911D08956C
:1025A0008F929F92AF92BF92CF92DF92EF92FF9263
:1025B000CF93DF93EC01688179818A819B816115DA
:1025C00071058105910521F464E279ED8BE597E0D1
:1025D0002DE133EF41E050E00E948D1249015A0194
:1025E0009B01AC01A7EAB1E40E94B2126B017C012D
:1025F000ACEEB4EFA50194010E942E13C60ED71EB7
:10260000E81EF91EF7FE06C081E0C81AD108E108ED
:1026100080E8F80AC882D982EA82FB82C701B60143
:102620009F77DF91CF91FF90EF90DF90CF90BF9099
:10263000AF909F908F9008950C94D01280E091E01D
:102640000C94D012609300017093010180930201F9
:10265000909303010895B7FF0C94B2120E94B21236
:0A266000821B930B0895F894FFCF3E
:10266A00010000000100000002014C4F53540050C9
:10267A0000440020494E5420000000000067067202
:10268A000F05000400010000001D001E00240025A3
:10269A00001800190026002700FFFFFFFFFFFFFFB9
:1026AA00FFFFFFFFFF06000700524947485420502A
:1026BA0041544820444F4E45004C45465420504111
:1026CA00544820444F4E4500494E544552534543C1
:1026DA0054494F4E2050524F424C454D0000000085
:0E26EA0000810D720F290D560D3D0D760D006D
:00000001FF
