:100000000C94C5000C94F6000C94F4000C94F400CD
:100010000C94F4000C94F4000C94F4000C94F40090
:100020000C94F4000C94F4000C94E5070C94F40088
:100030000C94F4000C94F4000C94F4000C94F40070
:100040000C94AD0C0C94F4000C944C0F0C94D60F43
:100050000C94F4000C94F4000C94F4000C94F40050
:100060000C94F4000C94F4000C94F4000C94F40040
:100070000C94F4000C94F4000C94870F0C94101062
:100080000C94F4000C94F4000C94F400BA0DEE0DF2
:10009000BF0DC50DCB0DEE0DEE0DD00DDA0DE40D3F
:1000A0000C0E1D0E010E040E080E1D0E1D0E100E60
:1000B000140E180E000000000000000000000000F8
:1000C0000000000000000000000000000000000030
:1000D0000103040500000505090A000000000000F6
:1000E0000000000000000000000102040810204091
:1000F0008001020408102040800102040810204002
:1001000080010204081020408001020408102040F1
:100110008001020408102040800102040810040439
:10012000040404040404030303030303030301019D
:10013000010101010101020202020202020205059F
:100140000505050505050606060606060606070753
:100150000707070000390036003300300021002077
:1001600000630000003B00380035003200230062CD
:1001700000650000003A00370034003100220061C1
:10018000006400007D05B2074F1011241FBECFEFA1
:10019000D0E1DEBFCDBF11E0A0E0B1E0E4E8F9E2DC
:1001A00000E00BBF02C007900D92A839B107D9F744
:1001B00023E0A8E9B1E001C01D92A436B207E1F73F
:1001C00011E0CAE8D1E000E006C022970109FE0173
:1001D0000BBF0E943614C438D10780E00807A9F786
:1001E0000E94F0100C94C0140C9400001F920F9207
:1001F0000FB60F9211248F939F93AF93BF9380916B
:10020000040190910501A0910601B09107010897A2
:10021000A105B10561F087E090E0A0E0B0E0809337
:10022000040190930501A0930601B0930701BF91CB
:10023000AF919F918F910F900FBE0F901F901895C7
:1002400089B78E7F89BF89B78D7F89BF89B78B7F3B
:1002500089BF89B7877F89BF60E070E080E090E068
:100260000E949D0760E070E081E090E00E949D07A1
:1002700020E042E060E180ED91E00E944F0663E201
:1002800070E08DEC91E00E9498086FE170E08CECDA
:1002900091E00E94980862E270E08BEC91E00E948D
:1002A000980880ED91E00E94270680ED91E00E9481
:1002B0002E0680E00E94810D0C94FE112F923F9239
:1002C0004F925F926F927F928F929F92AF92BF9266
:1002D000CF92DF92EF92FF920F931F93CF93DF9312
:1002E0000E94F70C77E0C72ED12CE12CF12CE2E034
:1002F0008E2E912CA12CB12C80910401909105019E
:10030000A0910601B09107010197A105B10509F07F
:10031000E8C180E00E948D0E892B41F4C092040157
:10032000D0920501E0920601F092070186E090E08C
:100330000E94950797FD03969595879595958795C6
:100340009093A9018093A80187E090E00E9495070F
:1003500097FD039695958795959587959093AB0115
:100360008093AA0181E00E948D0E9093B301809347
:10037000B20182E00E948D0E9093B1018093B00192
:100380002091B2013091B3014091CA01232B41F079
:10039000892B09F483C11092A5011092A40109C010
:1003A000892B09F47EC181E090E09093A5018093B0
:1003B000A401442321F00E94F70C1092CA0100917D
:1003C000A4011091A5018091A2019091A3010817A9
:1003D000190791F09093A1018093A00180919E0153
:1003E00090919F019093AD018093AC0181E090E0EA
:1003F00090939F0180939E01809198019091990123
:10040000089FE001099FD00D189FD00D1124809105
:10041000B4019091B501C80FD91FD093B501C09315
:10042000B4018091A8019091A901089F1001099F32
:10043000300C189F300C11243092AF012092AE0185
:100440008091AA019091AB01BC01882777FD80952E
:10045000982F0E94E1122B013C018091A001909104
:10046000A101081B190BB801882777FD8095982FEB
:100470000E94E1129B01AC01C301B2010E946D1305
:100480002B013C018091AC019091AD0120919E0126
:1004900030919F01820F931FBC01882777FD8095C3
:1004A000982F0E94E1129B01AC01C301B2010E948E
:1004B00046120E94AE127093A7016093A601260E09
:1004C000371E2C0E3D1E97E9291631041CF086E9D3
:1004D00090E00CC09AE629169FEF39062CF0309276
:1004E0009D0120929C0106C08AE69FEF90939D019A
:1004F00080939C0180919A0190919B01863991058E
:1005000009F070C080ED91E00E94270680ED91E037
:100510000E942E0669E071E080ED91E00E943D119D
:100520006091A8017091A9014AE050E080ED91E04E
:100530000E94E9116BE071E080ED91E00E943D11B5
:100540006091AA017091AB014AE050E080ED91E02A
:100550000E94E9116BE771E080ED91E00E943D118E
:100560006091B2017091B3014AE050E080ED91E0FA
:100570000E94E9116BE771E080ED91E00E943D116E
:100580006091B0017091B1014AE050E080ED91E0DE
:100590000E94E91141E060E080ED91E00E943506A3
:1005A00085E00E948D0E4AE050E0BC0180ED91E0B4
:1005B0000E94E91186E00E948D0E4AE050E0BC01E5
:1005C00080ED91E00E94E91187E00E948D0E4AE0E3
:1005D00050E0BC0180ED91E00E94E91110929B0176
:1005E00010929A0180919A0190919B0101969093AB
:1005F0009B0180939A0180919E0190919F010196A9
:1006000090939F0180939E0140919C0150919D0188
:100610004B555F4F60E070E08EEC91E00E945D070B
:1006200080919C0190919D0145EA50E0481B590B37
:1006300061E070E08EEC91E00E945D078091A40182
:100640009091A5019093A3018093A20183E00E9461
:100650008D0E892B31F484E00E948D0E892B09F4D4
:100660004BCE0E94F70C0091BA011091BB01209172
:10067000BC013091BD01601B710B820B930B693E75
:1006800073408105910508F437CE80920401909261
:100690000501A0920601B09207012ECE8FEF9FEFC9
:1006A00084CE41110AC00E94F70C6093C60170937A
:1006B000C7018093C8019093C90181E08093CA016A
:1006C0008091A2019091A301181619061CF488E0EC
:1006D00090E002C088EF9FEF9093A5018093A40162
:1006E0006ECEDF91CF911F910F91FF90EF90DF9031
:1006F000CF90BF90AF909F908F907F906F905F90C2
:100700004F903F902F9008952F923F924F925F927B
:100710006F927F928F929F92AF92BF92CF92DF9211
:10072000EF92FF920F931F93CF93DF930E94F70CEA
:100730006B017C01312C212C88248394912C0E9404
:10074000F70C6C197D098E099F09663971058105C1
:10075000910508F0ECC083E00E948D0E892B11F00A
:100760002224239484E00E948D0E892B11F03324DF
:10077000339486E090E00E94950797FD0396959547
:100780008795959587959093A9018093A80187E017
:1007900090E00E94950797FD03969595879595950E
:1007A00087959093AB018093AA0181E00E948D0E02
:1007B0009093B3018093B20182E00E948D0E9093DA
:1007C000B1018093B0014091B2015091B3012091E9
:1007D000A2013091A301452B41F0892B09F4D4C02B
:1007E0001092A5011092A40107C0892B09F4D3C06F
:1007F0009092A5018092A401C091A401D091A5017D
:10080000C217D30781F03093A1012093A0018091FA
:100810009E0190919F019093AD018093AC019092C5
:100820009F0180929E018091A8019091A901C89F8B
:100830005001C99FB00CD89FB00C1124B092AF01E9
:10084000A092AE0100919E0110919F018091AA019A
:100850009091AB01BC01882777FD8095982F0E946D
:10086000E1122B013C018091A0019091A101C81BD4
:10087000D90BBE01882777FD8095982F0E94E11241
:100880009B01AC01C301B2010E946D132B013C011D
:100890008091AC019091AD01800F911FBC01882720
:1008A00077FD8095982F0E94E1129B01AC01C30156
:1008B000B2010E9446120E94AE127093A70160938B
:1008C000A601A60EB71EB0929D01A0929C01609158
:1008D0009A0170919B016F5F7F4F70939B016093B2
:1008E0009A010F5F1F4F10939F0100939E01A50176
:1008F0004B555F4F60E070E08EEC91E00E945D0729
:1009000080919C0190919D0145EA50E0481B590B54
:1009100061E070E08EEC91E00E945D078091A4019F
:100920009091A5019093A3018093A20108CF85E047
:100930000E948D0E892B31F586E00E948D0E892B49
:1009400009F587E00E948D0E892BE1F460E004E058
:1009500011E0232D422D86EB91E00E94830BDF9165
:10096000CF911F910F91FF90EF90DF90CF90BF90AC
:10097000AF909F908F907F906F905F904F903F903F
:100980002F90089561E0E3CF8FEF9FEF9093A50143
:100990008093A40131CF121613061CF488E090E076
:1009A000F5CF88EF9FEFF2CFCF92DF92EF92FF92D9
:1009B00080ED91E00E94270680ED91E00E942E06D6
:1009C0006DE071E080ED91E00E943D110E941D09F3
:1009D00086EB91E00E94800C811128C08EE0C82E29
:1009E000D12CE12CF12CC092B601D092B701E0924B
:1009F000B801F092B90180ED91E00E94270680EDE8
:100A000091E00E942E0665E171E080ED91E00E9488
:100A10003D118091C501811117C0C092B601D092DD
:100A2000B701E092B801F092B9010EC080ED91E0FB
:100A30000E942E0680ED91E00E94270667E271E099
:100A400080ED91E00E943D1181E090E0A0E0B0E0F7
:100A50008093040190930501A0930601B0930701D0
:100A6000FF90EF90DF90CF900895809104019091D6
:100A70000501A0910601B09107010197A105B105FB
:100A800011F40E945E018091040190910501A091F2
:100A90000601B09107010297A105B10511F40E946A
:100AA00084038091040190910501A0910601B09109
:100AB00007010797A105B10511F40E94D4048091A4
:100AC000040190910501A0910601B09107018534C0
:100AD0009105A105B10581F440E050E060E070E0CF
:100AE0008EEC91E00E945D0740E050E061E070E034
:100AF0008EEC91E00C945D07089588E090E0A0E012
:100B0000B0E08093B6019093B701A093B801B09381
:100B1000B9011092C1011092C2011092C30110924A
:100B2000C4010895CF93DF93EC0160E08E810E94B1
:100B3000570E81E090E00E944D0D61E08E810E9491
:100B4000570E81E090E00E944D0D60E08E810E9482
:100B5000570E84E690E0DF91CF910C944D0DEF920B
:100B6000FF920F931F93CF93DF938C01C0E0D0E0EF
:100B7000E62EF12CB7010C2E02C0759567950A94EC
:100B8000E2F76170F801EC0FFD1F87810E94570E9C
:100B90002196C430D10571F7C801DF91CF911F9123
:100BA0000F91FF90EF900C949205EF92FF920F93AC
:100BB0001F93CF93DF938C01C0E0D0E0E62EF12CA1
:100BC000B7010C2E02C0759567950A94E2F7617023
:100BD000F801EC0FFD1F87810E94570E2196C83047
:100BE000D10571F7C801DF91CF911F910F91FF904F
:100BF000EF900C9492051F93CF93DF93EC01162F87
:100C0000642F8C810E94570E8D818F3F19F060E018
:100C10000E94570E8F85612F84FF06C0CE01DF91A1
:100C2000CF911F910C94D50570E084E07595679580
:100C30008A95E1F7CE010E94AF05612FCE01DF91C9
:100C4000CF911F910C94AF0540E00C94FB0561E03F
:100C50000E94240680ED97E00C944D0D62E00E9406
:100C6000240680ED97E00C944D0D443008F043E0ED
:100C7000FC012389421710F04FEF420FFC01E40FF3
:100C8000F11D2489260F2068622F0C942406FC0194
:100C90006089262F2460208B6C600C9424060F93AF
:100CA0001F93CF93DF93EC01423018F08F8588605B
:100CB0008F874B8B1C8A80E48D8B6E8B70E0605C21
:100CC0007F4F6F8B222329F0413019F48F85846088
:100CD0008F8761E08C810E941E0E8D818F3F19F0FD
:100CE00061E00E941E0E61E08E810E941E0E00E0F7
:100CF00010E08F8584FF03C088E090E002C084E0AC
:100D000090E00817190754F4FE01E00FF11F61E0AD
:100D100087810E941E0E0F5F1F4FEBCF80E593EC83
:100D20000E944D0D60E08C810E94570E60E08E8124
:100D30000E94570E8D818F3F19F060E00E94570E80
:100D40006F8564FD1DC063E0CE010E94AF0584E99C
:100D500091E10E944D0D63E0CE010E94AF0584E950
:100D600091E10E944D0D63E0CE010E94AF0586E93E
:100D700090E00E944D0D62E0CE010E94AF0516C0CA
:100D80006062CE010E94240684E991E10E944D0D2B
:100D90006F856062CE010E94240686E990E00E9481
:100DA0004D0D6F856062CE010E9424066F856062E2
:100DB000CE010E94240684E0888BCE010E94470663
:100DC000CE010E94270682E0898B66E0CE01DF918A
:100DD000CF911F910F910C9424068F92AF92CF92D6
:100DE000EF920F93CF93DF93CDB7DEB7FC017A85F7
:100DF0005B853C85138212828CE391E09183808332
:100E00006483458326830783E086C186A286838622
:100E100074875587368780E1878720E041E060E16D
:100E2000CF01DF91CF910F91EF90CF90AF908F9046
:100E30000C944F0641E00E94FB0581E090E008958C
:100E4000CF92DF92EF92FF920F931F93CF93DF9396
:100E5000C0E5D1E088E4E82E81E0F82E00E411E05E
:100E6000C880229661E08C2D0E941E0EF701D08072
:100E7000F2E0EF0EF11C61E08D2D0E941E0E61E08C
:100E80008C2D0E94570E61E070E08D2D0E94950D13
:100E9000F80180810E5F1F4F60E070E00E94950DA9
:100EA000F1E0C835DF07E1F6DF91CF911F910F9197
:100EB000FF90EF90DF90CF9008950F931F93CF9303
:100EC000DF938B01EA01000F111F4F3F510509F01D
:100ED0003CF441308FEF58078CF057FF03C010C02F
:100EE000CFEFD0E0F801E05BFE4F61E080810E942F
:100EF000570EF801E85BFE4FBE0110C0C1E0DFEF06
:100F0000F801E05BFE4F60E080810E94570E66278B
:100F100077276C1B7D0BF801E85BFE4F8081DF912A
:100F2000CF911F910F910C94950DFC01EE0FFF1FB7
:100F3000E85AFE4F80810C94810D1F93CF93DF936D
:100F4000162FD82FDD0FDD0FDD0FC0E0612F8C2FA6
:100F50008D0F0E941E0ECF5FC830C1F7DF91CF9179
:100F60001F9108958F92AF92CF92EF920F9387E1E6
:100F70008F9386E18F9385E18F9324E1822E33E175
:100F8000A32E42E1C42E51E1E52E00E12CE14BE11C
:100F90006AE180ED91E00E94ED068EEC91E00E9406
:100FA00020078DEC91E00E948B088CEC91E00E9470
:100FB0008B080F900F900F908BEC91E00F91EF90BA
:100FC000CF90AF908F900C948B081F920F920FB61A
:100FD0000F9211240BB60F922F933F934F935F9371
:100FE0006F937F938F939F93AF93BF93EF93FF93F1
:100FF0008091EA018F5F8093EA012091EA0180915C
:10100000EB0190E0FC01EE0FFF1FE80FF91FE45128
:10101000FE4F818128130DC08091EB0190E0FC010F
:10102000EE0FFF1FE80FF91FE451FE4F828184BDD0
:101030005FC02091EA018091EB0190E0FC01EE0F8E
:10104000FF1FE80FF91FE451FE4F8181821708F05E
:101050004FC08091EB0190E0FC01EE0FFF1FE80F05
:10106000F91FE451FE4F808186FF0FC08091EB0194
:1010700090E0FC01EE0FFF1FE80FF91FE451FE4F57
:10108000808160E08F730E94570E8091EB018F5F2B
:101090008093EB011092EA0114BC8091EB0188234C
:1010A00009F18091EB018930E8F48091EB0190E047
:1010B000FC01EE0FFF1FE80FF91FE451FE4F808186
:1010C00086FF16C08091EB0190E0FC01EE0FFF1F40
:1010D000E80FF91FE451FE4F808161E08F730E9499
:1010E000570E06C08091EB01893010F01092EB0191
:1010F000FF91EF91BF91AF919F918F917F916F91F0
:101100005F914F913F912F910F900BBE0F900FBEAB
:101110000F901F9018952091E901283030F42F5F2F
:101120002093E901FC0120830895FC0110820895B9
:101130001F93CF93DF93EC01162F8091E80181116B
:1011400027C0E1EFF1E095E083E3DF0111979C9385
:101150008083339622E0E930F207B9F78FE180937C
:10116000ED011092EB011092EA0197B717BE25B579
:101170002B7F25BD25B5226025BD25B52E7F25BD3C
:1011800014BC80E486BF906497BF81E08093E8013F
:101190008881882399F061E0812F0E941E0E2881AA
:1011A00030E0F901EE0FFF1FE20FF31FE451FE4F95
:1011B0001F739081907C912B906490838881DF9144
:1011C000CF911F9108950097B9F1029759F448E71C
:1011D00050E060E070E08EEC91E00E945D0748E82E
:1011E0005FEF0AC048E85FEF60E070E08EEC91E0EE
:1011F0000E945D0748E750E061E070E08EEC91E00E
:101200000E945D0781E00E948D0E892BD9F782E054
:101210000E948D0E892BB1F768EC70E080E090E0C1
:101220000E94270D81E00E948D0E892BD9F382E068
:101230000E948D0E892BB1F3089544EC5FEF60E0BE
:1012400070E08EEC91E00E945D0748E85FEF61E09E
:1012500070E08EEC91E00E945D076CE474E080E049
:1012600090E00E94270D48E750E060E070E08EECCF
:1012700091E00E945D0748E85FEF61E070E08EEC6E
:1012800091E00E945D0781E00E948D0E892BD9F7C5
:1012900082E00E948D0E892BB1F781E00E948D0EB5
:1012A000892BD9F382E00E948D0E892BB1F308952A
:1012B000CF93DF93EC0123E030E040E050E060E0CA
:1012C00070E0CB010E942A126115710531F4888506
:1012D000882389F3DF91CF9108956130710531F44E
:1012E0008985882341F381E090E008C06230710570
:1012F00011F78A858823F9F282E090E0DF91CF919F
:101300000C94E3080F931F93CF93DF9380E00E9428
:10131000810D8C0181E00E94810DEC0182E00E9430
:10132000810DC017D1077CF431E020E008171907C0
:1013300044F0832F922FDF91CF911F910F910C9446
:10134000E30830E0F6CFC817D9071CF430E020E0FE
:10135000F0CF32E0FCCFFC018085681306C08185A8
:10136000481303C081E09285291380E00895CF934C
:10137000DF93EC014B855C856D857E8541305105A1
:101380006105710519F482E090E08BC0423051058F
:101390006105710541F481E090E00E94E30821E0DD
:1013A00041E061E09DC0433051056105710519F4CC
:1013B00081E090E027C0443051056105710531F4AA
:1013C00081E090E00E94E30820E01FC04530510515
:1013D0006105710519F481E090E020C046305105A7
:1013E0006105710519F482E090E0D7CF47305105CF
:1013F0006105710541F2483051056105710539F407
:1014000082E090E00E94E30821E041E068C04930BA
:1014100051056105710531F480E090E00E94E30818
:1014200020E0BECF4A30510561057105E1F24B3035
:1014300051056105710509F4BBCF4C3051056105BB
:10144000710551F34D3051056105710521F24E30A2
:1014500051056105710509F4ABCF4F3051056105A8
:101460007105D1F2403151056105710509F4B3CF21
:10147000413151056105710509F4B5CF423151057E
:101480006105710509F4A7CF433151056105710567
:1014900009F48ECF443151056105710539F480E0BE
:1014A00090E00E94E30821E040E07BCF4531510508
:1014B0006105710519F480E090E06FCF4631510568
:1014C0006105710509F49CCF47315105610571052E
:1014D00061F482E090E00E94E30821E040E060E0F7
:1014E000CE01DF91CF910C94AB09483151056105D4
:1014F000710509F448CF493151056105710509F4B9
:1015000072CF4A3151056105710509F451CF4B3154
:1015100051056105710509F47FCF4C315105610515
:10152000710509F44DCF4D3151056105710509F47F
:1015300052CF80E0DF91CF910895CF93DF93EC01FC
:101540004B855C856D857E85413051056105710552
:1015500019F481E090E08CC04230510561057105BD
:1015600041F482E090E00E94E30821E041E061E084
:101570009DC0433051056105710519F482E090E08A
:1015800028C0443051056105710539F482E090E0CE
:101590000E94E30821E040E088C045305105610524
:1015A000710519F482E090E01FC0463051056105D5
:1015B000710519F481E090E0D6CF473051056105FF
:1015C000710539F2483051056105710531F481E04A
:1015D00090E00E94E30821E067C0493051056105B1
:1015E000710539F480E090E00E94E30821E040E0DA
:1015F000BECF4A30510561057105E1F24B3051050E
:101600006105710509F4BACF4C30510561057105CA
:1016100049F34D3051056105710521F24E305105F8
:101620006105710509F4AACF4F30510561057105B7
:10163000C9F2403151056105710509F4B3CF41315B
:1016400051056105710509F4B5CF423151056105B8
:10165000710509F4A7CF433151056105710509F4FE
:101660008DCF443151056105710531F480E090E082
:101670000E94E30820E07ACF4531510561057105EC
:1016800019F480E090E06FCF463151056105710596
:1016900009F49DCF473151056105710561F481E081
:1016A00090E00E94E30820E041E060E0CE01DF919D
:1016B000CF910C94AB09483151056105710509F4CE
:1016C00048CF493151056105710509F473CF4A319D
:1016D00051056105710509F451CF4B315105610583
:1016E000710509F47FCF4C3151056105710509F48D
:1016F0004DCF4D3151056105710509F453CF80E09F
:10170000DF91CF9108958F929F92AF92BF92CF9227
:10171000DF92EF92FF920F931F93CF93DF93EC0131
:10172000962EA42EB22E80ED91E00E942706988678
:10173000A986BA86CB84DC84ED84FE848FEFC81A38
:10174000D80AE80AF80ACB86DC86ED86FE86888110
:101750009981AA81BB810897A105B10529F5B1102E
:1017600005C089E090E0A0E0B0E006C0A11009C08B
:101770008AE090E0A0E0B0E088839983AA83BB83ED
:1017800013C085E490E0A0E0B0E0F801808391838D
:10179000A283B38380ED91E00E94270668E671E0A2
:1017A00080ED91E00E943D1188819981AA81BB81E1
:1017B0000E97A105B10519F4CE010E945809888140
:1017C0009981AA81BB810A97A105B10521F4CE01B7
:1017D0000E94B709882E88819981AA81BB810997C7
:1017E000A105B10521F4CE010E949D0A882E4881F1
:1017F00059816A817B814D3051056105710521F464
:10180000CE010E9482093BC0811039C080ED91E079
:101810000E94270680ED91E00E942E0664E771E0A9
:1018200080ED91E00E943D114B855C856D857E8544
:101830002AE030E080ED91E00E94F11185E490E033
:10184000A0E0B0E0F80180839183A283B383992064
:1018500031F06DE771E080ED91E00E943D11AA202A
:1018600031F06FE771E080ED91E00E943D11BB2007
:1018700031F061E871E080ED91E00E943D118B85CF
:101880009C85AD85BE8586349105A105B10598F08E
:1018900085E490E0A0E0B0E0F80180839183A2832A
:1018A000B38380ED91E00E94270663E871E080ED4C
:1018B00091E00E943D11F80180819181A281B38164
:1018C00085349105A105B10541F081E090E0A0E0EB
:1018D000B0E080839183A283B3830E94F70C6C8372
:1018E0007D838E839F83DF91CF911F910F91FF9016
:1018F000EF90DF90CF90BF90AF909F908F90089522
:10190000FC01408151816281738149505109610913
:1019100071094230510561057105E8F483859485AC
:10192000A585B685AC01BD01475051096109710912
:10193000423051056105710510F481E008958D3044
:101940009105A105B105C9F34297A109B109029713
:10195000A105B10590F380E008951F920F920FB694
:101960000F9211242F933F938F939F93AF93BF9325
:101970008091080290910902A0910A02B0910B0295
:101980003091070223E0230F2D3720F40196A11D8B
:10199000B11D05C026E8230F0296A11DB11D20939D
:1019A00007028093080290930902A0930A02B09361
:1019B0000B0280910C0290910D02A0910E02B09149
:1019C0000F020196A11DB11D80930C0290930D0290
:1019D000A0930E02B0930F02BF91AF919F918F9190
:1019E0003F912F910F900FBE0F901F9018952FB71A
:1019F000F894609108027091090280910A02909116
:101A00000B022FBF08953FB7F89480910C0290917C
:101A10000D02A0910E02B0910F0222B706B600FE91
:101A200005C02F3F19F00196A11DB11D3FBF6627CC
:101A3000782F892F9A2F620F711D811D911D42E011
:101A4000660F771F881F991F4A95D1F70895CF9287
:101A5000DF92EF92FF92CF93DF936B017C010E94A4
:101A6000030DEB01C114D104E104F10479F00E94EB
:101A7000030D6C1B7D0B683E7340A0F381E0C81A18
:101A8000D108E108F108C851DC4FECCFDF91CF91CC
:101A9000FF90EF90DF90CF900895019739F0880F75
:101AA000991F880F991F02970197F1F7089578946D
:101AB00083B7846083BF87B7816087BF1EBC8EB544
:101AC00082608EBD8EB581608EBD8FB581608FBD09
:101AD00085B5846085BD85B5806485BDEAE8F0E0A4
:101AE000808182608083808181608083EBE8F0E088
:101AF000808181608083329A319A309A379A1AB8FD
:101B000008958B3208F08B5287702091080190E481
:101B1000299F90011124822B87B9369A3699FECFDE
:101B200084B125B190E0922B08951F93CF93DF935A
:101B3000182FEB0161E00E941E0E209711F460E067
:101B400004C0CF3FD10539F461E0812FDF91CF91FF
:101B50001F910C94570EE12FF0E0EC54FF4F44918D
:101B600050E0FA013197EA30F105C0F5EA5BFF4F2A
:101B70000C94251483B7806183BFC1BF34C08FB577
:101B800080688FBDDBBDCABD2EC08FB580628FBDA2
:101B9000D9BDC8BD28C085B5806285BDC3BD23C081
:101BA00080918B00806880938B00D0938700C093D6
:101BB000860019C080918B00806280938B00D09347
:101BC0008500C09384000FC080918B008860809353
:101BD0008B00D0938300C093820005C0C038D1052C
:101BE0000CF0B2CFACCFDF91CF911F91089590E070
:101BF000FC013197EA30F10500F5E05BFF4F0C94F2
:101C000025148FB58F7702C08FB58F7D8FBD089556
:101C100085B58F7D85BD089583B78F7D83BF08957A
:101C200080918B008F7707C080918B008F7D03C0E0
:101C300080918B00877F80938B000895CF93DF93F3
:101C400090E0FC01E751FF4F2491FC01E25EFE4F62
:101C50008491882349F190E0880F991FFC01ED5889
:101C6000FE4FA591B4918D599E4FFC01C591D49121
:101C70009FB7611108C0F8948C91209582238C93B2
:101C8000888182230AC0623051F4F8948C91322FFB
:101C9000309583238C938881822B888304C0F894A9
:101CA0008C91822B8C939FBFDF91CF9108950F93DE
:101CB0001F93CF93DF931F92CDB7DEB7282F30E06D
:101CC000F901EC54FF4F8491F901E751FF4F149152
:101CD000F901E25EFE4F04910023C9F0882321F050
:101CE00069830E94F70D6981E02FF0E0EE0FFF1F7E
:101CF000ED59FE4FA591B4919FB7F8948C91611165
:101D000003C01095812301C0812B8C939FBF0F903E
:101D1000DF91CF911F910F910895CF93DF93282FDB
:101D200030E0F901EC54FF4F8491F901E751FF4F86
:101D3000D491F901E25EFE4FC491CC2391F0811160
:101D40000E94F70DEC2FF0E0EE0FFF1FED5AFE4F53
:101D5000A591B4912C912D2381E090E021F480E0B5
:101D600002C080E090E0DF91CF910895FC012485CE
:101D70003585F901E05CFF4F8081918132962081A9
:101D80003181805C9F4F821B930B60E470E00E9466
:101D9000D0130895FC0184859585FC01E05CFF4F1C
:101DA000408151813296208131814217530741F0A1
:101DB0000190F081E02DE80FF91F808190E00895F7
:101DC0008FEF9FEF0895FC0184859585FC01E05C11
:101DD000FF4F408151813296208131814217530754
:101DE00079F0A081B181A80FB91F8C912081318138
:101DF0002F5F3F4F2F7333273183208390E0089567
:101E00008FEF9FEF0895FC0181A1882329F0A48919
:101E1000B5898C9186FFFBCF11A20895CF93DF93F4
:101E2000FC0126853785D901A05CBF4F8D919C911F
:101E3000119701968F739927E901CE5BDF4F488197
:101E4000598184179507D9F30D90BC91A02DA20F4D
:101E5000B31F6C93A685B785A05CBF4F11969C936A
:101E60008E93A689B7892C9181E090E0078C02C0FF
:101E7000880F991F0A94E2F7282B2C9381E081A305
:101E80000488F589E02D80818064808381E090E082
:101E9000DF91CF91089508951F920F920FB60F9280
:101EA00011240BB60F922F933F934F938F939F93D1
:101EB000EF93FF935A991BC04CB1809160039091AE
:101EC000610301968F739927209162033091630318
:101ED0008217930769F0E0916003F0916103E05E7F
:101EE000FC4F4083909361038093600301C08CB1E9
:101EF000FF91EF919F918F914F913F912F910F9073
:101F00000BBE0F900FBE0F901F90189508951F9253
:101F10000F920FB60F9211240BB60F922F933F938F
:101F20004F938F939F93EF93FF9380919B0082FD3C
:101F30001CC040919C008091D8029091D9020196DA
:101F40008F7399272091DA023091DB028217930771
:101F500071F0E091D802F091D902E856FD4F40832C
:101F60009093D9028093D80202C080919C00FF9187
:101F7000EF919F918F914F913F912F910F900BBEB9
:101F80000F900FBE0F901F90189582E392E00E9471
:101F9000B60E892B11F00E944B0F80E192E00E9457
:101FA000B60E892B11F00C94860F08951F920F9294
:101FB0000FB60F9211240BB60F922F933F938F936E
:101FC0009F93EF93FF9320911C0330911D03809109
:101FD0001E0390911F032817390711F4559813C059
:101FE000E0911E03F0911F03E452FD4F2081809188
:101FF0001E0390911F0301968F73992790931F03DF
:1020000080931E032CB9FF91EF919F918F913F9187
:102010002F910F900BBE0F900FBE0F901F90189531
:102020001F920F920FB60F9211240BB60F922F939F
:102030003F938F939F93EF93FF932091940230915E
:10204000950280919602909197022817390731F4F2
:1020500080919A008F7D80939A0014C0E09196023F
:10206000F0919702EC5AFD4F208180919602909159
:10207000970201968F739927909397028093960207
:1020800020939C00FF91EF919F918F913F912F9111
:102090000F900BBE0F900FBE0F901F9018951092CF
:1020A00035021092340288EE93E0A0E0B0E0809315
:1020B000360290933702A0933802B09339022CE88D
:1020C00031E0309333022093320240E253E05093E8
:1020D0003F0240933E024CED52E050934102409348
:1020E000400240E950E0509343024093420249E2EB
:1020F00050E050934502409344024BE250E050932D
:102100004702409346024AE250E05093490240930E
:10211000480245E950E050934B0240934A024CE29A
:1021200050E050934D0240934C02E4E0E0934E02A5
:1021300073E070934F0267E06093500255E0509354
:10214000510241E040935202109213021092120287
:102150008093140290931502A0931602B093170275
:10216000309311022093100288E992E090931D02AF
:1021700080931C0284E592E090931F0280931E02DC
:1021800088E990E0909321028093200289E990E011
:1021900090932302809322028BE990E09093250292
:1021A000809324028AE990E090932702809326028C
:1021B0008DE990E090932902809328028CE990E0C9
:1021C00090932B0280932A02E0932C0270932D02AD
:1021D00060932E0250932F02409330020895089589
:1021E0000E94570D0E94EF100E942001C5ECDFE015
:1021F0000E9435052097E1F30E94C50FF9CFCF92D9
:10220000DF92EF92FF920F931F93CF93DF936C01B6
:102210007A01EB01E60EF71E00E010E0CE15DF05B7
:1022200061F06991D601ED91FC910190F081E02D72
:10223000C6010995080F191FF1CFC801DF91CF9191
:102240001F910F91FF90EF90DF90CF90089561154F
:10225000710581F0DB010D900020E9F7AD014150DF
:102260005109461B570BDC01ED91FC910280F38173
:10227000E02D099480E090E008950C942711DC0192
:10228000ED91FC910190F081E02D09948F929F9245
:10229000AF92BF92CF92DF92EF92FF920F931F9374
:1022A000CF93DF93CDB7DEB7A1970FB6F894DEBF1B
:1022B0000FBECDBF7C01C42EE52FCB01D22E19A2BB
:1022C00021E02D1510F02AE0D22E8E010F5D1F4F58
:1022D0008D2C912CA12CB12C6C2D7E2FA50194015D
:1022E0000E94E4138C2DD29E8019112401501109F3
:1022F0008A3014F4805D01C0895CF8018083211567
:1023000031054105510521F0C22EE32FCA01E4CF6A
:10231000B801C7010E942711A1960FB6F894DEBF3D
:102320000FBECDBFDF91CF911F910F91FF90EF9026
:10233000DF90CF90BF90AF909F908F900895CF92F5
:10234000DF92EF92FF920F931F93CF93DF93EC01F5
:102350006A017B012115310579F4E881F981019049
:10236000F081E02D642FDF91CF911F910F91FF90AD
:10237000EF90DF90CF9009942A303105E9F477FF90
:102380001AC06DE20E943F118C0144275527BA0103
:102390004C195D096E097F092AE0CE010E944611A1
:1023A000800F911FDF91CF911F910F91FF90EF90C0
:1023B000DF90CF9008952AE0B701A601CE01DF910A
:1023C000CF911F910F91FF90EF90DF90CF900C94E1
:1023D00046119A01AB01662757FD6095762F0C9444
:1023E0009F112115310541F4DC01ED91FC91019023
:1023F000F081E02D642F09940C944611009729F088
:10240000BC0180E090E00C94AF140895CF93DF936B
:1024100000D000D0CDB7DEB79B01AC0161157105CE
:102420008105910569F069833A834B835C830E943F
:10243000AB1429813A814B815C810E94061403C050
:1024400060E070E0CB010F900F900F900F90DF9144
:10245000CF910895CF92DF92EF92FF926B017C01B2
:10246000621773078407950764F4CA01B9016C19F0
:102470007D098E099F090E9406126C0D7D1D8E1D1F
:102480009F1DFF90EF90DF90CF9008950CD0EBC090
:10249000E3D040F0DAD030F021F45F3F19F0CCC047
:1024A000511115C1CFC0F0D098F39923C9F355232A
:1024B000B1F3951B550BBB27AA2762177307840737
:1024C00038F09F5F5F4F220F331F441FAA1FA9F3ED
:1024D00033D00E2E3AF0E0E830D091505040E695DF
:1024E000001CCAF729D0FE2F27D0660F771F881F40
:1024F000BB1F261737074807AB07B0E809F0BB0B2F
:10250000802DBF01FF2793585F4F2AF09E3F510552
:1025100068F092C0DCC05F3FECF3983EDCF3869538
:1025200077956795B795F7959F5FC9F7880F911DC8
:102530009695879597F90895E1E0660F771F881FB4
:10254000BB1F621773078407BA0720F0621B730B67
:10255000840BBA0BEE1F88F7E095089504D06894B9
:10256000B111B5C0089598D088F09F5790F0B92F59
:102570009927B751A0F0D1F0660F771F881F991FD8
:102580001AF0BA95C9F712C0B13081F09FD0B1E00E
:1025900008959CC0672F782F8827B85F39F0B93F1E
:1025A000CCF3869577956795B395D9F73EF49095DA
:1025B0008095709561957F4F8F4F9F4F0895E89458
:1025C00009C097FB3EF490958095709561957F4F7B
:1025D0008F4F9F4F9923A9F0F92F96E9BB27939529
:1025E000F695879577956795B795F111F8CFFAF439
:1025F000BB0F11F460FF1BC06F5F7F4F8F4F9F4F6A
:1026000016C0882311F096E911C0772321F09EE8C7
:10261000872F762F05C0662371F096E8862F70E02D
:1026200060E02AF09A95660F771F881FDAF7880F07
:102630009695879597F9089597F99F6780E870E0D8
:1026400060E008959FEF80EC089500240A94161628
:10265000170618060906089500240A941216130690
:10266000140605060895092E0394000C11F488231E
:1026700052F0BB0F40F4BF2B11F460FF04C06F5F3A
:102680007F4F8F4F9F4F089557FD9058440F551F10
:1026900059F05F3F71F04795880F97FB991F61F0E4
:1026A0009F3F79F087950895121613061406551F5B
:1026B000F2CF4695F1DF08C0161617061806991FC7
:1026C000F1CF86957105610508940895E894BB27BC
:1026D00066277727CB0197F908950BD0C4CFB5DFD4
:1026E00028F0BADF18F0952309F0A6CFABCF11245C
:1026F000EECFCADFA0F3959FD1F3950F50E0551FA1
:10270000629FF001729FBB27F00DB11D639FAA2746
:10271000F00DB11DAA1F649F6627B00DA11D661F95
:10272000829F2227B00DA11D621F739FB00DA11DB6
:10273000621F839FA00D611D221F749F3327A00D70
:10274000611D231F849F600D211D822F762F6A2F0C
:1027500011249F5750408AF0E1F088234AF0EE0F91
:10276000FF1FBB1F661F771F881F91505040A9F79E
:102770009E3F510570F060CFAACF5F3FECF3983ECB
:10278000DCF3869577956795B795F795E7959F5F05
:10279000C1F7FE2B880F911D9695879597F908959F
:1027A00097FB072E16F4009407D077FD09D00E94FE
:1027B0003A1407FC05D03EF4909581959F4F0895FB
:1027C000709561957F4F0895A1E21A2EAA1BBB1B3D
:1027D000FD010DC0AA1FBB1FEE1FFF1FA217B307ED
:1027E000E407F50720F0A21BB30BE40BF50B661F03
:1027F000771F881F991F1A9469F7609570958095C7
:1028000090959B01AC01BD01CF010895052E97FB6A
:102810001EF400940E941D1457FD07D00E94E4137B
:1028200007FC03D04EF40C941D1450954095309540
:1028300021953F4F4F4F5F4F08959095809570952C
:1028400061957F4F8F4F9F4F0895EE0FFF1F0590AB
:10285000F491E02D09940E944E14A59F900DB49F11
:10286000900DA49F800D911D112408950790F6915D
:10287000E02D0994AA1BBB1B51E107C0AA1FBB1F77
:10288000A617B70710F0A61BB70B881F991F5A95FC
:10289000A9F780959095BC01CD010895A29FB00144
:1028A000B39FC001A39F700D811D1124911DB29F84
:1028B000700D811D1124911D08958F929F92AF92EA
:1028C000BF92CF92DF92EF92FF92CF93DF93EC0112
:1028D000688179818A819B816115710581059105E6
:1028E00021F464E279ED8BE597E02DE133EF41E0EF
:1028F00050E00E94061449015A019B01AC01A7EA6D
:10290000B1E40E942B146B017C01ACEEB4EFA50185
:1029100094010E94BB14C60ED71EE81EF91EF7FED6
:1029200006C081E0C81AD108E10880E8F80AC88228
:10293000D982EA82FB82C701B6019F77DF91CF91EE
:10294000FF90EF90DF90CF90BF90AF909F908F90CF
:1029500008950C945D1480E091E00C945D146093F4
:102960000001709301018093020190930301089587
:10297000B7FF0C942B140E942B14821B930B089509
:04298000F894FFCFF9
:1029840001000000010000000150004400545552B1
:102994004E494E47005455524E2041524F554E44D5
:1029A4002046414C5345005455524E2041524F55F8
:1029B4004E44205452554500000000001A07FF10F1
:1029C40005000400010000001D001E002400250075
:1029D4001800190026002700FFFFFFFFFFFFFFFF7D
:1029E400FFFFFFFF06000700535441525420455295
:1029F400524F5200494E56414C4944200066006CE7
:102A0400007200444F4E4500000000000E0FFF10FE
:082A1400B60EE30ECA0E030F1B
:00000001FF
