:100000000C94C4000C94F3000C94F3000C94F300D3
:100010000C94F3000C94F3000C94F3000C94F30094
:100020000C94F3000C94F3000C9474070C94F300FC
:100030000C94F3000C94F3000C94F3000C94F30074
:100040000C9472080C94F3000C94C70A0C94510B96
:100050000C94F3000C94F3000C94F3000C94F30054
:100060000C94F3000C94F3000C94F3000C94F30044
:100070000C94F3000C94F3000C94020B0C948B0B77
:100080000C94F3000C94F3000C94F3003509690907
:100090003A0940094609690969094B0955095F0987
:1000A000870998097C097F098309980998098B09B0
:1000B0008F0993090000000000000000000000000C
:1000C0000000000000000000000000000000000030
:1000D0000103040500000505090A000000000000F6
:1000E0000000000000000000000102040810204091
:1000F0008001020408102040800102040810204002
:1001000080010204081020408001020408102040F1
:100110008001020408102040800102040810040439
:10012000040404040404030303030303030301019D
:10013000010101010101020202020202020205059F
:100140000505050505050606060606060606070753
:100150000707070000390036003300300021002077
:1001600000630000003B00380035003200230062CD
:1001700000650000003A00370034003100220061C1
:10018000006400004107CA0B11241FBECFEFD0E16D
:10019000DEBFCDBF11E0A0E0B1E0E4EBFFE100E0A5
:1001A0000BBF02C007900D92A237B107D9F723E029
:1001B000A2E7B1E001C01D92A033B207E1F711E060
:1001C000C8E8D1E000E006C022970109FE010BBF9C
:1001D0000E944E0FC438D10780E00807A9F70E949B
:1001E0006B0C0C94D80F0C9400006115710581F014
:1001F000DB010D900020E9F7AD0141505109461B8C
:10020000570BDC01ED91FC910280F381E02D099404
:1002100080E090E0089560E070E080E090E00E946F
:100220002C0760E070E081E090E00E942C0720E065
:1002300042E060E18CE991E00E94DE0563E270E05B
:1002400089E991E00E9427086FE170E088E991E078
:100250000E94270862E270E087E991E00E94270887
:100260008CE991E00E94C8058CE991E00E94CF05DD
:1002700080E00E94FC080C94560D2F923F924F9202
:100280005F926F927F928F929F92AF92BF92CF9226
:10029000DF92EF92FF920F931F93CF93DF9343E090
:1002A000242E312C88248394912C62E0C62ED12CEC
:1002B000E12CF12C8091040190910501A09106019F
:1002C000B09107010197A105B10509F0D1C186E000
:1002D00090E00E94240797FD039695958795959544
:1002E0008795909383018093820187E090E00E943C
:1002F000240797FD039695958795959587959093F7
:1003000085018093840181E00E94080A90938D0109
:1003100080938C0182E00E94080A90938B01809365
:100320008A0140918C0150918D0120917C01309186
:100330007D01452B41F0892B09F485C110927F0185
:1003400010927E0107C0892B09F484C190927F012D
:1003500080927E0100917E0110917F0102171307A8
:1003600081F030937B0120937A0180917801909104
:100370007901909387018093860190927901809210
:1003800078018091720190917301089FE001099FAB
:10039000D00D189FD00D112480918E0190918F0166
:1003A000C80FD91FD0938F01C0938E018091820115
:1003B00090918301089F5001099FB00C189FB00CC9
:1003C0001124B0928901A0928801809184019091BA
:1003D0008501BC01882777FD8095982F0E94F90D33
:1003E0002B013C0180917A0190917B01081B190B34
:1003F000B801882777FD8095982F0E94F90D9B0101
:10040000AC01C301B2010E94850E2B013C01809119
:100410008601909187012091780130917901820FB6
:10042000931FBC01882777FD8095982F0E94F90DB6
:100430009B01AC01C301B2010E945E0D0E94C60D7A
:100440007093810160938001A60EB71EAC0EBD1E95
:1004500027E9A216B1041CF086E990E00CC09AE6E8
:10046000A9169FEFB9062CF0B0927701A092760101
:1004700006C08AE69FEF9093770180937601809182
:100480007401909175018639910509F048C08CE995
:1004900091E00E94C80569E071E08CE991E00E945A
:1004A000A20C60918201709183014AE050E08CE9D6
:1004B00091E00E944E0D6BE071E08CE991E00E94AA
:1004C000A20C60918401709185014AE050E08CE9B2
:1004D00091E00E944E0D6DE071E08CE991E00E9488
:1004E000A20C60918C0170918D014AE050E08CE982
:1004F00091E00E944E0D6DE071E08CE991E00E9468
:10050000A20C60918A0170918B014AE050E08CE965
:1005100091E00E944E0D109275011092740180912D
:100520007401909175010196909375018093740107
:10053000809178019091790101969093790180934F
:10054000780140917601509177014A565F4F60E003
:1005500070E08AE991E00E94EC068091760190912A
:10056000770146E950E0481B590B61E070E08AE9E9
:1005700091E00E94EC0680917E0190917F01909322
:100580007D0180937C0185E00E94080A892B31F46B
:1005900087E00E94080AC1E0892B09F0C0E083E0EF
:1005A0000E94080A892B41F484E00E94080A892BE2
:1005B00019F4CC2309F47ECE0E94BC08209190014E
:1005C000309191018901222717FD2095322F601B60
:1005D000710B820B930B6F3B7A408105910548F0BC
:1005E000C0920401D0920501E0920601F092070149
:1005F00006C06FE071E08CE991E00E94A20C8CE9EA
:1006000091E00E94C805CC2331F06AE171E08CE9E9
:1006100091E00E94A20C84E00E94080A892B31F02C
:100620006CE171E08CE991E00E94A20C83E00E94F1
:10063000080A892B09F43ECE6EE171E08CE991E065
:100640000E94A20C37CE8FEF9FEF90937F01809393
:100650007E0180CE81E080939201121613062CF465
:1006600030927F0120927E0175CE8DEF9FEFEDCF0E
:10067000DF91CF911F910F91FF90EF90DF90CF907E
:10068000BF90AF909F908F907F906F905F904F90B2
:100690003F902F9008952F923F924F925F926F92CA
:1006A0007F928F929F92AF92BF92CF92DF92EF9202
:1006B000FF920F931F93CF93DF9300D000D01F9230
:1006C000CDB7DEB70E94BC086B017C0119821B828A
:1006D0001A8288248394912CA6E92A2E312C0E9418
:1006E000BC086C197D098E099F0966397105810561
:1006F000910508F0FCC083E00E94080A892B11F0E4
:1007000081E08A8384E00E94080A892B11F091E03D
:100710009B8385E00E94080A892B09F03AC187E093
:100720000E94080A892B09F034C1198286E090E002
:100730000E94240797FD0396959587959595879533
:10074000909383018093820187E090E00E942407C8
:1007500097FD039695958795959587959093850137
:100760008093840181E00E94080A90938D01809318
:100770008C0182E00E94080A90938B0180938A0189
:1007800040918C0150918D0120917C0130917D012F
:10079000452B41F0892B09F4FFC010927F01109284
:1007A0007E0107C0892B09F4FEC090927F018092E0
:1007B0007E0140917E0150917F014217530781F0E5
:1007C00030937B0120937A01809178019091790197
:1007D00090938701809386019092790180927801AD
:1007E0008091820190918301489F5001499FB00CF4
:1007F000589FB00C1124B0928901A09288010091F9
:100800007801109179018091840190918501BC015A
:10081000882777FD8095982F4C835D830E94F90D82
:100820002B013C0180917A0190917B014C815D818B
:10083000481B590BBA01882777FD8095982F0E9495
:10084000F90D9B01AC01C301B2010E94850E2B0181
:100850003C018091860190918701800F911FBC011E
:10086000882777FD8095982F0E94F90D9B01AC0198
:10087000C301B2010E945E0D0E94C60D70938101FA
:1008800060938001A60EB71EB0927701A092760108
:1008900060917401709175016F5F7F4F7093750166
:1008A000609374010F5F1F4F1093790100937801DB
:1008B000A5014A565F4F60E070E08AE991E00E942E
:1008C000EC068091760190917701A101481B590BAC
:1008D00061E070E08AE991E00E94EC0680917E017F
:1008E00090917F0190937D0180937C01F8CEF981F6
:1008F000FF2331F060E271E08CE991E00E94F500A5
:100900008A81882331F066E271E08CE991E00E94EF
:10091000F5009B81992331F06BE271E08CE991E065
:100920000E94F5008091930190919401A09195010E
:10093000B09196010196A11DB11D809393019093F2
:100940009401A0939501B093960185E490E0A0E016
:10095000B0E08093040190930501A0930601B09349
:1009600007010F900F900F900F900F90DF91CF9194
:100970001F910F91FF90EF90DF90CF90BF90AF90BD
:100980009F908F907F906F905F904F903F902F90AF
:100990000895E1E0E983CACEEFEFFFEFF0937F0126
:1009A000E0937E0106CF121613061CF4E3E0F0E09C
:1009B000F5CF8DEF9FEF90937F0180937E01F9CE6D
:1009C0008091040190910501A0910601B091070169
:1009D0000197A105B105D9F48091930190919401FB
:1009E000A0919501B09196010297A105B10569F416
:1009F00085E490E0A0E0B0E08093040190930501CD
:100A0000A0930601B093070102C00E943D018091AE
:100A1000040190910501A0910601B0910701029790
:100A2000A105B10511F40E944B038091040190913E
:100A30000501A0910601B091070185349105A1053A
:100A4000B10581F440E050E060E070E08AE991E0B7
:100A50000E94EC0640E050E061E070E08AE991E03D
:100A60000C94EC060895CF93DF93EC0160E08E8147
:100A70000E94D20981E090E00E94C80861E08E8166
:100A80000E94D20981E090E00E94C80860E08E8157
:100A90000E94D20984E690E0DF91CF910C94C808BF
:100AA000EF92FF920F931F93CF93DF938C01C0E0DF
:100AB000D0E0E62EF12CB7010C2E02C0759567959B
:100AC0000A94E2F76170F801EC0FFD1F87810E9424
:100AD000D2092196C430D10571F7C801DF91CF91B9
:100AE0001F910F91FF90EF900C943305EF92FF92BE
:100AF0000F931F93CF93DF938C01C0E0D0E0E62EDD
:100B0000F12CB7010C2E02C0759567950A94E2F797
:100B10006170F801EC0FFD1F87810E94D2092196B8
:100B2000C830D10571F7C801DF91CF911F910F91A6
:100B3000FF90EF900C9433051F93CF93DF93EC015C
:100B4000162F642F8C810E94D2098D818F3F19F05E
:100B500060E00E94D2098F85612F84FF06C0CE011C
:100B6000DF91CF911F910C94760570E084E075952C
:100B700067958A95E1F7CE010E945005612FCE015D
:100B8000DF91CF911F910C94500540E00C949C058F
:100B900061E00E94C50580ED97E00C94C80862E012
:100BA0000E94C50580ED97E00C94C808FC0160899F
:100BB000262F2460208B6C600C94C5050F931F9327
:100BC000CF93DF93EC01423018F08F8588608F87D8
:100BD0004B8B1C8A80E48D8B6E8B70E0605C7F4F4A
:100BE0006F8B222329F0413019F48F8584608F8721
:100BF00061E08C810E9499098D818F3F19F061E03D
:100C00000E94990961E08E810E94990900E010E03C
:100C10008F8584FF03C088E090E002C084E090E00C
:100C20000817190754F4FE01E00FF11F61E08781F6
:100C30000E9499090F5F1F4FEBCF80E593EC0E9454
:100C4000C80860E08C810E94D20960E08E810E9419
:100C5000D2098D818F3F19F060E00E94D2096F8523
:100C600064FD1DC063E0CE010E94500584E991E15E
:100C70000E94C80863E0CE010E94500584E991E11A
:100C80000E94C80863E0CE010E94500586E990E00A
:100C90000E94C80862E0CE010E94500516C0606242
:100CA000CE010E94C50584E991E10E94C8086F85C4
:100CB0006062CE010E94C50586E990E00E94C808E6
:100CC0006F856062CE010E94C5056F856062CE01AE
:100CD0000E94C50584E0888BCE010E94D605CE0116
:100CE0000E94C80582E0898B66E0CE01DF91CF913A
:100CF0001F910F910C94C5058F92AF92CF92EF92F6
:100D00000F93CF93DF93CDB7DEB7FC017A855B8578
:100D10003C851382128285E391E091838083648312
:100D2000458326830783E086C186A28683867487EF
:100D30005587368780E1878720E041E060E1CF0179
:100D4000DF91CF910F91EF90CF90AF908F900C9457
:100D5000DE0541E00E949C0581E090E00895CF927D
:100D6000DF92EF92FF920F931F93CF93DF93C9E42B
:100D7000D1E081E4E82E81E0F82E09E311E0C8809B
:100D8000229661E08C2D0E949909F701D080F2E053
:100D9000EF0EF11C61E08D2D0E94990961E08C2D10
:100DA0000E94D20961E070E08D2D0E941009F801C7
:100DB00080810E5F1F4F60E070E00E941009F1E03B
:100DC000C135DF07E1F6DF91CF911F910F91FF90C1
:100DD000EF90DF90CF9008950F931F93CF93DF9301
:100DE0008B01EA01000F111F4F3F510509F03CF440
:100DF00041308FEF58078CF057FF03C010C0CFEF82
:100E0000D0E0F801E75BFE4F61E080810E94D209EB
:100E1000F801EF5BFE4FBE0110C0C1E0DFEFF8014B
:100E2000E75BFE4F60E080810E94D209662777274A
:100E30006C1B7D0BF801EF5BFE4F8081DF91CF9142
:100E40001F910F910C941009FC01EE0FFF1FEF5A38
:100E5000FE4F80810C94FC081F93CF93DF93162FD5
:100E6000D82FDD0FDD0FDD0FC0E0612F8C2F8D0F30
:100E70000E949909CF5FC830C1F7DF91CF911F91D0
:100E800008958F92AF92CF92EF920F9387E18F9355
:100E900086E18F9385E18F9324E1822E33E1A32EA7
:100EA00042E1C42E51E1E52E00E12CE14BE16AE183
:100EB0008CE991E00E947C068AE991E00E94AF06ED
:100EC00089E991E00E941A0888E991E00E941A08D5
:100ED0000F900F900F9087E991E00F91EF90CF90D6
:100EE000AF908F900C941A081F920F920FB60F922A
:100EF00011240BB60F922F933F934F935F936F93F1
:100F00007F938F939F93AF93BF93EF93FF938091C2
:100F1000B6018F5F8093B6012091B6018091B70131
:100F200090E0FC01EE0FFF1FE80FF91FE854FE4FA1
:100F3000818128130DC08091B70190E0FC01EE0F74
:100F4000FF1FE80FF91FE854FE4F828184BD5FC088
:100F50002091B6018091B70190E0FC01EE0FFF1FD8
:100F6000E80FF91FE854FE4F8181821708F04FC047
:100F70008091B70190E0FC01EE0FFF1FE80FF91F11
:100F8000E854FE4F808186FF0FC08091B70190E04A
:100F9000FC01EE0FFF1FE80FF91FE854FE4F8081A0
:100FA00060E08F730E94D2098091B7018F5F8093B8
:100FB000B7011092B60114BC8091B701882309F1E2
:100FC0008091B7018930E8F48091B70190E0FC018D
:100FD000EE0FFF1FE80FF91FE854FE4F808186FFD8
:100FE00016C08091B70190E0FC01EE0FFF1FE80FE3
:100FF000F91FE854FE4F808161E08F730E94D2098F
:1010000006C08091B701893010F01092B701FF91AE
:10101000EF91BF91AF919F918F917F916F915F9170
:101020004F913F912F910F900BBE0F900FBE0F90DD
:101030001F9018952091B501283030F42F5F209330
:10104000B501FC0120830895FC01108208951F93CF
:10105000CF93DF93EC01162F8091B401811127C04B
:10106000EDEBF1E095E083E3DF0111979C93808342
:10107000339621E0E53DF207B9F78FE18093B9019E
:101080001092B7011092B60197B717BE25B52B7F06
:1010900025BD25B5226025BD25B52E7F25BD14BCF7
:1010A00080E486BF906497BF81E08093B40188811B
:1010B000882399F061E0812F0E949909288130E00E
:1010C000F901EE0FFF1FE20FF31FE854FE4F1F73ED
:1010D0009081907C912B906490838881DF91CF9157
:1010E0001F9108951F920F920FB60F9211242F9304
:1010F0003F938F939F93AF93BF938091D40190912F
:10110000D501A091D601B091D7013091D30123E050
:10111000230F2D3720F40196A11DB11D05C026E82F
:10112000230F0296A11DB11D2093D3018093D401FA
:101130009093D501A093D601B093D7018091D801A7
:101140009091D901A091DA01B091DB010196A11D26
:10115000B11D8093D8019093D901A093DA01B09387
:10116000DB01BF91AF919F918F913F912F910F9094
:101170000FBE0F901F9018952FB7F8946091D4016F
:101180007091D5018091D6019091D7012FBF08951C
:10119000019739F0880F991F880F991F02970197BF
:1011A000F1F70895789483B7846083BF87B781602F
:1011B00087BF1EBC8EB582608EBD8EB581608EBD30
:1011C0008FB581608FBD85B5846085BD85B5806430
:1011D00085BDEAE8F0E08081826080838081816063
:1011E0008083EBE8F0E0808181608083329A319ADD
:1011F000309A379A1AB808958B3208F08B5287705C
:101200002091080190E4299F90011124822B87B935
:10121000369A3699FECF84B125B190E0922B08958D
:101220001F93CF93DF93182FEB0161E00E94990980
:10123000209711F460E004C0CF3FD10539F461E09C
:10124000812FDF91CF911F910C94D209E12FF0E013
:10125000EC54FF4F449150E0FA013197EA30F10528
:10126000C0F5EA5BFF4F0C943D0F83B7806183BFED
:10127000C1BF34C08FB580688FBDDBBDCABD2EC075
:101280008FB580628FBDD9BDC8BD28C085B58062CD
:1012900085BDC3BD23C080918B00806880938B0087
:1012A000D0938700C093860019C080918B00806224
:1012B00080938B00D0938500C09384000FC08091F1
:1012C0008B00886080938B00D0938300C093820052
:1012D00005C0C038D1050CF0B2CFACCFDF91CF91B3
:1012E0001F91089590E0FC013197EA30F10500F577
:1012F000E05BFF4F0C943D0F8FB58F7702C08FB529
:101300008F7D8FBD089585B58F7D85BD089583B789
:101310008F7D83BF089580918B008F7707C0809168
:101320008B008F7D03C080918B00877F80938B0023
:101330000895CF93DF9390E0FC01E751FF4F249194
:10134000FC01E25EFE4F8491882349F190E0880F12
:10135000991FFC01ED58FE4FA591B4918D599E4FF8
:10136000FC01C591D4919FB7611108C0F8948C918C
:10137000209582238C93888182230AC0623051F4A5
:10138000F8948C91322F309583238C938881822B13
:10139000888304C0F8948C91822B8C939FBFDF913B
:1013A000CF9108950F931F93CF93DF931F92CDB7E3
:1013B000DEB7282F30E0F901EC54FF4F8491F9019A
:1013C000E751FF4F1491F901E25EFE4F04910023B3
:1013D000C9F0882321F069830E9472096981E02F96
:1013E000F0E0EE0FFF1FED59FE4FA591B4919FB7AE
:1013F000F8948C91611103C01095812301C0812B59
:101400008C939FBF0F90DF91CF911F910F91089503
:10141000CF93DF93282F30E0F901EC54FF4F8491F4
:10142000F901E751FF4FD491F901E25EFE4FC491FB
:10143000CC2391F081110E947209EC2FF0E0EE0FA5
:10144000FF1FED5AFE4FA591B4912C912D2381E001
:1014500090E021F480E002C080E090E0DF91CF9145
:101460000895FC0124853585F901E05CFF4F8081FA
:101470009181329620813181805C9F4F821B930B3A
:1014800060E470E00E94E80E0895FC018485958573
:10149000FC01E05CFF4F4081518132962081318117
:1014A0004217530741F00190F081E02DE80FF91F3A
:1014B000808190E008958FEF9FEF0895FC0184856F
:1014C0009585FC01E05CFF4F40815181329620817F
:1014D00031814217530779F0A081B181A80FB91F5C
:1014E0008C91208131812F5F3F4F2F7333273183C0
:1014F000208390E008958FEF9FEF0895FC0181A174
:10150000882329F0A489B5898C9186FFFBCF11A28D
:101510000895CF93DF93FC0126853785D901A05C20
:10152000BF4F8D919C91119701968F739927E90177
:10153000CE5BDF4F4881598184179507D9F30D9011
:10154000BC91A02DA20FB31F6C93A685B785A05C9C
:10155000BF4F11969C938E93A689B7892C9181E0F9
:1015600090E0078C02C0880F991F0A94E2F7282B9D
:101570002C9381E081A30488F589E02D808180642B
:10158000808381E090E0DF91CF91089508951F92CC
:101590000F920FB60F9211240BB60F922F933F9319
:1015A0004F938F939F93EF93FF935A991BC04CB126
:1015B00080912C0390912D0301968F739927209190
:1015C0002E0330912F038217930769F0E0912C03CB
:1015D000F0912D03E451FD4F408390932D038093B0
:1015E0002C0301C08CB1FF91EF919F918F914F918E
:1015F0003F912F910F900BBE0F900FBE0F901F9039
:10160000189508951F920F920FB60F9211240BB6E2
:101610000F922F933F934F938F939F93EF93FF934B
:1016200080919B0082FD1CC040919C008091A4028F
:101630009091A50201968F7399272091A60230916F
:10164000A7028217930771F0E091A402F091A5021E
:10165000EC59FD4F40839093A5028093A40202C0F1
:1016600080919C00FF91EF919F918F914F913F91BD
:101670002F910F900BBE0F900FBE0F901F901895DB
:101680008EEF91E00E94310A892B11F00E94C60A68
:101690008CED91E00E94310A892B11F00C94010B22
:1016A00008951F920F920FB60F9211240BB60F924E
:1016B0002F933F938F939F93EF93FF932091E80293
:1016C0003091E9028091EA029091EB0228173907E4
:1016D00011F4559813C0E091EA02F091EB02E8553D
:1016E000FD4F20818091EA029091EB0201968F7369
:1016F00099279093EB028093EA022CB9FF91EF9126
:101700009F918F913F912F910F900BBE0F900FBE25
:101710000F901F9018951F920F920FB60F921124E1
:101720000BB60F922F933F938F939F93EF93FF935B
:101730002091600230916102809162029091630277
:101740002817390731F480919A008F7D80939A0091
:1017500014C0E0916202F0916302E05EFD4F2081CF
:10176000809162029091630201968F739927909302
:1017700063028093620220939C00FF91EF919F91FE
:101780008F913F912F910F900BBE0F900FBE0F9036
:101790001F901895109201021092000288EE93E0BB
:1017A000A0E0B0E08093020290930302A0930402B1
:1017B000B093050225E631E03093FF012093FE014E
:1017C0004CEE52E050930B0240930A0248EA52E07A
:1017D00050930D0240930C0240E950E050930F02E9
:1017E00040930E0249E250E05093110240931002E0
:1017F0004BE250E050931302409312024AE250E051
:10180000509315024093140245E950E0509317029B
:10181000409316024CE250E0509319024093180294
:10182000E4E0E0931A0273E070931B0267E06093B8
:101830001C0255E050931D0241E040931E0210929D
:10184000DF011092DE018093E0019093E101A0930B
:10185000E201B093E3013093DD012093DC0184E6E3
:1018600092E09093E9018093E80180E292E0909306
:10187000EB018093EA0188E990E09093ED01809379
:10188000EC0189E990E09093EF018093EE018BE900
:1018900090E09093F1018093F0018AE990E09093B9
:1018A000F3018093F2018DE990E09093F50180932C
:1018B000F4018CE990E09093F7018093F601E093B6
:1018C000F8017093F9016093FA015093FB01409382
:1018D000FC01089508950E94D2080E946A0C0E949B
:1018E0000B01C0E4DBE00E94E0042097E1F30E94DA
:1018F000400BF9CFCF92DF92EF92FF920F931F939D
:10190000CF93DF936C017A01EB01E60EF71E00E046
:1019100010E0CE15DF0561F06991D601ED91FC91E3
:101920000190F081E02DC6010995080F191FF1CF34
:10193000C801DF91CF911F910F91FF90EF90DF9041
:10194000CF9008950C94F500DC01ED91FC9101908D
:10195000F081E02D09948F929F92AF92BF92CF9227
:10196000DF92EF92FF920F931F93CF93DF93CDB748
:10197000DEB7A1970FB6F894DEBF0FBECDBF7C01D6
:10198000C42EE52FCB01D22E19A221E02D1510F087
:101990002AE0D22E8E010F5D1F4F8D2C912CA12C91
:1019A000B12C6C2D7E2FA50194010E94FC0E8C2D74
:1019B000D29E80191124015011098A3014F4805DDF
:1019C00001C0895CF801808321153105410551056D
:1019D00021F0C22EE32FCA01E4CFB801C7010E9453
:1019E000F500A1960FB6F894DEBF0FBECDBFDF9114
:1019F000CF911F910F91FF90EF90DF90CF90BF900C
:101A0000AF909F908F900895CF92DF92EF92FF92C8
:101A10000F931F93CF93DF93EC016A017B01211594
:101A2000310579F4E881F9810190F081E02D642F8E
:101A3000DF91CF911F910F91FF90EF90DF90CF90AA
:101A400009942A303105E9F477FF1AC06DE20E944B
:101A5000A40C8C0144275527BA014C195D096E0965
:101A60007F092AE0CE010E94AB0C800F911FDF910D
:101A7000CF911F910F91FF90EF90DF90CF9008953D
:101A80002AE0B701A601CE01DF91CF911F910F91FE
:101A9000FF90EF90DF90CF900C94AB0C9A01AB01CC
:101AA000662757FD6095762F0C94040D009729F05A
:101AB000BC0180E090E00C94C70F08950CD0EBC0FF
:101AC000E3D040F0DAD030F021F45F3F19F0CCC021
:101AD000511115C1CFC0F0D098F39923C9F3552304
:101AE000B1F3951B550BBB27AA2762177307840711
:101AF00038F09F5F5F4F220F331F441FAA1FA9F3C7
:101B000033D00E2E3AF0E0E830D091505040E695B8
:101B1000001CCAF729D0FE2F27D0660F771F881F19
:101B2000BB1F261737074807AB07B0E809F0BB0B08
:101B3000802DBF01FF2793585F4F2AF09E3F51052C
:101B400068F092C0DCC05F3FECF3983EDCF3869512
:101B500077956795B795F7959F5FC9F7880F911DA2
:101B60009695879597F90895E1E0660F771F881F8E
:101B7000BB1F621773078407BA0720F0621B730B41
:101B8000840BBA0BEE1F88F7E095089504D0689493
:101B9000B111B5C0089598D088F09F5790F0B92F33
:101BA0009927B751A0F0D1F0660F771F881F991FB2
:101BB0001AF0BA95C9F712C0B13081F09FD0B1E0E8
:101BC00008959CC0672F782F8827B85F39F0B93FF8
:101BD000CCF3869577956795B395D9F73EF49095B4
:101BE0008095709561957F4F8F4F9F4F0895E89432
:101BF00009C097FB3EF490958095709561957F4F55
:101C00008F4F9F4F9923A9F0F92F96E9BB27939502
:101C1000F695879577956795B795F111F8CFFAF412
:101C2000BB0F11F460FF1BC06F5F7F4F8F4F9F4F43
:101C300016C0882311F096E911C0772321F09EE8A1
:101C4000872F762F05C0662371F096E8862F70E007
:101C500060E02AF09A95660F771F881FDAF7880FE1
:101C60009695879597F9089597F99F6780E870E0B2
:101C700060E008959FEF80EC089500240A94161602
:101C8000170618060906089500240A94121613066A
:101C9000140605060895092E0394000C11F48823F8
:101CA00052F0BB0F40F4BF2B11F460FF04C06F5F14
:101CB0007F4F8F4F9F4F089557FD9058440F551FEA
:101CC00059F05F3F71F04795880F97FB991F61F0BE
:101CD0009F3F79F087950895121613061406551F35
:101CE000F2CF4695F1DF08C0161617061806991FA1
:101CF000F1CF86957105610508940895E894BB2796
:101D000066277727CB0197F908950BD0C4CFB5DFAD
:101D100028F0BADF18F0952309F0A6CFABCF112435
:101D2000EECFCADFA0F3959FD1F3950F50E0551F7A
:101D3000629FF001729FBB27F00DB11D639FAA2720
:101D4000F00DB11DAA1F649F6627B00DA11D661F6F
:101D5000829F2227B00DA11D621F739FB00DA11D90
:101D6000621F839FA00D611D221F749F3327A00D4A
:101D7000611D231F849F600D211D822F762F6A2FE6
:101D800011249F5750408AF0E1F088234AF0EE0F6B
:101D9000FF1FBB1F661F771F881F91505040A9F778
:101DA0009E3F510570F060CFAACF5F3FECF3983EA5
:101DB000DCF3869577956795B795F795E7959F5FDF
:101DC000C1F7FE2B880F911D9695879597F9089579
:101DD00097FB072E16F4009407D077FD09D00E94D8
:101DE000520F07FC05D03EF4909581959F4F0895C2
:101DF000709561957F4F0895A1E21A2EAA1BBB1B17
:101E0000FD010DC0AA1FBB1FEE1FFF1FA217B307C6
:101E1000E407F50720F0A21BB30BE40BF50B661FDC
:101E2000771F881F991F1A9469F7609570958095A0
:101E300090959B01AC01BD01CF010895052E97FB44
:101E40001EF400940E94350F57FD07D00E94FC0E2F
:101E500007FC03D04EF40C94350F50954095309507
:101E600021953F4F4F4F5F4F089590958095709506
:101E700061957F4F8F4F9F4F0895EE0FFF1F059085
:101E8000F491E02D09940E94660FA59F900DB49FD8
:101E9000900DA49F800D911D112408950790F69137
:101EA000E02D0994AA1BBB1B51E107C0AA1FBB1F51
:101EB000A617B70710F0A61BB70B881F991F5A95D6
:101EC000A9F780959095BC01CD010895A29FB0011E
:101ED000B39FC001A39F700D811D1124911DB29F5E
:101EE000700D811D1124911D08958F929F92AF92C4
:101EF000BF92CF92DF92EF92FF92CF93DF93EC01EC
:101F0000688179818A819B816115710581059105BF
:101F100021F464E279ED8BE597E02DE133EF41E0C8
:101F200050E00E941E0F49015A019B01AC01A7EA33
:101F3000B1E40E94430F6B017C01ACEEB4EFA5014C
:101F400094010E94D30FC60ED71EE81EF91EF7FE9D
:101F500006C081E0C81AD108E10880E8F80AC88202
:101F6000D982EA82FB82C701B6019F77DF91CF91C8
:101F7000FF90EF90DF90CF90BF90AF909F908F90A9
:101F800008950C94750F80E091E00C94750F6093A8
:101F90000001709301018093020190930301089561
:101FA000B7FF0C94430F0E94430F821B930B0895BD
:041FB000F894FFCFD3
:101FB4000100000001000000015000440020004620
:101FC400414C5345205455524E00660072006C003B
:101FD40046524F4E54004C454654005249474854CB
:101FE4000000000000A9067A0C05000400010000AE
:101FF400001D001E002400250018001900260027DB
:1020040000FFFFFFFFFFFFFFFFFFFFFFFF060007CB
:102014000000000000890A7A0C310A5E0A450A7E33
:022024000A00B0
:00000001FF
