:100000000C94C4000C94F3000C94F3000C94F300D3
:100010000C94F3000C94F3000C94F3000C94F30094
:100020000C94F3000C94F3000C9463070C94F3000D
:100030000C94F3000C94F3000C94F3000C94F30074
:100040000C9461080C94F3000C94B60A0C94400BC9
:100050000C94F3000C94F3000C94F3000C94F30054
:100060000C94F3000C94F3000C94F3000C94F30044
:100070000C94F3000C94F3000C94F10A0C947A0B9A
:100080000C94F3000C94F3000C94F3002409580929
:1000900029092F093509580958093A0944094E090F
:1000A000760987096B096E097209870987097A0938
:1000B0007E0982090000000000000000000000002E
:1000C0000000000000000000000000000000000030
:1000D0000103040500000505090A000000000000F6
:1000E0000000000000000000000102040810204091
:1000F0008001020408102040800102040810204002
:1001000080010204081020408001020408102040F1
:100110008001020408102040800102040810040439
:10012000040404040404030303030303030301019D
:10013000010101010101020202020202020205059F
:100140000505050505050606060606060606070753
:100150000707070000390036003300300021002077
:1001600000630000003B00380035003200230062CD
:1001700000650000003A00370034003100220061C1
:10018000006400003007B90B11241FBECFEFD0E18F
:10019000DEBFCDBF11E0A0E0B1E0E2E9FFE100E0A9
:1001A0000BBF02C007900D92AC36B107D9F723E020
:1001B000ACE6B1E001C01D92AA32B207E1F711E04E
:1001C000C8E8D1E000E006C022970109FE010BBF9C
:1001D0000E943D0FC438D10780E00807A9F70E94AC
:1001E0005A0C0C94C70F0C9400006115710581F036
:1001F000DB010D900020E9F7AD0141505109461B8C
:10020000570BDC01ED91FC910280F381E02D099404
:1002100080E090E0089560E070E080E090E00E946F
:100220001B0760E070E081E090E00E941B0720E087
:1002300042E060E186E991E00E94CD0563E270E072
:1002400083E991E00E9416086FE170E082E991E095
:100250000E94160862E270E081E991E00E941608AF
:1002600086E991E00E94A50586E991E00E94AC052F
:1002700080E00E94EB080C94450D2F923F924F9224
:100280005F926F927F928F929F92AF92BF92CF9226
:10029000DF92EF92FF920F931F93CF93DF93882407
:1002A0008394912C56E9252E312C62E0C62ED12C58
:1002B000E12CF12C8091040190910501A09106019F
:1002C000B09107010197A105B10509F0A8C186E029
:1002D00090E00E94130797FD039695958795959555
:1002E000879590937D0180937C0187E090E00E9448
:1002F000130797FD03969595879595958795909308
:100300007F0180937E0181E00E94F709909387012D
:100310008093860182E00E94F70990938501809383
:10032000840140918601509187012091760130919E
:100330007701452B41F0892B09F45EC110927901B8
:100340001092780107C0892B09F45DC19092790160
:1003500080927801009178011091790102171307BA
:1003600081F0309375012093740180917201909116
:100370007301909381018093800190927301809228
:10038000720180916C0190916D01089FE001099FBD
:10039000D00D189FD00D1124809188019091890172
:1003A000C80FD91FD0938901C093880180917C0127
:1003B00090917D01089F5001099FB00C189FB00CCF
:1003C0001124B0928301A092820180917E019091CC
:1003D0007F01BC01882777FD8095982F0E94E80D4A
:1003E0002B013C018091740190917501081B190B40
:1003F000B801882777FD8095982F0E94E80D9B0112
:10040000AC01C301B2010E94740E2B013C0180912A
:100410008001909181012091720130917301820FCE
:10042000931FBC01882777FD8095982F0E94E80DC7
:100430009B01AC01C301B2010E944D0D0E94B50D9C
:1004400070937B0160937A01A60EB71EAC0EBD1EA1
:1004500097E9A916B1042CF0309271012092700135
:1004600010C02AE6A2162FEFB2062CF0B09271014E
:10047000A092700106C08AE69FEF9093710180936D
:10048000700180916E0190916F018639910509F09C
:1004900048C086E991E00E94A50569E071E086E91F
:1004A00091E00E94910C60917C0170917D014AE085
:1004B00050E086E991E00E943D0D6BE071E086E935
:1004C00091E00E94910C60917E0170917F014AE061
:1004D00050E086E991E00E943D0D6DE071E086E913
:1004E00091E00E94910C60918601709187014AE031
:1004F00050E086E991E00E943D0D6DE071E086E9F3
:1005000091E00E94910C60918401709185014AE014
:1005100050E086E991E00E943D0D10926F0110922B
:100520006E0180916E0190916F01019690936F0121
:1005300080936E0180917201909173010196909366
:1005400073018093720140917001509171014B557C
:100550005F4F60E070E084E991E00E94DB068091EB
:1005600070019091710145EA50E0481B590B61E020
:1005700070E084E991E00E94DB068091780190911F
:100580007901909377018093760185E00E94F709C5
:10059000892B19F486E00E94F70983E00E94F7098D
:1005A000892B31F484E00E94F709892B09F482CE6B
:1005B0000E94AB0820918A0130918B01890122278A
:1005C00017FD2095322F601B710B820B930B693E38
:1005D00073408105910548F0C0920401D092050155
:1005E000E0920601F092070165CE6FE071E086E9C6
:1005F00091E00E94910C5ECE8FEF9FEF9093790176
:1006000080937801A7CE81E080938C0112161306A7
:100610001CF488E090E0F2CF88EF9FEFEFCFDF91FE
:10062000CF911F910F91FF90EF90DF90CF90BF90EF
:10063000AF909F908F907F906F905F904F903F9082
:100640002F9008952F923F924F925F926F927F92D8
:100650008F929F92AF92BF92CF92DF92EF92FF92D2
:100660000F931F93CF93DF9300D000D0CDB7DEB7A9
:100670000E94AB086B017C011A8219828824839442
:10068000912CA5EA2A2E312C0E94AB086C197D0909
:100690008E099F09663971058105910508F0EFC043
:1006A00083E00E94F709892B11F081E0898384E0BF
:1006B0000E94F709892B11F091E09A8386E090E07F
:1006C0000E94130797FD03969595879595958795B5
:1006D00090937D0180937C0187E090E00E94130756
:1006E00097FD0396959587959595879590937F01AE
:1006F00080937E0181E00E94F709909387018093A7
:10070000860182E00E94F70990938501809384011D
:1007100040918601509187012091760130917701B7
:10072000452B41F0892B09F42DC1109279011092CB
:10073000780107C0892B09F42CC19092790180922D
:10074000780140917801509179014217530781F067
:10075000309375012093740180917201909173011F
:100760009093810180938001909273018092720135
:1007700080917C0190917D01489F5001499FB00C70
:10078000589FB00C1124B0928301A0928201009175
:1007900072011091730180917E0190917F01BC01E3
:1007A000882777FD8095982F4B835C830E94E80D06
:1007B0002B013C0180917401909175014B815C810A
:1007C000481B590BBA01882777FD8095982F0E9406
:1007D000E80D9B01AC01C301B2010E94740E2B0114
:1007E0003C018091800190918101800F911FBC019B
:1007F000882777FD8095982F0E94E80D9B01AC011A
:10080000C301B2010E944D0D0E94B50D70937B0192
:1008100060937A01A60EB71EB0927101A09270018A
:1008200060916E0170916F016F5F7F4F70936F01E8
:1008300060936E010F5F1F4F10937301009372015D
:10084000A5014B555F4F60E070E084E991E00E94A4
:10085000DB068091700190917101A101481B590B39
:1008600061E070E084E991E00E94DB06809178010C
:1008700090917901909377018093760105CF85E07F
:100880000E94F709892B09F07BC087E00E94F709D5
:10089000892B09F075C010E041E060E086E991E045
:1008A0000E94B305112331F06AE171E086E991E01D
:1008B0000E94F500F981FF2331F060E271E086E9E2
:1008C00091E00E94F5008A81882331F065E271E0B1
:1008D00086E991E00E94F50085E00E94F7094AE070
:1008E00050E0BC0186E991E00E943D0D87E00E9446
:1008F000F7094AE050E0BC0186E991E00E943D0D15
:1009000086E00E94F7094AE050E0BC0186E991E0E8
:100910000E943D0D80918D0190918E01A0918F01DB
:10092000B09190010196A11DB11D80938D0190930E
:100930008E01A0938F01B093900185E490E0A0E038
:10094000B0E08093040190930501A0930601B09359
:1009500007010F900F900F900F90DF91CF911F9193
:100960000F91FF90EF90DF90CF90BF90AF909F904E
:100970008F907F906F905F904F903F902F90089551
:1009800011E08ACF8FEF9FEF9093790180937801E8
:10099000D8CE121613063CF4E8E0F0E0F0937901AB
:1009A000E0937801CECEE8EFFFEFF8CF809104011D
:1009B00090910501A0910601B09107010197A10551
:1009C000B10511F40E943D0180910401909105014F
:1009D000A0910601B09107010297A105B10511F49C
:1009E0000E9422038091040190910501A0910601CB
:1009F000B091070185349105A105B10581F440E06E
:100A000050E060E070E084E991E00E94DB0640E0A5
:100A100050E061E070E084E991E00C94DB06089519
:100A2000CF93DF93EC0160E08E810E94C10981E0E9
:100A300090E00E94B70861E08E810E94C10981E0C8
:100A400090E00E94B70860E08E810E94C10984E6B0
:100A500090E0DF91CF910C94B708EF92FF920F9343
:100A60001F93CF93DF938C01C0E0D0E0E62EF12CF2
:100A7000B7010C2E02C0759567950A94E2F7617074
:100A8000F801EC0FFD1F87810E94C1092196C43037
:100A9000D10571F7C801DF91CF911F910F91FF90A0
:100AA000EF900C941005EF92FF920F931F93CF934A
:100AB000DF938C01C0E0D0E0E62EF12CB7010C2EC4
:100AC00002C0759567950A94E2F76170F801EC0F22
:100AD000FD1F87810E94C1092196C830D10571F799
:100AE000C801DF91CF911F910F91FF90EF900C946F
:100AF00010051F93CF93DF93EC01162F642F8C8189
:100B00000E94C1098D818F3F19F060E00E94C109E8
:100B10008F85612F84FF06C0CE01DF91CF911F9199
:100B20000C94530570E084E0759567958A95E1F71C
:100B3000CE010E942D05612FCE01DF91CF911F9133
:100B40000C942D0540E00C94790561E00E94A2050B
:100B500080ED97E00C94B70862E00E94A20580ED5A
:100B600097E00C94B708443008F043E0FC01238977
:100B7000421710F04FEF420FFC01E40FF11D2489E2
:100B8000260F2068622F0C94A205FC016089262F95
:100B90002460208B6C600C94A2050F931F93CF935D
:100BA000DF93EC01423018F08F8588608F874B8B84
:100BB0001C8A80E48D8B6E8B70E0605C7F4F6F8B46
:100BC000222329F0413019F48F8584608F8761E0FA
:100BD0008C810E9488098D818F3F19F061E00E940D
:100BE000880961E08E810E94880900E010E08F850D
:100BF00084FF03C088E090E002C084E090E0081722
:100C0000190754F4FE01E00FF11F61E087810E9493
:100C100088090F5F1F4FEBCF80E593EC0E94B70868
:100C200060E08C810E94C10960E08E810E94C10950
:100C30008D818F3F19F060E00E94C1096F8564FDCE
:100C40001DC063E0CE010E942D0584E991E10E9460
:100C5000B70863E0CE010E942D0584E991E10E946E
:100C6000B70863E0CE010E942D0586E990E00E945E
:100C7000B70862E0CE010E942D0516C06062CE0169
:100C80000E94A20584E991E10E94B7086F85606225
:100C9000CE010E94A20586E990E00E94B7086F8508
:100CA0006062CE010E94A2056F856062CE010E9443
:100CB000A20584E0888BCE010E94C505CE010E946A
:100CC000A50582E0898B66E0CE01DF91CF911F916F
:100CD0000F910C94A2058F92AF92CF92EF920F9347
:100CE000CF93DF93CDB7DEB7FC017A855B853C857A
:100CF000138212828FE291E0918380836483458323
:100D000026830783E086C186A286838674875587FB
:100D1000368780E1878720E041E060E1CF01DF9105
:100D2000CF910F91EF90CF90AF908F900C94CD0515
:100D300041E00E94790581E090E00895CF92DF9232
:100D4000EF92FF920F931F93CF93DF93C3E4D1E011
:100D50008BE3E82E81E0F82E03E311E0C8802296B1
:100D600061E08C2D0E948809F701D080F2E0EF0E3F
:100D7000F11C61E08D2D0E94880961E08C2D0E949C
:100D8000C10961E070E08D2D0E94FF08F8018081AB
:100D90000E5F1F4F60E070E00E94FF08F1E0CB346F
:100DA000DF07E1F6DF91CF911F910F91FF90EF9058
:100DB000DF90CF9008950F931F93CF93DF938B0114
:100DC000EA01000F111F4F3F510509F03CF441307B
:100DD0008FEF58078CF057FF03C010C0CFEFD0E063
:100DE000F801ED5BFE4F61E080810E94C109F801CE
:100DF000E55CFE4FBE0110C0C1E0DFEFF801ED5B26
:100E0000FE4F60E080810E94C109662777276C1B36
:100E10007D0BF801E55CFE4F8081DF91CF911F9142
:100E20000F910C94FF08FC01EE0FFF1FE55BFE4FD6
:100E300080810C94EB081F93CF93DF93162FD82F4C
:100E4000DD0FDD0FDD0FC0E0612F8C2F8D0F0E94B5
:100E50008809CF5FC830C1F7DF91CF911F91089506
:100E60008F92AF92CF92EF920F9387E18F9386E1AB
:100E70008F9385E18F9324E1822E33E1A32E42E10B
:100E8000C42E51E1E52E00E12CE14BE16AE186E957
:100E900091E00E946B0684E991E00E949E0683E93E
:100EA00091E00E94090882E991E00E9409080F90F0
:100EB0000F900F9081E991E00F91EF90CF90AF905C
:100EC0008F900C9409081F920F920FB60F92112465
:100ED0000BB60F922F933F934F935F936F937F9334
:100EE0008F939F93AF93BF93EF93FF938091B00144
:100EF0008F5F8093B0012091B0018091B10190E0AB
:100F0000FC01EE0FFF1FE80FF91FEE54FE4F818129
:100F100028130DC08091B10190E0FC01EE0FFF1F7E
:100F2000E80FF91FEE54FE4F828184BD5FC020910F
:100F3000B0018091B10190E0FC01EE0FFF1FE80FBE
:100F4000F91FEE54FE4F8181821708F04FC0809147
:100F5000B10190E0FC01EE0FFF1FE80FF91FEE5406
:100F6000FE4F808186FF0FC08091B10190E0FC01AF
:100F7000EE0FFF1FE80FF91FEE54FE4F808160E077
:100F80008F730E94C1098091B1018F5F8093B1017D
:100F90001092B00114BC8091B101882309F18091B5
:100FA000B1018930E8F48091B10190E0FC01EE0FCD
:100FB000FF1FE80FF91FEE54FE4F808186FF16C019
:100FC0008091B10190E0FC01EE0FFF1FE80FF91FC7
:100FD000EE54FE4F808161E08F730E94C10906C00C
:100FE0008091B101893010F01092B101FF91EF9121
:100FF000BF91AF919F918F917F916F915F914F9131
:101000003F912F910F900BBE0F900FBE0F901F902E
:1010100018952091AF01283030F42F5F2093AF0155
:10102000FC0120830895FC01108208951F93CF9343
:10103000DF93EC01162F8091AE01811127C0E7EB01
:10104000F1E095E083E3DF0111979C938083339671
:1010500021E0EF3CF207B9F78FE18093B3011092E2
:10106000B1011092B00197B717BE25B52B7F25BDF2
:1010700025B5226025BD25B52E7F25BD14BC80E495
:1010800086BF906497BF81E08093AE0188818823FA
:1010900099F061E0812F0E948809288130E0F901F0
:1010A000EE0FFF1FE20FF31FEE54FE4F1F739081F0
:1010B000907C912B906490838881DF91CF911F91D8
:1010C00008951F920F920FB60F9211242F933F9302
:1010D0008F939F93AF93BF938091CE019091CF0157
:1010E000A091D001B091D1013091CD0123E0230F27
:1010F0002D3720F40196A11DB11D05C026E8230F50
:101100000296A11DB11D2093CD018093CE01909335
:10111000CF01A093D001B093D1018091D2019091E1
:10112000D301A091D401B091D5010196A11DB11DAB
:101130008093D2019093D301A093D401B093D501B1
:10114000BF91AF919F918F913F912F910F900FBEC3
:101150000F901F9018952FB7F8946091CE01709161
:10116000CF018091D0019091D1012FBF08950197B7
:1011700039F0880F991F880F991F02970197F1F78F
:101180000895789483B7846083BF87B7816087BFF1
:101190001EBC8EB582608EBD8EB581608EBD8FB552
:1011A00081608FBD85B5846085BD85B5806485BD52
:1011B000EAE8F0E0808182608083808181608083C2
:1011C000EBE8F0E0808181608083329A319A309A36
:1011D000379A1AB808958B3208F08B528770209195
:1011E000080190E4299F90011124822B87B9369A37
:1011F0003699FECF84B125B190E0922B08951F93CC
:10120000CF93DF93182FEB0161E00E9488092097AC
:1012100011F460E004C0CF3FD10539F461E0812FC3
:10122000DF91CF911F910C94C109E12FF0E0EC54B4
:10123000FF4F449150E0FA013197EA30F105C0F5D3
:10124000EA5BFF4F0C942C0F83B7806183BFC1BF53
:1012500034C08FB580688FBDDBBDCABD2EC08FB5D1
:1012600080628FBDD9BDC8BD28C085B5806285BDEF
:10127000C3BD23C080918B00806880938B00D09386
:101280008700C093860019C080918B008062809394
:101290008B00D0938500C09384000FC080918B0099
:1012A000886080938B00D0938300C093820005C038
:1012B000C038D1050CF0B2CFACCFDF91CF911F91E8
:1012C000089590E0FC013197EA30F10500F5E05B0C
:1012D000FF4F0C942C0F8FB58F7702C08FB58F7D89
:1012E0008FBD089585B58F7D85BD089583B78F7DAA
:1012F00083BF089580918B008F7707C080918B000A
:101300008F7D03C080918B00877F80938B00089531
:10131000CF93DF9390E0FC01E751FF4F2491FC0154
:10132000E25EFE4F8491882349F190E0880F991F77
:10133000FC01ED58FE4FA591B4918D599E4FFC01D3
:10134000C591D4919FB7611108C0F8948C912095F4
:1013500082238C93888182230AC0623051F4F894EE
:101360008C91322F309583238C938881822B8883B4
:1013700004C0F8948C91822B8C939FBFDF91CF9106
:1013800008950F931F93CF93DF931F92CDB7DEB7CE
:10139000282F30E0F901EC54FF4F8491F901E75117
:1013A000FF4F1491F901E25EFE4F04910023C9F052
:1013B000882321F069830E9461096981E02FF0E0B0
:1013C000EE0FFF1FED59FE4FA591B4919FB7F89412
:1013D0008C91611103C01095812301C0812B8C93E6
:1013E0009FBF0F90DF91CF911F910F910895CF93E1
:1013F000DF93282F30E0F901EC54FF4F8491F9017D
:10140000E751FF4FD491F901E25EFE4FC491CC2326
:1014100091F081110E946109EC2FF0E0EE0FFF1FA7
:10142000ED5AFE4FA591B4912C912D2381E090E0CF
:1014300021F480E002C080E090E0DF91CF91089538
:10144000FC0124853585F901E05CFF4F80819181A5
:10145000329620813181805C9F4F821B930B60E428
:1014600070E00E94D70E0895FC0184859585FC01EB
:10147000E05CFF4F408151813296208131814217DB
:10148000530741F00190F081E02DE80FF91F8081B2
:1014900090E008958FEF9FEF0895FC018485958576
:1014A000FC01E05CFF4F4081518132962081318107
:1014B0004217530779F0A081B181A80FB91F8C9111
:1014C000208131812F5F3F4F2F733327318320835A
:1014D00090E008958FEF9FEF0895FC0181A188238C
:1014E00029F0A489B5898C9186FFFBCF11A20895BC
:1014F000CF93DF93FC0126853785D901A05CBF4FD0
:101500008D919C91119701968F739927E901CE5B7C
:10151000DF4F4881598184179507D9F30D90BC910D
:10152000A02DA20FB31F6C93A685B785A05CBF4FFB
:1015300011969C938E93A689B7892C9181E090E0B7
:10154000078C02C0880F991F0A94E2F7282B2C936E
:1015500081E081A30488F589E02D80818064808307
:1015600081E090E0DF91CF91089508951F920F924E
:101570000FB60F9211240BB60F922F933F934F93F8
:101580008F939F93EF93FF935A991BC04CB1809117
:1015900026039091270301968F73992720912803A2
:1015A000309129038217930769F0E0912603F091A7
:1015B0002703EA51FD4F408390932703809326032E
:1015C00001C08CB1FF91EF919F918F914F913F910D
:1015D0002F910F900BBE0F900FBE0F901F9018957C
:1015E00008951F920F920FB60F9211240BB60F920F
:1015F0002F933F934F938F939F93EF93FF938091FC
:101600009B0082FD1CC040919C0080919E029091A5
:101610009F0201968F7399272091A0023091A10219
:101620008217930771F0E0919E02F0919F02E25AB7
:10163000FD4F408390939F0280939E0202C0809151
:101640009C00FF91EF919F918F914F913F912F912E
:101650000F900BBE0F900FBE0F901F90189588EF44
:1016600091E00E94200A892B11F00E94B50A86EDB4
:1016700091E00E94200A892B11F00C94F00A089541
:101680001F920F920FB60F9211240BB60F922F9349
:101690003F938F939F93EF93FF932091E2023091BA
:1016A000E3028091E4029091E5022817390711F4D2
:1016B000559813C0E091E402F091E502EE55FD4F1C
:1016C00020818091E4029091E50201968F73992721
:1016D0009093E5028093E4022CB9FF91EF919F91E2
:1016E0008F913F912F910F900BBE0F900FBE0F90D7
:1016F0001F9018951F920F920FB60F9211240BB6E0
:101700000F922F933F938F939F93EF93FF9320918B
:101710005A0230915B0280915C0290915D02281721
:10172000390731F480919A008F7D80939A0014C01C
:10173000E0915C02F0915D02E65EFD4F20818091B8
:101740005C0290915D0201968F73992790935D02E0
:1017500080935C0220939C00FF91EF919F918F9169
:101760003F912F910F900BBE0F900FBE0F901F90C7
:1017700018951092FB011092FA0188EE93E0A0E018
:10178000B0E08093FC019093FD01A093FE01B09323
:10179000FF012FE531E03093F9012093F80146EE87
:1017A00052E0509305024093040242EA52E0509303
:1017B00007024093060240E950E05093090240932B
:1017C000080249E250E050930B0240930A024BE2B8
:1017D00050E050930D0240930C024AE250E05093C7
:1017E0000F0240930E0245E950E0509311024093DE
:1017F00010024CE250E05093130240931202E4E0D6
:10180000E093140273E07093150267E06093160290
:1018100055E05093170241E0409318021092D9010D
:101820001092D8018093DA019093DB01A093DC0140
:10183000B093DD013093D7012093D6018EE592E07D
:101840009093E3018093E2018AE192E09093E501B5
:101850008093E40188E990E09093E7018093E601AA
:1018600089E990E09093E9018093E8018BE990E0A9
:101870009093EB018093EA018AE990E09093ED0167
:101880008093EC018DE990E09093EF018093EE015D
:101890008CE990E09093F1018093F001E093F201E4
:1018A0007093F3016093F4015093F5014093F601B6
:1018B000089508950E94C1080E94590C0E940B01CE
:1018C000CFE2DBE00E94D6042097E1F30E942F0BC9
:1018D000F9CFCF92DF92EF92FF920F931F93CF93A6
:1018E000DF936C017A01EB01E60EF71E00E010E0D9
:1018F000CE15DF0561F06991D601ED91FC91019063
:10190000F081E02DC6010995080F191FF1CFC8011C
:10191000DF91CF911F910F91FF90EF90DF90CF90CB
:1019200008950C94F500DC01ED91FC910190F0819B
:10193000E02D09948F929F92AF92BF92CF92DF9247
:10194000EF92FF920F931F93CF93DF93CDB7DEB744
:10195000A1970FB6F894DEBF0FBECDBF7C01C42E99
:10196000E52FCB01D22E19A221E02D1510F02AE08F
:10197000D22E8E010F5D1F4F8D2C912CA12CB12CDE
:101980006C2D7E2FA50194010E94EB0E8C2DD29E12
:1019900080191124015011098A3014F4805D01C0AE
:1019A000895CF8018083211531054105510521F03D
:1019B000C22EE32FCA01E4CFB801C7010E94F5008F
:1019C000A1960FB6F894DEBF0FBECDBFDF91CF91C9
:1019D0001F910F91FF90EF90DF90CF90BF90AF904D
:1019E0009F908F900895CF92DF92EF92FF920F9386
:1019F0001F93CF93DF93EC016A017B012115310521
:101A000079F4E881F9810190F081E02D642FDF9174
:101A1000CF911F910F91FF90EF90DF90CF9009949D
:101A20002A303105E9F477FF1AC06DE20E94930C69
:101A30008C0144275527BA014C195D096E097F09AD
:101A40002AE0CE010E949A0C800F911FDF91CF9166
:101A50001F910F91FF90EF90DF90CF9008952AE0B3
:101A6000B701A601CE01DF91CF911F910F91FF9099
:101A7000EF90DF90CF900C949A0C9A01AB016627FF
:101A800057FD6095762F0C94F30C009729F0BC015C
:101A900080E090E00C94B60F08950CD0EBC0E3D03A
:101AA00040F0DAD030F021F45F3F19F0CCC0511192
:101AB00015C1CFC0F0D098F39923C9F35523B1F3E2
:101AC000951B550BBB27AA2762177307840738F0AD
:101AD0009F5F5F4F220F331F441FAA1FA9F333D00C
:101AE0000E2E3AF0E0E830D091505040E695001CC0
:101AF000CAF729D0FE2F27D0660F771F881FBB1F7C
:101B0000261737074807AB07B0E809F0BB0B802D55
:101B1000BF01FF2793585F4F2AF09E3F510568F0A1
:101B200092C0DCC05F3FECF3983EDCF3869577957E
:101B30006795B795F7959F5FC9F7880F911D9695A3
:101B4000879597F90895E1E0660F771F881FBB1FFF
:101B5000621773078407BA0720F0621B730B840BAC
:101B6000BA0BEE1F88F7E095089504D06894B11180
:101B7000B5C0089598D088F09F5790F0B92F992755
:101B8000B751A0F0D1F0660F771F881F991F1AF088
:101B9000BA95C9F712C0B13081F09FD0B1E0089575
:101BA0009CC0672F782F8827B85F39F0B93FCCF3F6
:101BB000869577956795B395D9F73EF4909580957E
:101BC000709561957F4F8F4F9F4F0895E89409C09E
:101BD00097FB3EF490958095709561957F4F8F4F60
:101BE0009F4F9923A9F0F92F96E9BB279395F69576
:101BF000879577956795B795F111F8CFFAF4BB0FF4
:101C000011F460FF1BC06F5F7F4F8F4F9F4F16C057
:101C1000882311F096E911C0772321F09EE8872FE1
:101C2000762F05C0662371F096E8862F70E060E09D
:101C30002AF09A95660F771F881FDAF7880F969516
:101C4000879597F9089597F99F6780E870E060E0BD
:101C500008959FEF80EC089500240A941616170645
:101C600018060906089500240A941216130614068D
:101C700005060895092E0394000C11F4882352F0F0
:101C8000BB0F40F4BF2B11F460FF04C06F5F7F4FA8
:101C90008F4F9F4F089557FD9058440F551F59F08F
:101CA0005F3F71F04795880F97FB991F61F09F3F49
:101CB00079F087950895121613061406551FF2CF72
:101CC0004695F1DF08C0161617061806991FF1CFC2
:101CD00086957105610508940895E894BB276627E9
:101CE0007727CB0197F908950BD0C4CFB5DF28F043
:101CF000BADF18F0952309F0A6CFABCF1124EECFB1
:101D0000CADFA0F3959FD1F3950F50E0551F629F56
:101D1000F001729FBB27F00DB11D639FAA27F00D44
:101D2000B11DAA1F649F6627B00DA11D661F829F6B
:101D30002227B00DA11D621F739FB00DA11D621F50
:101D4000839FA00D611D221F749F3327A00D611D6D
:101D5000231F849F600D211D822F762F6A2F11244F
:101D60009F5750408AF0E1F088234AF0EE0FFF1FA2
:101D7000BB1F661F771F881F91505040A9F79E3FD9
:101D8000510570F060CFAACF5F3FECF3983EDCF3D3
:101D9000869577956795B795F795E7959F5FC1F716
:101DA000FE2B880F911D9695879597F9089597FBBF
:101DB000072E16F4009407D077FD09D00E94410F3A
:101DC00007FC05D03EF4909581959F4F089570953E
:101DD00061957F4F0895A1E21A2EAA1BBB1BFD013E
:101DE0000DC0AA1FBB1FEE1FFF1FA217B307E407FA
:101DF000F50720F0A21BB30BE40BF50B661F771F52
:101E0000881F991F1A9469F7609570958095909531
:101E10009B01AC01BD01CF010895052E97FB1EF477
:101E200000940E94240F57FD07D00E94EB0E07FC80
:101E300003D04EF40C94240F509540953095219585
:101E40003F4F4F4F5F4F08959095809570956195E6
:101E50007F4F8F4F9F4F0895EE0FFF1F0590F49116
:101E6000E02D09940E94550FA59F900DB49F900DF1
:101E7000A49F800D911D112408950790F691E02DE7
:101E80000994AA1BBB1B51E107C0AA1FBB1FA617C1
:101E9000B70710F0A61BB70B881F991F5A95A9F713
:101EA00080959095BC01CD010895A29FB001B39F8C
:101EB000C001A39F700D811D1124911DB29F700D53
:101EC000811D1124911D08958F929F92AF92BF9210
:101ED000CF92DF92EF92FF92CF93DF93EC01688174
:101EE00079818A819B81611571058105910521F4B4
:101EF00064E279ED8BE597E02DE133EF41E050E0CE
:101F00000E940D0F49015A019B01AC01A7EAB1E4FF
:101F10000E94320F6B017C01ACEEB4EFA50194017D
:101F20000E94C20FC60ED71EE81EF91EF7FE06C09D
:101F300081E0C81AD108E10880E8F80AC882D9828D
:101F4000EA82FB82C701B6019F77DF91CF91FF90B4
:101F5000EF90DF90CF90BF90AF909F908F900895BB
:101F60000C94640F80E091E00C94640F6093000186
:101F70007093010180930201909303010895B7FFCC
:101F80000C94320F0E94320F821B930B0895F89429
:021F9000FFCF81
:101F92000100000001000000015000440020004642
:101FA200414C5345205455524E0046524F4E540018
:101FB2004C454654005249474854000000000098DE
:101FC20006690C05000400010000001D001E00242B
:101FD2000025001800190026002700FFFFFFFFFF61
:101FE200FFFFFFFFFFFFFF06000700000000007871
:0C1FF2000A690C200A4D0A340A6D0A002E
:00000001FF
