:100000000C94C4000C94BE080C94F3000C94F30000
:100010000C94F3000C94F3000C94F3000C94F30094
:100020000C94F3000C94D6070C944B070C94F3003B
:100030000C94F3000C94F3000C94F3000C94F30074
:100040000C941E090C94F3000C94BD0B0C94470CFB
:100050000C94F3000C94F3000C94F3000C94F30054
:100060000C94F3000C94F3000C94F3000C94F30044
:100070000C94F3000C94F3000C94F80B0C94810C8A
:100080000C94F3000C94F3000C94F3002B0A5F0A19
:10009000300A360A3C0A5F0A5F0A410A4B0A550ACF
:1000A0007D0A8E0A720A750A790A8E0A8E0A810AF8
:1000B000850A890A0000000000000000000000001E
:1000C0000000000000000000000000000000000030
:1000D0000103040500000505090A000000000000F6
:1000E0000000000000000000000102040810204091
:1000F0008001020408102040800102040810204002
:1001000080010204081020408001020408102040F1
:100110008001020408102040800102040810040439
:10012000040404040404030303030303030301019D
:10013000010101010101020202020202020205059F
:100140000505050505050606060606060606070753
:100150000707070000390036003300300021002077
:1001600000630000003B00380035003200230062CD
:1001700000650000003A00370034003100220061C1
:10018000006400001807C00C11241FBECFEFD0E19F
:10019000DEBFCDBF11E0A0E0B1E0E4E3F1E200E0BA
:1001A0000BBF02C007900D92A037B107D9F723E02B
:1001B000A0E7B1E001C01D92A036B207E1F711E05F
:1001C000C8E8D1E000E006C022970109FE010BBF9C
:1001D0000E942210C438D10780E00807A9F70E94C6
:1001E000610D0C9498100C940000CF93DF93EC01F8
:1001F0000E94680970938F0160938E0148E750E078
:1002000060E070E088E991E00E94C30648E750E0B2
:1002100061E070E088E991E00E94C306229759F4FA
:1002200048E750E060E070E088E991E00E94C30692
:1002300048E85FEF0AC048E85FEF60E070E088E9F7
:1002400091E00E94C30648E750E061E070E088E971
:1002500091E00E94C30683E00E94FE0A892B59F4B4
:10026000609108017091090180910A0190910B0140
:100270000E9498090BC084E00E94FE0A892B59F75E
:10028000EFCF84E00E94FE0A892B29F483E00E94CC
:10029000FE0A892BB1F3DF91CF91089560E070E001
:1002A00080E090E00E94030760E070E081E090E071
:1002B0000E94030720E042E060E18AE991E00E94A9
:1002C000B50563E287E991E00E947A086FE186E96B
:1002D00091E00E947A0862E285E991E00E947A0842
:1002E0008AE991E00E949F058AE991E00E94A605B3
:1002F00080E00E94F2090C94160E2F923F924F92CA
:100300005F926F927F928F929F92AF92BF92CF92A5
:10031000DF92EF92FF920F931F93CF93DF936624A8
:100320006394712C42E0C42ED12CE12CF12C8091ED
:10033000040190910501A0910601B0910701019778
:10034000A105B10509F099C186E090E00E94FB0685
:1003500097FD03969595879595958795AA2797FD7F
:10036000A095BA2F80930C0190930D01A0930E01DC
:10037000B0930F0187E090E00E94FB06AA2797FD4B
:10038000A095BA2F8093080190930901A0930A01C8
:10039000B0930B0184E690E09093810180938001FB
:1003A00082E390E0909383018093820183E00E9436
:1003B000FE0A90938B0180938A0184E00E94FE0ADA
:1003C000909389018093880140918A0150918B011B
:1003D00020917A0130917B01452B41F0892B09F462
:1003E00039C110927D0110927C0107C0892B09F45C
:1003F00038C170927D0160927C01A0907C01B09028
:100400007D01A216B30681F0309379012093780123
:10041000809176019091770190938501809384017A
:1004200070927701609276018091700190917101D4
:10043000A89EE001A99ED00DB89ED00D11248091F8
:100440008C0190918D01C80FD91FD0938D01C0935D
:100450008C018091800190918101A89E8001A99ECC
:10046000100DB89E100D1124109387010093860182
:100470008091820190918301BC01882777FD80954E
:10048000982F0E94B90E1B012C0180917801909148
:100490007901A81AB90AB501882777FD8095982FA8
:1004A0000E94B90E9B01AC01C201B1010E94450F2F
:1004B0004B015C018091840190918501209176012E
:1004C00030917701820F931FBC01882777FD8095BB
:1004D000982F0E94B90E9B01AC01C501B4010E9486
:1004E0001E0E0E94860E70937F0160937E01060FA0
:1004F000171F0C0F1D1F0B3A11051CF08AEA90E024
:100500000BC006359FEF19072CF01093750100936F
:10051000740106C086E59FEF909375018093740186
:1005200080917201909173018639910581F58AE974
:1005300091E00E949F0562E171E08AE991E00E94EA
:10054000AE0D40910C0150910D0160910E01709122
:100550000F012AE030E08AE991E00E94090E67E18C
:1005600071E08AE991E00E94AE0D4091080150913E
:10057000090160910A0170910B012AE030E08AE9DB
:1005800091E00E94090E1092730110927201809105
:10059000720190917301019690937301809372019F
:1005A00080917601909177010196909377018093E5
:1005B0007601409174015091750140565F4F60E0A3
:1005C00070E088E991E00E94C306809174019091E7
:1005D000750140EA50E0481B590B61E070E088E982
:1005E00091E00E94C30680917C0190917D019093DF
:1005F0007B0180937A0181E00E94FE0A892B31F40D
:1006000082E00E94FE0A892B09F491CE0E946809BB
:1006100020918E0130918F018901222717FD2095AD
:10062000322F601B710B820B930B6F3B7A4081055D
:10063000910548F0C0920401D0920501E0920601B4
:10064000F092070174CE6DE171E08AE991E00E94B9
:10065000AE0D6DCE8FEF9FEF90937D0180937C0167
:10066000CCCE91E090939001121613061CF483E017
:1006700090E0F2CF8DEF9FEFEFCFDF91CF911F9101
:100680000F91FF90EF90DF90CF90BF90AF909F9031
:100690008F907F906F905F904F903F902F90089534
:1006A0002F923F924F925F926F927F928F929F9282
:1006B000AF92BF92CF92DF92EF92FF920F931F9370
:1006C000CF93DF930E9468096B017C01812C912CF0
:1006D00022242394312C0E9468096C197D098E090B
:1006E0009F0900910C0110910D0120910E01309194
:1006F0000F01601771078207930708F0DFC081E0E0
:100700000E94FE0A892B11F09924939482E00E94A2
:10071000FE0A892B11F08824839480E00E94FE0A4F
:1007200082E390E090938101809380018EE190E0DC
:10073000909383018093820183E00E94FE0A90934C
:100740008B0180938A0184E00E94FE0A90938901C4
:100750008093880140918A0150918B0120917A0108
:1007600030917B01452B41F0892B09F4EDC01092AB
:100770007D0110927C0107C0892B09F4ECC03092F6
:100780007D0120927C01C0917C01D0917D01C21736
:10079000D30781F03093790120937801809176011D
:1007A0009091770190938501809384013092770135
:1007B000209276018091800190918101C89F500123
:1007C000C99FB00CD89FB00C1124B0928701A092A1
:1007D00086010091760110917701809182019091BC
:1007E0008301BC01882777FD8095982F0E94B90E60
:1007F0002B013C018091780190917901C81BD90BA4
:10080000BE01882777FD8095982F0E94B90E9B0125
:10081000AC01C301B2010E94450F2B013C01809144
:10082000840190918501800F911FBC01882777FD7D
:100830008095982F0E94B90E9B01AC01C301B201B3
:100840000E941E0E0E94860E70937F0160937E01AF
:10085000A60EB71EB0927501A0927401609172014C
:10086000709173016F5F7F4F70937301609372019A
:100870000F5F1F4F1093770100937601A50140563B
:100880005F4F60E070E088E991E00E94C3068091CC
:1008900074019091750140EA50E0481B590B61E0EA
:1008A00070E088E991E00E94C30680917C019091FC
:1008B0007D0190937B0180937A010DCF8AE991E0CD
:1008C0000E949F05992019F081E090E004C08820E3
:1008D00021F082E090E00E94F50081E090E0A0E04D
:1008E000B0E08093040190930501A0930601B093BA
:1008F00007018091910190919201A0919301B09193
:1009000094010196A11DB11D8093910190939201D4
:10091000A0939301B093940168E271E08AE991E0B9
:10092000DF91CF911F910F91FF90EF90DF90CF90CB
:10093000BF90AF909F908F907F906F905F904F90FF
:100940003F902F900C94AE0D8FEF9FEF90937D0111
:1009500080937C0118CF81E08093900112161306DA
:100960001CF483E090E0F2CF8DEF9FEFEFCF80910A
:10097000040190910501A0910601B0910701019732
:10098000A105B105D9F48091910190919201A091B6
:100990009301B09194010297A105B10569F485E432
:1009A00090E0A0E0B0E08093040190930501A09353
:1009B0000601B093070102C00E947D0180910401ED
:1009C00090910501A0910601B09107010297A10540
:1009D000B10511F40E94500380910401909105012A
:1009E000A0910601B091070185349105A105B105DB
:1009F00081F440E050E060E070E088E991E00E941E
:100A0000C30640E050E061E070E088E991E00C94BA
:100A1000C3060895CF93DF93EC0160E08E810E94BE
:100A2000C80A81E090E00E94BE0961E08E810E94C8
:100A3000C80A81E090E00E94BE0960E08E810E94B9
:100A4000C80A84E690E0DF91CF910C94BE09EF9242
:100A5000FF920F931F93CF93DF938C01C0E0D0E000
:100A6000E62EF12CB7010C2E02C0759567950A94FD
:100A7000E2F76170F801EC0FFD1F87810E94C80A40
:100A80002196C430D10571F7C801DF91CF911F9134
:100A90000F91FF90EF900C940A05EF92FF920F9345
:100AA0001F93CF93DF938C01C0E0D0E0E62EF12CB2
:100AB000B7010C2E02C0759567950A94E2F7617034
:100AC000F801EC0FFD1F87810E94C80A2196C830EB
:100AD000D10571F7C801DF91CF911F910F91FF9060
:100AE000EF900C940A051F93CF93DF93EC01162F20
:100AF000642F8C810E94C80A8D818F3F19F060E0BD
:100B00000E94C80A8F85612F84FF06C0CE01DF9145
:100B1000CF911F910C944D0570E084E07595679519
:100B20008A95E1F7CE010E942705612FCE01DF9162
:100B3000CF911F910C94270540E00C94730561E060
:100B40000E949C0580ED97E00C94BE0962E00E9433
:100B50009C0580ED97E00C94BE09FC016089262F6E
:100B60002460208B6C600C949C050F931F93CF9393
:100B7000DF93EC01423018F08F8588608F874B8BB4
:100B80001C8A80E48D8B6E8B70E0605C7F4F6F8B76
:100B9000222329F0413019F48F8584608F8761E02A
:100BA0008C810E948F0A8D818F3F19F061E00E9435
:100BB0008F0A61E08E810E948F0A00E010E08F852D
:100BC00084FF03C088E090E002C084E090E0081752
:100BD000190754F4FE01E00FF11F61E087810E94C4
:100BE0008F0A0F5F1F4FEBCF80E593EC0E94BE0989
:100BF00060E08C810E94C80A60E08E810E94C80A71
:100C00008D818F3F19F060E00E94C80A6F8564FDF6
:100C10001DC063E0CE010E94270584E991E10E9496
:100C2000BE0963E0CE010E94270584E991E10E949C
:100C3000BE0963E0CE010E94270586E990E00E948C
:100C4000BE0962E0CE010E94270516C06062CE0197
:100C50000E949C0584E991E10E94BE096F85606253
:100C6000CE010E949C0586E990E00E94BE096F8536
:100C70006062CE010E949C056F856062CE010E9479
:100C80009C0584E0888BCE010E94AD05CE010E94B8
:100C90009F0582E0898B66E0CE01DF91CF911F91A5
:100CA0000F910C949C058F92AF92CF92EF920F937D
:100CB000CF93DF93CDB7DEB7FC017A855B853C85AA
:100CC0001382128283E391E091838083648345835E
:100CD00026830783E086C186A2868386748755872C
:100CE000368780E1878720E041E060E1CF01DF9136
:100CF000CF910F91EF90CF90AF908F900C94B5055E
:100D000041E00E94730581E090E00895CF92DF9268
:100D1000EF92FF920F931F93CF93DF93C7E4D1E03D
:100D20008FE3E82E81E0F82E07E311E0C8802296D9
:100D300061E08C2D0E948F0AF701D080F2E0EF0E67
:100D4000F11C61E08D2D0E948F0A61E08C2D0E94C4
:100D5000C80A61E070E08D2D0E94060AF8018081CA
:100D60000E5F1F4F60E070E00E94060AF1E0CF3492
:100D7000DF07E1F6DF91CF911F910F91FF90EF9088
:100D8000DF90CF9008950F931F93CF93DF938B0144
:100D9000EA01000F111F4F3F510509F03CF44130AB
:100DA0008FEF58078CF057FF03C010C0CFEFD0E093
:100DB000F801E95BFE4F61E080810E94C80AF801FA
:100DC000E15CFE4FBE0110C0C1E0DFEFF801E95B5E
:100DD000FE4F60E080810E94C80A662777276C1B5F
:100DE0007D0BF801E15CFE4F8081DF91CF911F9177
:100DF0000F910C94060AFC01EE0FFF1FE15BFE4F02
:100E000080810C94F2091F93CF93DF93162FD82F74
:100E1000DD0FDD0FDD0FC0E0612F8C2F8D0F0E94E5
:100E20008F0ACF5FC830C1F7DF91CF911F9108952E
:100E30008F92AF92CF92EF920F9387E18F9386E1DB
:100E40008F9385E18F9324E1822E33E1A32E42E13B
:100E5000C42E51E1E52E00E12CE14BE16AE18AE983
:100E600091E00E94530688E991E00E94860687E996
:100E700091E00E94500886E991E00E9450080F908E
:100E80000F900F9085E991E00F91EF90CF90AF9088
:100E90008F900C9450081F920F920FB60F9211244E
:100EA0000BB60F922F933F938F939F93AF93BF9364
:100EB000EF93FF9380911001823020F48091100114
:100EC0008F5F01C080E0809310018091100181113B
:100ED0005EC0A091B80189E08A9FD0011124A75477
:100EE000BE4F9C919923D9F0A091B8018A9FD0015F
:100EF0001124A754BE4F11962C91E091B8018E9FFA
:100F0000F0011124E754FE4F0280F381E02D80812F
:100F100090E030E020953095822393238083809168
:100F2000B801873020F48091B8018F5F01C080E064
:100F30008093B801A091B80189E08A9FD001112463
:100F4000A754BE4F9C919923B1F0A091B8018A9FFC
:100F5000D0011124A754BE4F11969C91E091B80185
:100F60008E9FF0011124E754FE4F0280F381E02DA3
:100F70008081892B8083E091B80189E0E89FF001AE
:100F80001124E754FE4F868183BD80E884BDFF9124
:100F9000EF91BF91AF919F918F913F912F910F90C2
:100FA0000BBE0F900FBE0F901F9018951F920F92BF
:100FB0000FB60F9211240BB60F922F933F938F937E
:100FC0009F93AF93BF93EF93FF93A091B80139E044
:100FD0003A9FD0011124A754BE4F8C918823F1F180
:100FE00080911001813069F4A091B8013A9FD0013D
:100FF0001124A754BE4F17968D919C911897892B59
:1010000091F080911001823049F5A091B80139E04A
:101010003A9FD0011124A754BE4F17968D919C91F1
:101020001897892BD9F0A091B8013A9FD0011124CB
:10103000A754BE4F11962C91E091B8013E9FF0014C
:101040001124E754FE4F0280F381E02D808190E06F
:1010500030E020953095822393238083FF91EF9198
:10106000BF91AF919F918F913F912F910F900BBEA8
:101070000F900FBE0F901F901895F89414BC8FEF2F
:1010800083BD15BC85B5836085BD85B5886485BD88
:1010900087B7806887BF87B7806487BF78940895D3
:1010A000FC011082A0910102A83018F5A08389E00C
:1010B0008A9FD0011124A754BE4F1C9211961C92F6
:1010C000A0818A9FD0011124A754BE4F13961C9271
:1010D0001E92129716961C92E0818E9FF0011124A9
:1010E000E754FE4F10861782809101028F5F809334
:1010F00001020895FF920F931F93CF93DF93EC01AA
:10110000862F262F30E0F901E751FF4FF490F901C7
:10111000E25EFE4FE491EE2341F1F0E0EE0FFF1F9F
:10112000ED59FE4F0591149161E00E948F0AA8814C
:1011300099E09A9FD0011124A754BE4F81E08C936F
:101140001196FC92E8819E9FF0011124E754FE4F16
:10115000138302831582148290910202911107C0B9
:10116000809302020E943D0802C080E001C081E03D
:10117000DF91CF911F910F91FF9008951F920F92D1
:101180000FB60F9211240BB60F920F931F932F934C
:101190003F934F935F936F937F938F939F93AF93FF
:1011A000BF93CF93EF93FF930E9468090091B20120
:1011B0001091B3012091B4013091B501065F1F4F2A
:1011C0002F4F3F4F061717072807390708F5C0E0CC
:1011D00080E00E94FE0A892BB1F0CA30B9F48091F8
:1011E000B6019091B70101969093B7018093B60133
:1011F0000E9468096093B2017093B3018093B401B7
:101200009093B50105C0CA3099F7E9CFCF5FE0CF21
:10121000FF91EF91CF91BF91AF919F918F917F916E
:101220006F915F914F913F912F911F910F910F906F
:101230000BBE0F900FBE0F901F9018951F920F922C
:101240000FB60F9211242F933F938F939F93AF93D9
:10125000BF938091040290910502A0910602B09183
:1012600007023091030223E0230F2D3720F401966B
:10127000A11DB11D05C026E8230F0296A11DB11DB9
:10128000209303028093040290930502A093060228
:10129000B09307028091080290910902A0910A027E
:1012A000B0910B020196A11DB11D8093080290938D
:1012B0000902A0930A02B0930B02BF91AF919F91D4
:1012C0008F913F912F910F900FBE0F901F90189507
:1012D0002FB7F89460910402709105028091060284
:1012E000909107022FBF08953FB7F89480910802AC
:1012F00090910902A0910A02B0910B0222B706B6A2
:1013000000FE05C02F3F19F00196A11DB11D3FBF82
:101310006627782F892F9A2F620F711D811D911DCD
:1013200042E0660F771F881F991F4A95D1F70895ED
:10133000CF92DF92EF92FF92CF93DF936B017C010C
:101340000E947409EB01C114D104E104F10479F0A5
:101350000E9474096C1B7D0B683E7340A0F381E012
:10136000C81AD108E108F108C851DC4FECCFDF9171
:10137000CF91FF90EF90DF90CF900895019739F0D3
:10138000880F991F880F991F02970197F1F7089509
:10139000789483B7846083BF87B7816087BF1EBCA2
:1013A0008EB582608EBD8EB581608EBD8FB5816039
:1013B0008FBD85B5846085BD85B5806485BDEAE84F
:1013C000F0E0808182608083808181608083EBE8AF
:1013D000F0E0808181608083329A319A309A379A26
:1013E0001AB808958B3208F08B5287702091110142
:1013F00090E4299F90011124822B87B9369A36995F
:10140000FECF84B125B190E0922B08951F93CF9326
:10141000DF93182FEB0161E00E948F0A209711F4EF
:1014200060E004C0CF3FD10539F461E0812FDF9146
:10143000CF911F910C94C80AE12FF0E0EC54FF4FBC
:10144000449150E0FA013197EA30F105C0F5EA5BCA
:10145000FF4F0C94111083B7806183BFC1BF34C0AC
:101460008FB580688FBDDBBDCABD2EC08FB58062D1
:101470008FBDD9BDC8BD28C085B5806285BDC3BD3F
:1014800023C080918B00806880938B00D09387006D
:10149000C093860019C080918B00806280938B007E
:1014A000D0938500C09384000FC080918B0088602A
:1014B00080938B00D0938300C093820005C0C03816
:1014C000D1050CF0B2CFACCFDF91CF911F91089531
:1014D00090E0FC013197EA30F10500F5E05BFF4F49
:1014E0000C9411108FB58F7702C08FB58F7D8FBD93
:1014F000089585B58F7D85BD089583B78F7D83BFA2
:10150000089580918B008F7707C080918B008F7D2D
:1015100003C080918B00877F80938B000895CF93C9
:10152000DF9390E0FC01E751FF4F2491FC01E25E64
:10153000FE4F8491882349F190E0880F991FFC01A8
:10154000ED58FE4FA591B4918D599E4FFC01C59168
:10155000D4919FB7611108C0F8948C912095822393
:101560008C93888182230AC0623051F4F8948C9164
:10157000322F309583238C938881822B888304C0FB
:10158000F8948C91822B8C939FBFDF91CF9108951B
:101590000F931F93CF93DF931F92CDB7DEB7282F02
:1015A00030E0F901EC54FF4F8491F901E751FF4F0E
:1015B0001491F901E25EFE4F04910023C9F08823E3
:1015C00021F069830E94680A6981E02FF0E0EE0F44
:1015D000FF1FED59FE4FA591B4919FB7F8948C91E0
:1015E000611103C01095812301C0812B8C939FBF93
:1015F0000F90DF91CF911F910F910895CF93DF93BB
:10160000282F30E0F901EC54FF4F8491F901E751A4
:10161000FF4FD491F901E25EFE4FC491CC2391F0CB
:1016200081110E94680AEC2FF0E0EE0FFF1FED5AC7
:10163000FE4FA591B4912C912D2381E090E021F4EF
:1016400080E002C080E090E0DF91CF910895FC013E
:1016500024853585F901E05CFF4F808191813296C8
:1016600020813181805C9F4F821B930B60E470E08E
:101670000E94BC0F0895FC0184859585FC01E05C07
:10168000FF4F4081518132962081318142175307AB
:1016900041F00190F081E02DE80FF91F808190E08A
:1016A00008958FEF9FEF0895FC0184859585FC01D7
:1016B000E05CFF4F40815181329620813181421799
:1016C000530779F0A081B181A80FB91F8C912081B7
:1016D00031812F5F3F4F2F7333273183208390E079
:1016E00008958FEF9FEF0895FC0181A1882329F0D1
:1016F000A489B5898C9186FFFBCF11A20895CF9361
:10170000DF93FC0126853785D901A05CBF4F8D9101
:101710009C91119701968F739927E901CE5BDF4F5A
:101720004881598184179507D9F30D90BC91A02D5C
:10173000A20FB31F6C93A685B785A05CBF4F11960F
:101740009C938E93A689B7892C9181E090E0078CB9
:1017500002C0880F991F0A94E2F7282B2C9381E08E
:1017600081A30488F589E02D80818064808381E0F5
:1017700090E0DF91CF91089508951F920F920FB6D8
:101780000F9211240BB60F922F933F934F938F9389
:101790009F93EF93FF935A991BC04CB180915C03C8
:1017A00090915D0301968F73992720915E0330918C
:1017B0005F038217930769F0E0915C03F0915D038A
:1017C000E45EFC4F408390935D0380935C0301C013
:1017D0008CB1FF91EF919F918F914F913F912F91FC
:1017E0000F900BBE0F900FBE0F901F90189508958D
:1017F0001F920F920FB60F9211240BB60F922F93D8
:101800003F934F938F939F93EF93FF9380919B0010
:1018100082FD1CC040919C008091D4029091D50221
:1018200001968F7399272091D6023091D7028217A3
:10183000930771F0E091D402F091D502EC56FD4F80
:1018400040839093D5028093D40202C080919C0083
:10185000FF91EF919F918F914F913F912F910F9019
:101860000BBE0F900FBE0F901F9018958EE292E066
:101870000E94270B892B11F00E94BC0B8CE092E098
:101880000E94270B892B11F00C94F70B08951F92DF
:101890000F920FB60F9211240BB60F922F933F9316
:1018A0008F939F93EF93FF93209118033091190327
:1018B00080911A0390911B032817390711F455984A
:1018C00013C0E0911A03F0911B03E852FD4F2081F1
:1018D00080911A0390911B0301968F73992790931F
:1018E0001B0380931A032CB9FF91EF919F918F9165
:1018F0003F912F910F900BBE0F900FBE0F901F9036
:1019000018951F920F920FB60F9211240BB60F92DB
:101910002F933F938F939F93EF93FF932091900288
:101920003091910280919202909193022817390789
:1019300031F480919A008F7D80939A0014C0E091D9
:101940009202F0919302E05BFD4F20818091920220
:101950009091930201968F739927909393028093AD
:10196000920220939C00FF91EF919F918F913F9164
:101970002F910F900BBE0F900FBE0F901F901895D8
:10198000109231021092300288EE93E0A0E0B0E0B5
:101990008093320290933302A0933402B0933502C5
:1019A00023E631E030932F0220932E024CE153E0E6
:1019B00050933B0240933A0248ED52E050933D026F
:1019C00040933C0240E950E050933F0240933E0276
:1019D00049E250E050934102409340024BE250E014
:1019E00050934302409342024AE250E05093450232
:1019F0004093440245E950E0509347024093460229
:101A00004CE250E05093490240934802E4E0E093F6
:101A10004A0273E070934B0267E060934C0255E01A
:101A200050934D0241E040934E0210920F021092EB
:101A30000E028093100290931102A0931202B093B1
:101A4000130230930D0220930C0284E992E09093EC
:101A500019028093180280E592E090931B02809314
:101A60001A0288E990E090931D0280931C0289E994
:101A700090E090931F0280931E028BE990E0909378
:101A80002102809320028AE990E0909323028093C0
:101A900022028DE990E090932502809324028CE944
:101AA00090E09093270280932602E093280270939F
:101AB000290260932A0250932B0240932C0208952E
:101AC00008950E94C8090E94600D0E944E01C6E35D
:101AD000DCE00E94B7042097E1F30E94360CF9CFB6
:101AE000CF92DF92EF92FF920F931F93CF93DF93EA
:101AF0006C017A01EB01E60EF71E00E010E0CE1556
:101B0000DF0561F06991D601ED91FC910190F081C2
:101B1000E02DC6010995080F191FF1CFC801DF910B
:101B2000CF911F910F91FF90EF90DF90CF9008958C
:101B30006115710581F0DB010D900020E9F7AD0121
:101B400041505109461B570BDC01ED91FC9102807D
:101B5000F381E02D099480E090E008950C94980DB5
:101B60008F929F92AF92BF92CF92DF92EF92FF92AD
:101B70000F931F93CF93DF93CDB7DEB7A1970FB627
:101B8000F894DEBF0FBECDBF7C01C42EE52FCB0184
:101B9000D22E19A221E02D1510F02AE0D22E8E01AE
:101BA0000F5D1F4F8D2C912CA12CB12C6C2D7E2FF5
:101BB000A50194010E94D00F8C2DD29E8019112472
:101BC000015011098A3014F4805D01C0895CF8016C
:101BD0008083211531054105510521F0C22EE32FE7
:101BE000CA01E4CFB801C7010E94980DA1960FB6B3
:101BF000F894DEBF0FBECDBFDF91CF911F910F9143
:101C0000FF90EF90DF90CF90BF90AF909F908F901C
:101C100008952115310541F4DC01ED91FC9101900D
:101C2000F081E02D642F09940C94B00D009729F0F9
:101C3000BC0180E090E00C94871008950CD0EBC0BC
:101C4000E3D040F0DAD030F021F45F3F19F0CCC09F
:101C5000511115C1CFC0F0D098F39923C9F3552382
:101C6000B1F3951B550BBB27AA276217730784078F
:101C700038F09F5F5F4F220F331F441FAA1FA9F345
:101C800033D00E2E3AF0E0E830D091505040E69537
:101C9000001CCAF729D0FE2F27D0660F771F881F98
:101CA000BB1F261737074807AB07B0E809F0BB0B87
:101CB000802DBF01FF2793585F4F2AF09E3F5105AB
:101CC00068F092C0DCC05F3FECF3983EDCF3869591
:101CD00077956795B795F7959F5FC9F7880F911D21
:101CE0009695879597F90895E1E0660F771F881F0D
:101CF000BB1F621773078407BA0720F0621B730BC0
:101D0000840BBA0BEE1F88F7E095089504D0689411
:101D1000B111B5C0089598D088F09F5790F0B92FB1
:101D20009927B751A0F0D1F0660F771F881F991F30
:101D30001AF0BA95C9F712C0B13081F09FD0B1E066
:101D400008959CC0672F782F8827B85F39F0B93F76
:101D5000CCF3869577956795B395D9F73EF4909532
:101D60008095709561957F4F8F4F9F4F0895E894B0
:101D700009C097FB3EF490958095709561957F4FD3
:101D80008F4F9F4F9923A9F0F92F96E9BB27939581
:101D9000F695879577956795B795F111F8CFFAF491
:101DA000BB0F11F460FF1BC06F5F7F4F8F4F9F4FC2
:101DB00016C0882311F096E911C0772321F09EE820
:101DC000872F762F05C0662371F096E8862F70E086
:101DD00060E02AF09A95660F771F881FDAF7880F60
:101DE0009695879597F9089597F99F6780E870E031
:101DF00060E008959FEF80EC089500240A94161681
:101E0000170618060906089500240A9412161306E8
:101E1000140605060895092E0394000C11F4882376
:101E200052F0BB0F40F4BF2B11F460FF04C06F5F92
:101E30007F4F8F4F9F4F089557FD9058440F551F68
:101E400059F05F3F71F04795880F97FB991F61F03C
:101E50009F3F79F087950895121613061406551FB3
:101E6000F2CF4695F1DF08C0161617061806991F1F
:101E7000F1CF86957105610508940895E894BB2714
:101E800066277727CB0197F908950BD0C4CFB5DF2C
:101E900028F0BADF18F0952309F0A6CFABCF1124B4
:101EA000EECFCADFA0F3959FD1F3950F50E0551FF9
:101EB000629FF001729FBB27F00DB11D639FAA279F
:101EC000F00DB11DAA1F649F6627B00DA11D661FEE
:101ED000829F2227B00DA11D621F739FB00DA11D0F
:101EE000621F839FA00D611D221F749F3327A00DC9
:101EF000611D231F849F600D211D822F762F6A2F65
:101F000011249F5750408AF0E1F088234AF0EE0FE9
:101F1000FF1FBB1F661F771F881F91505040A9F7F6
:101F20009E3F510570F060CFAACF5F3FECF3983E23
:101F3000DCF3869577956795B795F795E7959F5F5D
:101F4000C1F7FE2B880F911D9695879597F90895F7
:101F5000AA1BBB1B51E107C0AA1FBB1FA617B707CF
:101F600010F0A61BB70B881F991F5A95A9F78095EB
:101F70009095BC01CD01089597FB072E16F40094AF
:101F800007D077FD09D00E94A80F07FC05D03EF4CA
:101F9000909581959F4F0895709561957F4F089515
:101FA000A1E21A2EAA1BBB1BFD010DC0AA1FBB1F5D
:101FB000EE1FFF1FA217B307E407F50720F0A21BCF
:101FC000B30BE40BF50B661F771F881F991F1A943C
:101FD00069F760957095809590959B01AC01BD0166
:101FE000CF010895052E97FB1EF400940E9409105E
:101FF00057FD07D00E94D00F07FC03D04EF40C947D
:10200000091050954095309521953F4F4F4F5F4FA8
:10201000089590958095709561957F4F8F4F9F4F54
:102020000895EE0FFF1F0590F491E02D09940E9492
:102030002610A59F900DB49F900DA49F800D911D1B
:10204000112408950790F691E02D0994A29FB00104
:10205000B39FC001A39F700D811D1124911DB29FDC
:10206000700D811D1124911D08958F929F92AF9242
:10207000BF92CF92DF92EF92FF92CF93DF93EC016A
:10208000688179818A819B8161157105810591053E
:1020900021F464E279ED8BE597E02DE133EF41E047
:1020A00050E00E94F20F49015A019B01AC01A7EADE
:1020B000B1E40E9417106B017C01ACEEB4EFA501F6
:1020C00094010E949310C60ED71EE81EF91EF7FE5B
:1020D00006C081E0C81AD108E10880E8F80AC88281
:1020E000D982EA82FB82C701B6019F77DF91CF9147
:1020F000FF90EF90DF90CF90BF90AF909F908F9028
:1021000008950C94351080E091E00C9435106093A4
:1021100000017093010180930201909303010895DF
:10212000B7FF0C9417100E941710821B930B089591
:04213000F894FFCF51
:102134000100000001000000570100002E00000013
:102144000201494E5420005455524E200046414C41
:102154005345205455524E005455524E45440000A8
:102164000000008006700D05000400010000001D41
:10217400001E00240025001800190026002700FF77
:10218400FFFFFFFFFFFFFFFFFFFFFF060007000049
:102194000000007F0B700D270B540B3B0B740B00DE
:00000001FF
